{
  "_format": "hh-sol-artifact-1",
  "contractName": "Event",
  "sourceName": "contracts/Event.sol",
  "abi": [
    {
      "inputs": [
        {
          "internalType": "address",
          "name": "_organizer",
          "type": "address"
        },
        {
          "internalType": "string",
          "name": "_name",
          "type": "string"
        },
        {
          "internalType": "uint256",
          "name": "_start",
          "type": "uint256"
        },
        {
          "internalType": "uint256",
          "name": "_end",
          "type": "uint256"
        },
        {
          "internalType": "string",
          "name": "_description",
          "type": "string"
        },
        {
          "internalType": "string",
          "name": "_location",
          "type": "string"
        },
        {
          "internalType": "uint256",
          "name": "supply",
          "type": "uint256"
        },
        {
          "internalType": "uint256",
          "name": "_ticketPrice",
          "type": "uint256"
        },
        {
          "internalType": "address",
          "name": "_verifierAddr",
          "type": "address"
        }
      ],
      "stateMutability": "nonpayable",
      "type": "constructor"
    },
    {
      "anonymous": false,
      "inputs": [
        {
          "indexed": true,
          "internalType": "address",
          "name": "owner",
          "type": "address"
        },
        {
          "indexed": true,
          "internalType": "address",
          "name": "approved",
          "type": "address"
        },
        {
          "indexed": true,
          "internalType": "uint256",
          "name": "tokenId",
          "type": "uint256"
        }
      ],
      "name": "Approval",
      "type": "event"
    },
    {
      "anonymous": false,
      "inputs": [
        {
          "indexed": true,
          "internalType": "address",
          "name": "owner",
          "type": "address"
        },
        {
          "indexed": true,
          "internalType": "address",
          "name": "operator",
          "type": "address"
        },
        {
          "indexed": false,
          "internalType": "bool",
          "name": "approved",
          "type": "bool"
        }
      ],
      "name": "ApprovalForAll",
      "type": "event"
    },
    {
      "anonymous": false,
      "inputs": [
        {
          "indexed": true,
          "internalType": "address",
          "name": "previousOwner",
          "type": "address"
        },
        {
          "indexed": true,
          "internalType": "address",
          "name": "newOwner",
          "type": "address"
        }
      ],
      "name": "OwnershipTransferred",
      "type": "event"
    },
    {
      "anonymous": false,
      "inputs": [
        {
          "indexed": false,
          "internalType": "address",
          "name": "_event",
          "type": "address"
        },
        {
          "indexed": false,
          "internalType": "address",
          "name": "_organizer",
          "type": "address"
        },
        {
          "indexed": false,
          "internalType": "uint256",
          "name": "_balance",
          "type": "uint256"
        }
      ],
      "name": "PaymentCollected",
      "type": "event"
    },
    {
      "anonymous": false,
      "inputs": [
        {
          "indexed": false,
          "internalType": "address",
          "name": "purchaser",
          "type": "address"
        },
        {
          "indexed": false,
          "internalType": "uint256",
          "name": "quantity",
          "type": "uint256"
        },
        {
          "indexed": false,
          "internalType": "uint256",
          "name": "date",
          "type": "uint256"
        },
        {
          "indexed": false,
          "internalType": "uint256",
          "name": "newItemId",
          "type": "uint256"
        }
      ],
      "name": "TicketPurchased",
      "type": "event"
    },
    {
      "anonymous": false,
      "inputs": [
        {
          "indexed": false,
          "internalType": "address",
          "name": "_event",
          "type": "address"
        },
        {
          "indexed": false,
          "internalType": "address",
          "name": "_requestedBy",
          "type": "address"
        },
        {
          "indexed": false,
          "internalType": "uint256",
          "name": "_tokenIds",
          "type": "uint256"
        },
        {
          "indexed": false,
          "internalType": "uint256",
          "name": "_ticketPrice",
          "type": "uint256"
        }
      ],
      "name": "TicketRefunded",
      "type": "event"
    },
    {
      "anonymous": false,
      "inputs": [
        {
          "indexed": false,
          "internalType": "address",
          "name": "_from",
          "type": "address"
        },
        {
          "indexed": false,
          "internalType": "address",
          "name": "_to",
          "type": "address"
        },
        {
          "indexed": false,
          "internalType": "uint256",
          "name": "_tokenIds",
          "type": "uint256"
        }
      ],
      "name": "TicketTransfered",
      "type": "event"
    },
    {
      "anonymous": false,
      "inputs": [
        {
          "indexed": true,
          "internalType": "address",
          "name": "from",
          "type": "address"
        },
        {
          "indexed": true,
          "internalType": "address",
          "name": "to",
          "type": "address"
        },
        {
          "indexed": true,
          "internalType": "uint256",
          "name": "tokenId",
          "type": "uint256"
        }
      ],
      "name": "Transfer",
      "type": "event"
    },
    {
      "inputs": [
        {
          "internalType": "address",
          "name": "to",
          "type": "address"
        },
        {
          "internalType": "uint256",
          "name": "tokenId",
          "type": "uint256"
        }
      ],
      "name": "approve",
      "outputs": [],
      "stateMutability": "nonpayable",
      "type": "function"
    },
    {
      "inputs": [],
      "name": "available",
      "outputs": [
        {
          "internalType": "uint256",
          "name": "",
          "type": "uint256"
        }
      ],
      "stateMutability": "view",
      "type": "function"
    },
    {
      "inputs": [
        {
          "internalType": "address",
          "name": "owner",
          "type": "address"
        }
      ],
      "name": "balanceOf",
      "outputs": [
        {
          "internalType": "uint256",
          "name": "",
          "type": "uint256"
        }
      ],
      "stateMutability": "view",
      "type": "function"
    },
    {
      "inputs": [],
      "name": "cancelEvent",
      "outputs": [],
      "stateMutability": "nonpayable",
      "type": "function"
    },
    {
      "inputs": [],
      "name": "collectPayment",
      "outputs": [],
      "stateMutability": "nonpayable",
      "type": "function"
    },
    {
      "inputs": [],
      "name": "description",
      "outputs": [
        {
          "internalType": "string",
          "name": "",
          "type": "string"
        }
      ],
      "stateMutability": "view",
      "type": "function"
    },
    {
      "inputs": [],
      "name": "endDate",
      "outputs": [
        {
          "internalType": "uint256",
          "name": "",
          "type": "uint256"
        }
      ],
      "stateMutability": "view",
      "type": "function"
    },
    {
      "inputs": [],
      "name": "evName",
      "outputs": [
        {
          "internalType": "string",
          "name": "",
          "type": "string"
        }
      ],
      "stateMutability": "view",
      "type": "function"
    },
    {
      "inputs": [],
      "name": "evOwner",
      "outputs": [
        {
          "internalType": "address",
          "name": "",
          "type": "address"
        }
      ],
      "stateMutability": "view",
      "type": "function"
    },
    {
      "inputs": [
        {
          "internalType": "uint256",
          "name": "tokenId",
          "type": "uint256"
        }
      ],
      "name": "getApproved",
      "outputs": [
        {
          "internalType": "address",
          "name": "",
          "type": "address"
        }
      ],
      "stateMutability": "view",
      "type": "function"
    },
    {
      "inputs": [],
      "name": "getIdentity",
      "outputs": [
        {
          "internalType": "address",
          "name": "",
          "type": "address"
        },
        {
          "internalType": "string",
          "name": "",
          "type": "string"
        },
        {
          "internalType": "uint256",
          "name": "",
          "type": "uint256"
        },
        {
          "internalType": "uint256",
          "name": "",
          "type": "uint256"
        },
        {
          "internalType": "string",
          "name": "",
          "type": "string"
        },
        {
          "internalType": "string",
          "name": "",
          "type": "string"
        },
        {
          "internalType": "uint256",
          "name": "",
          "type": "uint256"
        },
        {
          "internalType": "uint256",
          "name": "",
          "type": "uint256"
        }
      ],
      "stateMutability": "view",
      "type": "function"
    },
    {
      "inputs": [],
      "name": "getMerkleTreeLeaves",
      "outputs": [
        {
          "internalType": "bytes32[]",
          "name": "",
          "type": "bytes32[]"
        }
      ],
      "stateMutability": "view",
      "type": "function"
    },
    {
      "inputs": [
        {
          "internalType": "uint256",
          "name": "ticket",
          "type": "uint256"
        }
      ],
      "name": "getRefund",
      "outputs": [],
      "stateMutability": "nonpayable",
      "type": "function"
    },
    {
      "inputs": [],
      "name": "getTotalTicketAvailables",
      "outputs": [
        {
          "internalType": "uint256",
          "name": "",
          "type": "uint256"
        }
      ],
      "stateMutability": "view",
      "type": "function"
    },
    {
      "inputs": [],
      "name": "getTotalTicketMinted",
      "outputs": [
        {
          "internalType": "uint256",
          "name": "",
          "type": "uint256"
        }
      ],
      "stateMutability": "view",
      "type": "function"
    },
    {
      "inputs": [],
      "name": "imageHash",
      "outputs": [
        {
          "internalType": "string",
          "name": "",
          "type": "string"
        }
      ],
      "stateMutability": "view",
      "type": "function"
    },
    {
      "inputs": [
        {
          "internalType": "address",
          "name": "owner",
          "type": "address"
        },
        {
          "internalType": "address",
          "name": "operator",
          "type": "address"
        }
      ],
      "name": "isApprovedForAll",
      "outputs": [
        {
          "internalType": "bool",
          "name": "",
          "type": "bool"
        }
      ],
      "stateMutability": "view",
      "type": "function"
    },
    {
      "inputs": [],
      "name": "isCanceled",
      "outputs": [
        {
          "internalType": "bool",
          "name": "",
          "type": "bool"
        }
      ],
      "stateMutability": "view",
      "type": "function"
    },
    {
      "inputs": [
        {
          "internalType": "address",
          "name": "_owner",
          "type": "address"
        },
        {
          "internalType": "uint256",
          "name": "_tokenIds",
          "type": "uint256"
        }
      ],
      "name": "isTicketValid",
      "outputs": [
        {
          "internalType": "bool",
          "name": "",
          "type": "bool"
        }
      ],
      "stateMutability": "nonpayable",
      "type": "function"
    },
    {
      "inputs": [],
      "name": "location",
      "outputs": [
        {
          "internalType": "string",
          "name": "",
          "type": "string"
        }
      ],
      "stateMutability": "view",
      "type": "function"
    },
    {
      "inputs": [],
      "name": "merkleTreeAddress",
      "outputs": [
        {
          "internalType": "contract MerkleTree",
          "name": "",
          "type": "address"
        }
      ],
      "stateMutability": "view",
      "type": "function"
    },
    {
      "inputs": [],
      "name": "name",
      "outputs": [
        {
          "internalType": "string",
          "name": "",
          "type": "string"
        }
      ],
      "stateMutability": "view",
      "type": "function"
    },
    {
      "inputs": [],
      "name": "owner",
      "outputs": [
        {
          "internalType": "address",
          "name": "",
          "type": "address"
        }
      ],
      "stateMutability": "view",
      "type": "function"
    },
    {
      "inputs": [
        {
          "internalType": "uint256",
          "name": "tokenId",
          "type": "uint256"
        }
      ],
      "name": "ownerOf",
      "outputs": [
        {
          "internalType": "address",
          "name": "",
          "type": "address"
        }
      ],
      "stateMutability": "view",
      "type": "function"
    },
    {
      "inputs": [
        {
          "internalType": "address",
          "name": "receiverAddress",
          "type": "address"
        },
        {
          "internalType": "uint256",
          "name": "quantity",
          "type": "uint256"
        }
      ],
      "name": "purchaseTicket",
      "outputs": [],
      "stateMutability": "payable",
      "type": "function"
    },
    {
      "inputs": [],
      "name": "renounceOwnership",
      "outputs": [],
      "stateMutability": "nonpayable",
      "type": "function"
    },
    {
      "inputs": [
        {
          "internalType": "address",
          "name": "from",
          "type": "address"
        },
        {
          "internalType": "address",
          "name": "to",
          "type": "address"
        },
        {
          "internalType": "uint256",
          "name": "tokenId",
          "type": "uint256"
        }
      ],
      "name": "safeTransferFrom",
      "outputs": [],
      "stateMutability": "nonpayable",
      "type": "function"
    },
    {
      "inputs": [
        {
          "internalType": "address",
          "name": "from",
          "type": "address"
        },
        {
          "internalType": "address",
          "name": "to",
          "type": "address"
        },
        {
          "internalType": "uint256",
          "name": "tokenId",
          "type": "uint256"
        },
        {
          "internalType": "bytes",
          "name": "_data",
          "type": "bytes"
        }
      ],
      "name": "safeTransferFrom",
      "outputs": [],
      "stateMutability": "nonpayable",
      "type": "function"
    },
    {
      "inputs": [
        {
          "internalType": "address",
          "name": "operator",
          "type": "address"
        },
        {
          "internalType": "bool",
          "name": "approved",
          "type": "bool"
        }
      ],
      "name": "setApprovalForAll",
      "outputs": [],
      "stateMutability": "nonpayable",
      "type": "function"
    },
    {
      "inputs": [],
      "name": "startDate",
      "outputs": [
        {
          "internalType": "uint256",
          "name": "",
          "type": "uint256"
        }
      ],
      "stateMutability": "view",
      "type": "function"
    },
    {
      "inputs": [
        {
          "internalType": "bytes4",
          "name": "interfaceId",
          "type": "bytes4"
        }
      ],
      "name": "supportsInterface",
      "outputs": [
        {
          "internalType": "bool",
          "name": "",
          "type": "bool"
        }
      ],
      "stateMutability": "view",
      "type": "function"
    },
    {
      "inputs": [],
      "name": "symbol",
      "outputs": [
        {
          "internalType": "string",
          "name": "",
          "type": "string"
        }
      ],
      "stateMutability": "view",
      "type": "function"
    },
    {
      "inputs": [],
      "name": "ticketPrice",
      "outputs": [
        {
          "internalType": "uint256",
          "name": "",
          "type": "uint256"
        }
      ],
      "stateMutability": "view",
      "type": "function"
    },
    {
      "inputs": [
        {
          "internalType": "uint256",
          "name": "tokenId",
          "type": "uint256"
        }
      ],
      "name": "tokenURI",
      "outputs": [
        {
          "internalType": "string",
          "name": "",
          "type": "string"
        }
      ],
      "stateMutability": "view",
      "type": "function"
    },
    {
      "inputs": [
        {
          "internalType": "address",
          "name": "from",
          "type": "address"
        },
        {
          "internalType": "address",
          "name": "to",
          "type": "address"
        },
        {
          "internalType": "uint256",
          "name": "tokenId",
          "type": "uint256"
        }
      ],
      "name": "transferFrom",
      "outputs": [],
      "stateMutability": "nonpayable",
      "type": "function"
    },
    {
      "inputs": [
        {
          "internalType": "address",
          "name": "newOwner",
          "type": "address"
        }
      ],
      "name": "transferOwnership",
      "outputs": [],
      "stateMutability": "nonpayable",
      "type": "function"
    },
    {
      "inputs": [
        {
          "internalType": "address",
          "name": "_to",
          "type": "address"
        },
        {
          "internalType": "uint256",
          "name": "_tokenId",
          "type": "uint256"
        }
      ],
      "name": "transferTicket",
      "outputs": [],
      "stateMutability": "nonpayable",
      "type": "function"
    },
    {
      "inputs": [],
      "name": "verifierAddr",
      "outputs": [
        {
          "internalType": "address",
          "name": "",
          "type": "address"
        }
      ],
      "stateMutability": "view",
      "type": "function"
    },
    {
      "inputs": [
        {
          "internalType": "bytes",
          "name": "proof",
          "type": "bytes"
        },
        {
          "internalType": "uint256[]",
          "name": "pubSignals",
          "type": "uint256[]"
        }
      ],
      "name": "verifyProof",
      "outputs": [
        {
          "internalType": "bool",
          "name": "",
          "type": "bool"
        }
      ],
      "stateMutability": "view",
      "type": "function"
    },
    {
      "inputs": [
        {
          "internalType": "bytes",
          "name": "proof",
          "type": "bytes"
        },
        {
          "internalType": "uint256[]",
          "name": "pubSignals",
          "type": "uint256[]"
        }
      ],
      "name": "verifyTicketEvent",
      "outputs": [
        {
          "internalType": "bool",
          "name": "",
          "type": "bool"
        }
      ],
      "stateMutability": "view",
      "type": "function"
    }
  ],
  "bytecode": "0x60806040523480156200001157600080fd5b50604051620040c8380380620040c8833981016040819052620000349162000359565b87604051806040016040528060048152602001632d25a2ab60e11b81525081600090805190602001906200006a929190620001d5565b50805162000080906001906020840190620001d5565b5050506200009d620000976200017f60201b60201c565b62000183565b8751620000b29060099060208b0190620001d5565b50600b879055600c8690556012829055600d8390558451620000dc90600f906020880190620001d5565b50600a80546001600160a01b0319166001600160a01b038b1617905583516200010d90600e906020870190620001d5565b50826040516200011d9062000264565b908152602001604051809103906000f08015801562000140573d6000803e3d6000fd5b50601480546001600160a01b039283166001600160a01b0319918216179091556008805493909216921691909117905550620004879650505050505050565b3390565b600780546001600160a01b038381166001600160a01b0319831681179093556040519116919082907f8be0079c531659141344cd1fd0a4f28419497f9722a3daafe3b4186f6b6457e090600090a35050565b828054620001e39062000434565b90600052602060002090601f01602090048101928262000207576000855562000252565b82601f106200022257805160ff191683800117855562000252565b8280016001018555821562000252579182015b828111156200025257825182559160200191906001019062000235565b506200026092915062000272565b5090565b61085d806200386b83390190565b5b8082111562000260576000815560010162000273565b80516001600160a01b0381168114620002a157600080fd5b919050565b600082601f830112620002b7578081fd5b81516001600160401b0380821115620002d457620002d462000471565b604051601f8301601f19908116603f01168101908282118183101715620002ff57620002ff62000471565b816040528381526020925086838588010111156200031b578485fd5b8491505b838210156200033e57858201830151818301840152908201906200031f565b838211156200034f57848385830101525b9695505050505050565b60008060008060008060008060006101208a8c03121562000378578485fd5b620003838a62000289565b60208b01519099506001600160401b0380821115620003a0578687fd5b620003ae8d838e01620002a6565b995060408c0151985060608c0151975060808c0151915080821115620003d2578687fd5b620003e08d838e01620002a6565b965060a08c0151915080821115620003f6578586fd5b50620004058c828d01620002a6565b94505060c08a0151925060e08a01519150620004256101008b0162000289565b90509295985092959850929598565b600181811c908216806200044957607f821691505b602082108114156200046b57634e487b7160e01b600052602260045260246000fd5b50919050565b634e487b7160e01b600052604160045260246000fd5b6133d480620004976000396000f3fe6080604052600436106102bb5760003560e01c80636352211e1161016e578063a22cb465116100cb578063cd0d20f51161007f578063e985e9c511610064578063e985e9c514610708578063f2fde38b14610751578063fb6c95371461077157600080fd5b8063cd0d20f5146106c8578063d2f0be99146106e857600080fd5b8063b88d4fde116100b0578063b88d4fde14610672578063c24a0f8b14610692578063c87b56dd146106a857600080fd5b8063a22cb46514610632578063a89df8ad1461065257600080fd5b80637284e4161161012257806385ea827c1161010757806385ea827c146105ea5780638da5cb5b146105ff57806395d89b411461061d57600080fd5b80637284e416146105c057806373219f61146105d557600080fd5b80636686d357116101535780636686d3571461056957806370a082311461058b578063715018a6146105ab57600080fd5b80636352211e14610529578063663ea2e21461054957600080fd5b80631e8e1e131161021c578063500f4fe3116101d0578063516f279e116101b5578063516f279e146104d457806351958a56146104e95780635d036d1a1461050957600080fd5b8063500f4fe3146104aa57806351605d80146104bf57600080fd5b806336afc6fa1161020157806336afc6fa1461044b57806342842e0e1461047457806348a0d7541461049457600080fd5b80631e8e1e131461040b57806323b872dd1461042b57600080fd5b80630b97bc86116102735780630fdc05a6116102585780630fdc05a6146103cd5780631209b1f6146103e05780631e638f2e146103f657600080fd5b80630b97bc86146103915780630ed5a933146103b557600080fd5b806306fdde03116102a457806306fdde0314610315578063081812fc14610337578063095ea7b31461036f57600080fd5b80630111b83a146102c057806301ffc9a7146102f5575b600080fd5b3480156102cc57600080fd5b506102e06102db366004612ceb565b610786565b60405190151581526020015b60405180910390f35b34801561030157600080fd5b506102e0610310366004612cb3565b6107ed565b34801561032157600080fd5b5061032a610888565b6040516102ec9190613181565b34801561034357600080fd5b50610357610352366004612da7565b61091a565b6040516001600160a01b0390911681526020016102ec565b34801561037b57600080fd5b5061038f61038a366004612bd6565b6109af565b005b34801561039d57600080fd5b506103a7600b5481565b6040519081526020016102ec565b3480156103c157600080fd5b5060115460ff166102e0565b61038f6103db366004612bd6565b610ae1565b3480156103ec57600080fd5b506103a760125481565b34801561040257600080fd5b5061038f610d4a565b34801561041757600080fd5b506102e0610426366004612ceb565b610da7565b34801561043757600080fd5b5061038f610446366004612aff565b610e4a565b34801561045757600080fd5b50610460610ed1565b6040516102ec989796959493929190613078565b34801561048057600080fd5b5061038f61048f366004612aff565b6110c4565b3480156104a057600080fd5b506103a7600d5481565b3480156104b657600080fd5b5061032a6110df565b3480156104cb57600080fd5b5061032a61116d565b3480156104e057600080fd5b5061032a61117a565b3480156104f557600080fd5b5061038f610504366004612bd6565b611187565b34801561051557600080fd5b506102e0610524366004612bd6565b611235565b34801561053557600080fd5b50610357610544366004612da7565b6112cd565b34801561055557600080fd5b50600854610357906001600160a01b031681565b34801561057557600080fd5b5061057e611358565b6040516102ec91906130e7565b34801561059757600080fd5b506103a76105a6366004612ab3565b6113f7565b3480156105b757600080fd5b5061038f611491565b3480156105cc57600080fd5b5061032a6114f7565b3480156105e157600080fd5b50600d546103a7565b3480156105f657600080fd5b506103a7611504565b34801561060b57600080fd5b506007546001600160a01b0316610357565b34801561062957600080fd5b5061032a61150f565b34801561063e57600080fd5b5061038f61064d366004612ba0565b61151e565b34801561065e57600080fd5b50600a54610357906001600160a01b031681565b34801561067e57600080fd5b5061038f61068d366004612b3a565b61152d565b34801561069e57600080fd5b506103a7600c5481565b3480156106b457600080fd5b5061032a6106c3366004612da7565b6115bb565b3480156106d457600080fd5b50601454610357906001600160a01b031681565b3480156106f457600080fd5b5061038f610703366004612da7565b61174e565b34801561071457600080fd5b506102e0610723366004612acd565b6001600160a01b03918216600090815260056020908152604080832093909416825291909152205460ff1690565b34801561075d57600080fd5b5061038f61076c366004612ab3565b611897565b34801561077d57600080fd5b5061038f611979565b60006107928383610da7565b6107e35760405162461bcd60e51b815260206004820152601360248201527f5665726966792070726f6f66206661696c65640000000000000000000000000060448201526064015b60405180910390fd5b5060015b92915050565b60006001600160e01b031982167f80ac58cd00000000000000000000000000000000000000000000000000000000148061085057506001600160e01b031982167f5b5e139f00000000000000000000000000000000000000000000000000000000145b806107e757507f01ffc9a7000000000000000000000000000000000000000000000000000000006001600160e01b03198316146107e7565b6060600080546108979061328e565b80601f01602080910402602001604051908101604052809291908181526020018280546108c39061328e565b80156109105780601f106108e557610100808354040283529160200191610910565b820191906000526020600020905b8154815290600101906020018083116108f357829003601f168201915b5050505050905090565b6000818152600260205260408120546001600160a01b03166109935760405162461bcd60e51b815260206004820152602c60248201527f4552433732313a20617070726f76656420717565727920666f72206e6f6e657860448201526b34b9ba32b73a103a37b5b2b760a11b60648201526084016107da565b506000908152600460205260409020546001600160a01b031690565b60006109ba826112cd565b9050806001600160a01b0316836001600160a01b03161415610a445760405162461bcd60e51b815260206004820152602160248201527f4552433732313a20617070726f76616c20746f2063757272656e74206f776e6560448201527f720000000000000000000000000000000000000000000000000000000000000060648201526084016107da565b336001600160a01b0382161480610a605750610a608133610723565b610ad25760405162461bcd60e51b815260206004820152603860248201527f4552433732313a20617070726f76652063616c6c6572206973206e6f74206f7760448201527f6e6572206e6f7220617070726f76656420666f7220616c6c000000000000000060648201526084016107da565b610adc83836119e2565b505050565b80600d541015610b595760405162461bcd60e51b815260206004820152602760248201527f6e6f7420656e6f756768207469636b6574207175616e7469747920617661696c60448201527f61626c652121210000000000000000000000000000000000000000000000000060648201526084016107da565b610b6560125482611a50565b341015610bb45760405162461bcd60e51b815260206004820152601560248201527f6e6f7420656e6f756768206d6f6e65792073656e74000000000000000000000060448201526064016107da565b6000606081610bc233611a5c565b905084610bce60135490565b93506000610bfe6009600f604051602001610bea929190612eb2565b604051602081830303815290604052611ac9565b9050600081604051602001610c139190612f28565b6040516020818303038152906040529050610c2e8387611c2b565b610c388682611c45565b6000610c5a85610c4789611cee565b84604051602001610bea93929190612f6d565b6014546040517fd4a2498d0000000000000000000000000000000000000000000000000000000081529192506001600160a01b03169063d4a2498d90610ca4908490600401613181565b600060405180830381600087803b158015610cbe57600080fd5b505af1158015610cd2573d6000803e3d6000fd5b50505050610ce4601380546001019055565b600d8054906000610cf483613277565b909155505060408051338152602081018a905242818301526060810189905290517f96541f70da731142b18e96f1def4d2a7733deb7d784723106d52c1d906d4c67a9181900360800190a1505050505050505050565b6007546001600160a01b03163314610da45760405162461bcd60e51b815260206004820181905260248201527f4f776e61626c653a2063616c6c6572206973206e6f7420746865206f776e657260448201526064016107da565b33ff5b6008546040517f1e8e1e130000000000000000000000000000000000000000000000000000000081526000916001600160a01b031690631e8e1e1390610df3908690869060040161312b565b60206040518083038186803b158015610e0b57600080fd5b505afa158015610e1f573d6000803e3d6000fd5b505050506040513d601f19601f82011682018060405250810190610e439190612c97565b9392505050565b610e543382611e08565b610ec65760405162461bcd60e51b815260206004820152603160248201527f4552433732313a207472616e736665722063616c6c6572206973206e6f74206f60448201527f776e6572206e6f7220617070726f76656400000000000000000000000000000060648201526084016107da565b610adc838383611efe565b60006060600080606080600080600a60009054906101000a90046001600160a01b03166009600b54600c54600f600e601254600d54868054610f129061328e565b80601f0160208091040260200160405190810160405280929190818152602001828054610f3e9061328e565b8015610f8b5780601f10610f6057610100808354040283529160200191610f8b565b820191906000526020600020905b815481529060010190602001808311610f6e57829003601f168201915b50505050509650838054610f9e9061328e565b80601f0160208091040260200160405190810160405280929190818152602001828054610fca9061328e565b80156110175780601f10610fec57610100808354040283529160200191611017565b820191906000526020600020905b815481529060010190602001808311610ffa57829003601f168201915b5050505050935082805461102a9061328e565b80601f01602080910402602001604051908101604052809291908181526020018280546110569061328e565b80156110a35780601f10611078576101008083540402835291602001916110a3565b820191906000526020600020905b81548152906001019060200180831161108657829003601f168201915b50505050509250975097509750975097509750975097509091929394959697565b610adc8383836040518060200160405280600081525061152d565b600980546110ec9061328e565b80601f01602080910402602001604051908101604052809291908181526020018280546111189061328e565b80156111655780601f1061113a57610100808354040283529160200191611165565b820191906000526020600020905b81548152906001019060200180831161114857829003601f168201915b505050505081565b601080546110ec9061328e565b600e80546110ec9061328e565b6001600160a01b0382166111dd5760405162461bcd60e51b815260206004820152601860248201527f696e76616c696420616464726573732070726f7669646564000000000000000060448201526064016107da565b6111e8338383610e4a565b604080513381526001600160a01b03841660208201529081018290527fd44fac1f5dbf8e8674ffb02fd7846c7b6771f2d2a311ae9d2ee52958e69ea5fe9060600160405180910390a15050565b6007546000906001600160a01b031633146112925760405162461bcd60e51b815260206004820181905260248201527f4f776e61626c653a2063616c6c6572206973206e6f7420746865206f776e657260448201526064016107da565b826001600160a01b03166112a5836112cd565b6001600160a01b031614156112c5576112bd826120cb565b5060016107e7565b5060006107e7565b6000818152600260205260408120546001600160a01b0316806107e75760405162461bcd60e51b815260206004820152602960248201527f4552433732313a206f776e657220717565727920666f72206e6f6e657869737460448201527f656e7420746f6b656e000000000000000000000000000000000000000000000060648201526084016107da565b601454604080517fad2b303700000000000000000000000000000000000000000000000000000000815290516060926001600160a01b03169163ad2b3037916004808301926000929190829003018186803b1580156113b657600080fd5b505afa1580156113ca573d6000803e3d6000fd5b505050506040513d6000823e601f3d908101601f191682016040526113f29190810190612bff565b905090565b60006001600160a01b0382166114755760405162461bcd60e51b815260206004820152602a60248201527f4552433732313a2062616c616e636520717565727920666f7220746865207a6560448201527f726f20616464726573730000000000000000000000000000000000000000000060648201526084016107da565b506001600160a01b031660009081526003602052604090205490565b6007546001600160a01b031633146114eb5760405162461bcd60e51b815260206004820181905260248201527f4f776e61626c653a2063616c6c6572206973206e6f7420746865206f776e657260448201526064016107da565b6114f5600061210b565b565b600f80546110ec9061328e565b60006113f260135490565b6060600180546108979061328e565b61152933838361215d565b5050565b6115373383611e08565b6115a95760405162461bcd60e51b815260206004820152603160248201527f4552433732313a207472616e736665722063616c6c6572206973206e6f74206f60448201527f776e6572206e6f7220617070726f76656400000000000000000000000000000060648201526084016107da565b6115b58484848461222c565b50505050565b6000818152600260205260409020546060906001600160a01b03166116485760405162461bcd60e51b815260206004820152603160248201527f45524337323155524953746f726167653a2055524920717565727920666f722060448201527f6e6f6e6578697374656e7420746f6b656e00000000000000000000000000000060648201526084016107da565b600082815260066020526040812080546116619061328e565b80601f016020809104026020016040519081016040528092919081815260200182805461168d9061328e565b80156116da5780601f106116af576101008083540402835291602001916116da565b820191906000526020600020905b8154815290600101906020018083116116bd57829003601f168201915b5050505050905060006116f860408051602081019091526000815290565b905080516000141561170b575092915050565b81511561173d578082604051602001611725929190612e83565b60405160208183030381529060405292505050919050565b611746846122aa565b949350505050565b3361179b5760405162461bcd60e51b815260206004820152601860248201527f696e76616c696420616464726573732070726f7669646564000000000000000060448201526064016107da565b60115460ff166118135760405162461bcd60e51b815260206004820152602e60248201527f726566756e64206973206f6e6c7920617661696c61626c6520666f722063616360448201527f616e63656c6564206576656e747300000000000000000000000000000000000060648201526084016107da565b61181c816120cb565b601254604051339180156108fc02916000818181858888f1935050505015801561184a573d6000803e3d6000fd5b50601254604080513081523360208201528082018490526060810192909252517fe2820dabfc1c5124dc9718c2be0affc8a0037202b0f27510f7ff8a3255f22d909181900360800190a150565b6007546001600160a01b031633146118f15760405162461bcd60e51b815260206004820181905260248201527f4f776e61626c653a2063616c6c6572206973206e6f7420746865206f776e657260448201526064016107da565b6001600160a01b03811661196d5760405162461bcd60e51b815260206004820152602660248201527f4f776e61626c653a206e6577206f776e657220697320746865207a65726f206160448201527f646472657373000000000000000000000000000000000000000000000000000060648201526084016107da565b6119768161210b565b50565b6007546001600160a01b031633146119d35760405162461bcd60e51b815260206004820181905260248201527f4f776e61626c653a2063616c6c6572206973206e6f7420746865206f776e657260448201526064016107da565b6011805460ff19166001179055565b600081815260046020526040902080546001600160a01b0319166001600160a01b0384169081179091558190611a17826112cd565b6001600160a01b03167f8c5be1e5ebec7d5bd14f71427d1e84f3dd0314c0f7b2291e5b200ac8c7c3b92560405160405180910390a45050565b6000610e438284613215565b606081611a9c57505060408051808201909152600481527f3078303000000000000000000000000000000000000000000000000000000000602082015290565b8160005b8115611abf5780611ab0816132c9565b915050600882901c9150611aa0565b611746848261239f565b6060815160001415611ae957505060408051602081019091526000815290565b600060405180606001604052806040815260200161335f6040913990506000600384516002611b1891906131e9565b611b229190613201565b611b2d906004613215565b67ffffffffffffffff811115611b5357634e487b7160e01b600052604160045260246000fd5b6040519080825280601f01601f191660200182016040528015611b7d576020820181803683370190505b509050600182016020820185865187015b80821015611be9576003820191508151603f8160121c168501518453600184019350603f81600c1c168501518453600184019350603f8160061c168501518453600184019350603f8116850151845350600183019250611b8e565b5050600386510660018114611c055760028114611c1857611c20565b603d6001830353603d6002830353611c20565b603d60018303535b509195945050505050565b6115298282604051806020016040528060008152506125aa565b6000828152600260205260409020546001600160a01b0316611ccf5760405162461bcd60e51b815260206004820152602e60248201527f45524337323155524953746f726167653a2055524920736574206f66206e6f6e60448201527f6578697374656e7420746f6b656e00000000000000000000000000000000000060648201526084016107da565b60008281526006602090815260409091208251610adc9284019061295d565b606081611d125750506040805180820190915260018152600360fc1b602082015290565b8160005b8115611d3c5780611d26816132c9565b9150611d359050600a83613201565b9150611d16565b60008167ffffffffffffffff811115611d6557634e487b7160e01b600052604160045260246000fd5b6040519080825280601f01601f191660200182016040528015611d8f576020820181803683370190505b5090505b841561174657611da4600183613234565b9150611db1600a866132e4565b611dbc9060306131e9565b60f81b818381518110611ddf57634e487b7160e01b600052603260045260246000fd5b60200101906001600160f81b031916908160001a905350611e01600a86613201565b9450611d93565b6000818152600260205260408120546001600160a01b0316611e815760405162461bcd60e51b815260206004820152602c60248201527f4552433732313a206f70657261746f7220717565727920666f72206e6f6e657860448201526b34b9ba32b73a103a37b5b2b760a11b60648201526084016107da565b6000611e8c836112cd565b9050806001600160a01b0316846001600160a01b03161480611ed357506001600160a01b0380821660009081526005602090815260408083209388168352929052205460ff165b806117465750836001600160a01b0316611eec8461091a565b6001600160a01b031614949350505050565b826001600160a01b0316611f11826112cd565b6001600160a01b031614611f8d5760405162461bcd60e51b815260206004820152602560248201527f4552433732313a207472616e736665722066726f6d20696e636f72726563742060448201527f6f776e657200000000000000000000000000000000000000000000000000000060648201526084016107da565b6001600160a01b0382166120085760405162461bcd60e51b8152602060048201526024808201527f4552433732313a207472616e7366657220746f20746865207a65726f2061646460448201527f726573730000000000000000000000000000000000000000000000000000000060648201526084016107da565b6120136000826119e2565b6001600160a01b038316600090815260036020526040812080546001929061203c908490613234565b90915550506001600160a01b038216600090815260036020526040812080546001929061206a9084906131e9565b909155505060008181526002602052604080822080546001600160a01b0319166001600160a01b0386811691821790925591518493918716917fddf252ad1be2c89b69c2b068fc378daa952ba7f163c4a11628f55a4df523b3ef91a4505050565b6120d481612628565b600081815260066020526040902080546120ed9061328e565b159050611976576000818152600660205260408120611976916129e1565b600780546001600160a01b038381166001600160a01b0319831681179093556040519116919082907f8be0079c531659141344cd1fd0a4f28419497f9722a3daafe3b4186f6b6457e090600090a35050565b816001600160a01b0316836001600160a01b031614156121bf5760405162461bcd60e51b815260206004820152601960248201527f4552433732313a20617070726f766520746f2063616c6c65720000000000000060448201526064016107da565b6001600160a01b03838116600081815260056020908152604080832094871680845294825291829020805460ff191686151590811790915591519182527f17307eab39ab6107e8899845ad3d59bd9653f200f220920489ca2b5937696c31910160405180910390a3505050565b612237848484611efe565b612243848484846126c3565b6115b55760405162461bcd60e51b815260206004820152603260248201527f4552433732313a207472616e7366657220746f206e6f6e20455243373231526560448201527131b2b4bb32b91034b6b83632b6b2b73a32b960711b60648201526084016107da565b6000818152600260205260409020546060906001600160a01b03166123375760405162461bcd60e51b815260206004820152602f60248201527f4552433732314d657461646174613a2055524920717565727920666f72206e6f60448201527f6e6578697374656e7420746f6b656e000000000000000000000000000000000060648201526084016107da565b600061234e60408051602081019091526000815290565b9050600081511161236e5760405180602001604052806000815250610e43565b8061237884611cee565b604051602001612389929190612e83565b6040516020818303038152906040529392505050565b606060006123ae836002613215565b6123b99060026131e9565b67ffffffffffffffff8111156123df57634e487b7160e01b600052604160045260246000fd5b6040519080825280601f01601f191660200182016040528015612409576020820181803683370190505b509050600360fc1b8160008151811061243257634e487b7160e01b600052603260045260246000fd5b60200101906001600160f81b031916908160001a9053507f78000000000000000000000000000000000000000000000000000000000000008160018151811061248b57634e487b7160e01b600052603260045260246000fd5b60200101906001600160f81b031916908160001a90535060006124af846002613215565b6124ba9060016131e9565b90505b600181111561255b577f303132333435363738396162636465660000000000000000000000000000000085600f166010811061250957634e487b7160e01b600052603260045260246000fd5b1a60f81b82828151811061252d57634e487b7160e01b600052603260045260246000fd5b60200101906001600160f81b031916908160001a90535060049490941c9361255481613277565b90506124bd565b508315610e435760405162461bcd60e51b815260206004820181905260248201527f537472696e67733a20686578206c656e67746820696e73756666696369656e7460448201526064016107da565b6125b4838361281b565b6125c160008484846126c3565b610adc5760405162461bcd60e51b815260206004820152603260248201527f4552433732313a207472616e7366657220746f206e6f6e20455243373231526560448201527131b2b4bb32b91034b6b83632b6b2b73a32b960711b60648201526084016107da565b6000612633826112cd565b90506126406000836119e2565b6001600160a01b0381166000908152600360205260408120805460019290612669908490613234565b909155505060008281526002602052604080822080546001600160a01b0319169055518391906001600160a01b038416907fddf252ad1be2c89b69c2b068fc378daa952ba7f163c4a11628f55a4df523b3ef908390a45050565b60006001600160a01b0384163b1561281057604051630a85bd0160e11b81526001600160a01b0385169063150b7a029061270790339089908890889060040161303c565b602060405180830381600087803b15801561272157600080fd5b505af1925050508015612751575060408051601f3d908101601f1916820190925261274e91810190612ccf565b60015b6127f6573d80801561277f576040519150601f19603f3d011682016040523d82523d6000602084013e612784565b606091505b5080516127ee5760405162461bcd60e51b815260206004820152603260248201527f4552433732313a207472616e7366657220746f206e6f6e20455243373231526560448201527131b2b4bb32b91034b6b83632b6b2b73a32b960711b60648201526084016107da565b805181602001fd5b6001600160e01b031916630a85bd0160e11b149050611746565b506001949350505050565b6001600160a01b0382166128715760405162461bcd60e51b815260206004820181905260248201527f4552433732313a206d696e7420746f20746865207a65726f206164647265737360448201526064016107da565b6000818152600260205260409020546001600160a01b0316156128d65760405162461bcd60e51b815260206004820152601c60248201527f4552433732313a20746f6b656e20616c7265616479206d696e7465640000000060448201526064016107da565b6001600160a01b03821660009081526003602052604081208054600192906128ff9084906131e9565b909155505060008181526002602052604080822080546001600160a01b0319166001600160a01b03861690811790915590518392907fddf252ad1be2c89b69c2b068fc378daa952ba7f163c4a11628f55a4df523b3ef908290a45050565b8280546129699061328e565b90600052602060002090601f01602090048101928261298b57600085556129d1565b82601f106129a457805160ff19168380011785556129d1565b828001600101855582156129d1579182015b828111156129d15782518255916020019190600101906129b6565b506129dd929150612a17565b5090565b5080546129ed9061328e565b6000825580601f106129fd575050565b601f01602090049060005260206000209081019061197691905b5b808211156129dd5760008155600101612a18565b80356001600160a01b0381168114612a4357600080fd5b919050565b600082601f830112612a58578081fd5b813567ffffffffffffffff811115612a7257612a72613324565b612a85601f8201601f1916602001613194565b818152846020838601011115612a99578283fd5b816020850160208301379081016020019190915292915050565b600060208284031215612ac4578081fd5b610e4382612a2c565b60008060408385031215612adf578081fd5b612ae883612a2c565b9150612af660208401612a2c565b90509250929050565b600080600060608486031215612b13578081fd5b612b1c84612a2c565b9250612b2a60208501612a2c565b9150604084013590509250925092565b60008060008060808587031215612b4f578081fd5b612b5885612a2c565b9350612b6660208601612a2c565b925060408501359150606085013567ffffffffffffffff811115612b88578182fd5b612b9487828801612a48565b91505092959194509250565b60008060408385031215612bb2578182fd5b612bbb83612a2c565b91506020830135612bcb8161333a565b809150509250929050565b60008060408385031215612be8578182fd5b612bf183612a2c565b946020939093013593505050565b60006020808385031215612c11578182fd5b825167ffffffffffffffff811115612c27578283fd5b8301601f81018513612c37578283fd5b8051612c4a612c45826131c5565b613194565b80828252848201915084840188868560051b8701011115612c69578687fd5b8694505b83851015612c8b578051835260019490940193918501918501612c6d565b50979650505050505050565b600060208284031215612ca8578081fd5b8151610e438161333a565b600060208284031215612cc4578081fd5b8135610e4381613348565b600060208284031215612ce0578081fd5b8151610e4381613348565b60008060408385031215612cfd578182fd5b823567ffffffffffffffff80821115612d14578384fd5b612d2086838701612a48565b9350602091508185013581811115612d36578384fd5b85019050601f81018613612d48578283fd5b8035612d56612c45826131c5565b80828252848201915084840189868560051b8701011115612d75578687fd5b8694505b83851015612d97578035835260019490940193918501918501612d79565b5080955050505050509250929050565b600060208284031215612db8578081fd5b5035919050565b60008151808452612dd781602086016020860161324b565b601f01601f19169290920160200192915050565b8054600090600181811c9080831680612e0557607f831692505b6020808410821415612e2557634e487b7160e01b86526022600452602486fd5b818015612e395760018114612e4a57612e77565b60ff19861689528489019650612e77565b60008881526020902060005b86811015612e6f5781548b820152908501908301612e56565b505084890196505b50505050505092915050565b60008351612e9581846020880161324b565b835190830190612ea981836020880161324b565b01949350505050565b7f226576656e745f6e616d65223a2022000000000000000000000000000000000081526000612ee4600f830185612deb565b7f222c20226465736372697074696f6e223a2022000000000000000000000000008152612f146013820185612deb565b61227d60f01b815260020195945050505050565b7f646174613a6170706c69636174696f6e2f6a736f6e3b6261736536342c000000815260008251612f6081601d85016020870161324b565b91909101601d0192915050565b7f2272656365697665722061646472657373223a20220000000000000000000000815260008451612fa581601585016020890161324b565b7f222c2022746f6b656e4964223a202200000000000000000000000000000000006015918401918201528451612fe281602484016020890161324b565b7f222c2022746f6b656e555249223a20220000000000000000000000000000000060249290910191820152835161302081603484016020880161324b565b61227d60f01b6034929091019182015260360195945050505050565b60006001600160a01b0380871683528086166020840152508360408301526080606083015261306e6080830184612dbf565b9695505050505050565b60006101006001600160a01b038b16835280602084015261309b8184018b612dbf565b905088604084015287606084015282810360808401526130bb8188612dbf565b905082810360a08401526130cf8187612dbf565b60c0840195909552505060e001529695505050505050565b6020808252825182820181905260009190848201906040850190845b8181101561311f57835183529284019291840191600101613103565b50909695505050505050565b60408152600061313e6040830185612dbf565b828103602084810191909152845180835285820192820190845b8181101561317457845183529383019391830191600101613158565b5090979650505050505050565b602081526000610e436020830184612dbf565b604051601f8201601f1916810167ffffffffffffffff811182821017156131bd576131bd613324565b604052919050565b600067ffffffffffffffff8211156131df576131df613324565b5060051b60200190565b600082198211156131fc576131fc6132f8565b500190565b6000826132105761321061330e565b500490565b600081600019048311821515161561322f5761322f6132f8565b500290565b600082821015613246576132466132f8565b500390565b60005b8381101561326657818101518382015260200161324e565b838111156115b55750506000910152565b600081613286576132866132f8565b506000190190565b600181811c908216806132a257607f821691505b602082108114156132c357634e487b7160e01b600052602260045260246000fd5b50919050565b60006000198214156132dd576132dd6132f8565b5060010190565b6000826132f3576132f361330e565b500690565b634e487b7160e01b600052601160045260246000fd5b634e487b7160e01b600052601260045260246000fd5b634e487b7160e01b600052604160045260246000fd5b801515811461197657600080fd5b6001600160e01b03198116811461197657600080fdfe4142434445464748494a4b4c4d4e4f505152535455565758595a6162636465666768696a6b6c6d6e6f707172737475767778797a303132333435363738392b2fa26469706673582212209e1990b72718aa59dcb940a54c02b81e2c34a2275cf556e63bf03a2a76c1bc3864736f6c63430008040033608060405234801561001057600080fd5b5060405161085d38038061085d83398101604081905261002f9161011c565b6000600161003e836002610134565b6100489190610153565b9050610055600183610153565b60015560005b818110156100b357604051600360fc1b602082015260009060210160408051601f19818403018152919052805160209182012082546001810184556000938452919092200155806100ab8161016a565b91505061005b565b506001545b81811015610114576002600082815481106100e357634e487b7160e01b600052603260045260246000fd5b600091825260208083209091015483546001810185559383529120909101558061010c8161016a565b9150506100b8565b50505061019b565b60006020828403121561012d578081fd5b5051919050565b600081600019048311821515161561014e5761014e610185565b500290565b60008282101561016557610165610185565b500390565b600060001982141561017e5761017e610185565b5060010190565b634e487b7160e01b600052601160045260246000fd5b6106b3806101aa6000396000f3fe608060405234801561001057600080fd5b50600436106100675760003560e01c8063d455a79d11610050578063d455a79d14610092578063d4a2498d146100b3578063f0ba8440146100c857600080fd5b80633bc5de301461006c578063ad2b30371461008a575b600080fd5b6100746100db565b6040516100819190610566565b60405180910390f35b610074610133565b6100a56100a0366004610515565b610189565b604051908152602001610081565b6100c66100c136600461046b565b6101aa565b005b6100a56100d6366004610515565b6102e6565b6060600080548060200260200160405190810160405280929190818152602001828054801561012957602002820191906000526020600020905b815481526020019060010190808311610115575b5050505050905090565b606060028054806020026020016040519081016040528092919081815260200182805480156101295760200282019190600052602060002090815481526020019060010190808311610115575050505050905090565b6002818154811061019957600080fd5b600091825260209091200154905081565b6000546001541061021b576040517f08c379a000000000000000000000000000000000000000000000000000000000815260206004820152601f60248201527f546865204d65726b6c65205472656520697320616c72656164792066756c6c00604482015260640160405180910390fd5b60008160405160200161022e919061052d565b6040516020818303038152906040528051906020012090508060006001548154811061026a57634e487b7160e01b600052603260045260246000fd5b60009182526020909120015560028054829190610289906001906105f5565b60015461029691906105f5565b815481106102b457634e487b7160e01b600052603260045260246000fd5b90600052602060002001819055506102cd6001546102f6565b600180549060006102dd8361060c565b91905055505050565b6000818154811061019957600080fd5b806000805b82156103f55761030a836103fb565b91506103158361041a565b1561032a576103238261043b565b9050610336565b61033382610453565b90505b6000838154811061035757634e487b7160e01b600052603260045260246000fd5b90600052602060002001546000828154811061038357634e487b7160e01b600052603260045260246000fd5b90600052602060002001546040516020016103a8929190918252602082015260400190565b60405160208183030381529060405280519060200120600083815481106103df57634e487b7160e01b600052603260045260246000fd5b90600052602060002001819055508192506102fb565b50505050565b6000600261040a6001846105f5565b61041491906105c2565b92915050565b6000610427600283610627565b61043357506001919050565b506000919050565b60006104488260026105d6565b6104149060016105aa565b60006104608260026105d6565b6104149060026105aa565b60006020828403121561047c578081fd5b813567ffffffffffffffff80821115610493578283fd5b818401915084601f8301126104a6578283fd5b8135818111156104b8576104b8610667565b604051601f8201601f19908116603f011681019083821181831017156104e0576104e0610667565b816040528281528760208487010111156104f8578586fd5b826020860160208301379182016020019490945295945050505050565b600060208284031215610526578081fd5b5035919050565b60008251815b8181101561054d5760208186018101518583015201610533565b8181111561055b5782828501525b509190910192915050565b6020808252825182820181905260009190848201906040850190845b8181101561059e57835183529284019291840191600101610582565b50909695505050505050565b600082198211156105bd576105bd61063b565b500190565b6000826105d1576105d1610651565b500490565b60008160001904831182151516156105f0576105f061063b565b500290565b6000828210156106075761060761063b565b500390565b60006000198214156106205761062061063b565b5060010190565b60008261063657610636610651565b500690565b634e487b7160e01b600052601160045260246000fd5b634e487b7160e01b600052601260045260246000fd5b634e487b7160e01b600052604160045260246000fdfea26469706673582212206dc698cf815fed1bb8540148a44ab075805d0a81506c896aa487d1218830f77c64736f6c63430008040033",
  "linkReferences": {},
  "deployedLinkReferences": {}
}