{
  "_format": "hh-sol-artifact-1",
  "contractName": "Event",
  "sourceName": "contracts/Event.sol",
  "abi": [
    {
      "inputs": [
        {
          "internalType": "address",
          "name": "_organizer",
          "type": "address"
        },
        {
          "internalType": "string",
          "name": "_name",
          "type": "string"
        },
        {
          "internalType": "uint256",
          "name": "_start",
          "type": "uint256"
        },
        {
          "internalType": "uint256",
          "name": "_end",
          "type": "uint256"
        },
        {
          "internalType": "string",
          "name": "_description",
          "type": "string"
        },
        {
          "internalType": "string",
          "name": "_location",
          "type": "string"
        },
        {
          "internalType": "uint256",
          "name": "supply",
          "type": "uint256"
        },
        {
          "internalType": "uint256",
          "name": "_ticketPrice",
          "type": "uint256"
        },
        {
          "internalType": "address",
          "name": "_verifierAddr",
          "type": "address"
        },
        {
          "internalType": "address",
          "name": "_hasherAddr",
          "type": "address"
        }
      ],
      "stateMutability": "nonpayable",
      "type": "constructor"
    },
    {
      "anonymous": false,
      "inputs": [
        {
          "indexed": true,
          "internalType": "address",
          "name": "owner",
          "type": "address"
        },
        {
          "indexed": true,
          "internalType": "address",
          "name": "approved",
          "type": "address"
        },
        {
          "indexed": true,
          "internalType": "uint256",
          "name": "tokenId",
          "type": "uint256"
        }
      ],
      "name": "Approval",
      "type": "event"
    },
    {
      "anonymous": false,
      "inputs": [
        {
          "indexed": true,
          "internalType": "address",
          "name": "owner",
          "type": "address"
        },
        {
          "indexed": true,
          "internalType": "address",
          "name": "operator",
          "type": "address"
        },
        {
          "indexed": false,
          "internalType": "bool",
          "name": "approved",
          "type": "bool"
        }
      ],
      "name": "ApprovalForAll",
      "type": "event"
    },
    {
      "anonymous": false,
      "inputs": [
        {
          "indexed": true,
          "internalType": "address",
          "name": "previousOwner",
          "type": "address"
        },
        {
          "indexed": true,
          "internalType": "address",
          "name": "newOwner",
          "type": "address"
        }
      ],
      "name": "OwnershipTransferred",
      "type": "event"
    },
    {
      "anonymous": false,
      "inputs": [
        {
          "indexed": false,
          "internalType": "address",
          "name": "_event",
          "type": "address"
        },
        {
          "indexed": false,
          "internalType": "address",
          "name": "_organizer",
          "type": "address"
        },
        {
          "indexed": false,
          "internalType": "uint256",
          "name": "_balance",
          "type": "uint256"
        }
      ],
      "name": "PaymentCollected",
      "type": "event"
    },
    {
      "anonymous": false,
      "inputs": [
        {
          "indexed": false,
          "internalType": "address",
          "name": "purchaser",
          "type": "address"
        },
        {
          "indexed": false,
          "internalType": "uint256",
          "name": "date",
          "type": "uint256"
        },
        {
          "indexed": false,
          "internalType": "uint32",
          "name": "index",
          "type": "uint32"
        },
        {
          "indexed": false,
          "internalType": "uint256",
          "name": "info",
          "type": "uint256"
        },
        {
          "indexed": false,
          "internalType": "uint256",
          "name": "newItemId",
          "type": "uint256"
        }
      ],
      "name": "TicketPurchased",
      "type": "event"
    },
    {
      "anonymous": false,
      "inputs": [
        {
          "indexed": false,
          "internalType": "address",
          "name": "_event",
          "type": "address"
        },
        {
          "indexed": false,
          "internalType": "address",
          "name": "_requestedBy",
          "type": "address"
        },
        {
          "indexed": false,
          "internalType": "uint256",
          "name": "_tokenIds",
          "type": "uint256"
        },
        {
          "indexed": false,
          "internalType": "uint256",
          "name": "_ticketPrice",
          "type": "uint256"
        }
      ],
      "name": "TicketRefunded",
      "type": "event"
    },
    {
      "anonymous": false,
      "inputs": [
        {
          "indexed": false,
          "internalType": "address",
          "name": "_from",
          "type": "address"
        },
        {
          "indexed": false,
          "internalType": "address",
          "name": "_to",
          "type": "address"
        },
        {
          "indexed": false,
          "internalType": "uint256",
          "name": "_tokenIds",
          "type": "uint256"
        }
      ],
      "name": "TicketTransfered",
      "type": "event"
    },
    {
      "anonymous": false,
      "inputs": [
        {
          "indexed": true,
          "internalType": "address",
          "name": "from",
          "type": "address"
        },
        {
          "indexed": true,
          "internalType": "address",
          "name": "to",
          "type": "address"
        },
        {
          "indexed": true,
          "internalType": "uint256",
          "name": "tokenId",
          "type": "uint256"
        }
      ],
      "name": "Transfer",
      "type": "event"
    },
    {
      "inputs": [
        {
          "internalType": "address",
          "name": "to",
          "type": "address"
        },
        {
          "internalType": "uint256",
          "name": "tokenId",
          "type": "uint256"
        }
      ],
      "name": "approve",
      "outputs": [],
      "stateMutability": "nonpayable",
      "type": "function"
    },
    {
      "inputs": [],
      "name": "available",
      "outputs": [
        {
          "internalType": "uint256",
          "name": "",
          "type": "uint256"
        }
      ],
      "stateMutability": "view",
      "type": "function"
    },
    {
      "inputs": [
        {
          "internalType": "address",
          "name": "owner",
          "type": "address"
        }
      ],
      "name": "balanceOf",
      "outputs": [
        {
          "internalType": "uint256",
          "name": "",
          "type": "uint256"
        }
      ],
      "stateMutability": "view",
      "type": "function"
    },
    {
      "inputs": [],
      "name": "cancelEvent",
      "outputs": [],
      "stateMutability": "nonpayable",
      "type": "function"
    },
    {
      "inputs": [],
      "name": "collectPayment",
      "outputs": [],
      "stateMutability": "nonpayable",
      "type": "function"
    },
    {
      "inputs": [],
      "name": "description",
      "outputs": [
        {
          "internalType": "string",
          "name": "",
          "type": "string"
        }
      ],
      "stateMutability": "view",
      "type": "function"
    },
    {
      "inputs": [],
      "name": "endDate",
      "outputs": [
        {
          "internalType": "uint256",
          "name": "",
          "type": "uint256"
        }
      ],
      "stateMutability": "view",
      "type": "function"
    },
    {
      "inputs": [],
      "name": "evName",
      "outputs": [
        {
          "internalType": "string",
          "name": "",
          "type": "string"
        }
      ],
      "stateMutability": "view",
      "type": "function"
    },
    {
      "inputs": [],
      "name": "evOwner",
      "outputs": [
        {
          "internalType": "address",
          "name": "",
          "type": "address"
        }
      ],
      "stateMutability": "view",
      "type": "function"
    },
    {
      "inputs": [
        {
          "internalType": "uint256",
          "name": "tokenId",
          "type": "uint256"
        }
      ],
      "name": "getApproved",
      "outputs": [
        {
          "internalType": "address",
          "name": "",
          "type": "address"
        }
      ],
      "stateMutability": "view",
      "type": "function"
    },
    {
      "inputs": [],
      "name": "getIdentity",
      "outputs": [
        {
          "internalType": "address",
          "name": "",
          "type": "address"
        },
        {
          "internalType": "string",
          "name": "",
          "type": "string"
        },
        {
          "internalType": "uint256",
          "name": "",
          "type": "uint256"
        },
        {
          "internalType": "uint256",
          "name": "",
          "type": "uint256"
        },
        {
          "internalType": "string",
          "name": "",
          "type": "string"
        },
        {
          "internalType": "string",
          "name": "",
          "type": "string"
        },
        {
          "internalType": "uint256",
          "name": "",
          "type": "uint256"
        },
        {
          "internalType": "uint256",
          "name": "",
          "type": "uint256"
        }
      ],
      "stateMutability": "view",
      "type": "function"
    },
    {
      "inputs": [],
      "name": "getMerkleTreeLeaves",
      "outputs": [
        {
          "internalType": "uint256[]",
          "name": "",
          "type": "uint256[]"
        }
      ],
      "stateMutability": "view",
      "type": "function"
    },
    {
      "inputs": [
        {
          "internalType": "uint256",
          "name": "ticket",
          "type": "uint256"
        }
      ],
      "name": "getRefund",
      "outputs": [],
      "stateMutability": "nonpayable",
      "type": "function"
    },
    {
      "inputs": [],
      "name": "getTotalTicketAvailables",
      "outputs": [
        {
          "internalType": "uint256",
          "name": "",
          "type": "uint256"
        }
      ],
      "stateMutability": "view",
      "type": "function"
    },
    {
      "inputs": [],
      "name": "getTotalTicketMinted",
      "outputs": [
        {
          "internalType": "uint256",
          "name": "",
          "type": "uint256"
        }
      ],
      "stateMutability": "view",
      "type": "function"
    },
    {
      "inputs": [],
      "name": "getZeroValues",
      "outputs": [
        {
          "internalType": "uint256",
          "name": "",
          "type": "uint256"
        }
      ],
      "stateMutability": "view",
      "type": "function"
    },
    {
      "inputs": [],
      "name": "imageHash",
      "outputs": [
        {
          "internalType": "string",
          "name": "",
          "type": "string"
        }
      ],
      "stateMutability": "view",
      "type": "function"
    },
    {
      "inputs": [
        {
          "internalType": "address",
          "name": "owner",
          "type": "address"
        },
        {
          "internalType": "address",
          "name": "operator",
          "type": "address"
        }
      ],
      "name": "isApprovedForAll",
      "outputs": [
        {
          "internalType": "bool",
          "name": "",
          "type": "bool"
        }
      ],
      "stateMutability": "view",
      "type": "function"
    },
    {
      "inputs": [],
      "name": "isCanceled",
      "outputs": [
        {
          "internalType": "bool",
          "name": "",
          "type": "bool"
        }
      ],
      "stateMutability": "view",
      "type": "function"
    },
    {
      "inputs": [
        {
          "internalType": "address",
          "name": "_owner",
          "type": "address"
        },
        {
          "internalType": "uint256",
          "name": "_tokenIds",
          "type": "uint256"
        }
      ],
      "name": "isTicketValid",
      "outputs": [
        {
          "internalType": "bool",
          "name": "",
          "type": "bool"
        }
      ],
      "stateMutability": "nonpayable",
      "type": "function"
    },
    {
      "inputs": [],
      "name": "location",
      "outputs": [
        {
          "internalType": "string",
          "name": "",
          "type": "string"
        }
      ],
      "stateMutability": "view",
      "type": "function"
    },
    {
      "inputs": [],
      "name": "merkleTreeAddress",
      "outputs": [
        {
          "internalType": "contract MerkleTree",
          "name": "",
          "type": "address"
        }
      ],
      "stateMutability": "view",
      "type": "function"
    },
    {
      "inputs": [],
      "name": "name",
      "outputs": [
        {
          "internalType": "string",
          "name": "",
          "type": "string"
        }
      ],
      "stateMutability": "view",
      "type": "function"
    },
    {
      "inputs": [],
      "name": "owner",
      "outputs": [
        {
          "internalType": "address",
          "name": "",
          "type": "address"
        }
      ],
      "stateMutability": "view",
      "type": "function"
    },
    {
      "inputs": [
        {
          "internalType": "uint256",
          "name": "tokenId",
          "type": "uint256"
        }
      ],
      "name": "ownerOf",
      "outputs": [
        {
          "internalType": "address",
          "name": "",
          "type": "address"
        }
      ],
      "stateMutability": "view",
      "type": "function"
    },
    {
      "inputs": [
        {
          "internalType": "address",
          "name": "receiverAddress",
          "type": "address"
        },
        {
          "internalType": "uint256",
          "name": "quantity",
          "type": "uint256"
        }
      ],
      "name": "purchaseTicket",
      "outputs": [],
      "stateMutability": "payable",
      "type": "function"
    },
    {
      "inputs": [],
      "name": "renounceOwnership",
      "outputs": [],
      "stateMutability": "nonpayable",
      "type": "function"
    },
    {
      "inputs": [
        {
          "internalType": "address",
          "name": "from",
          "type": "address"
        },
        {
          "internalType": "address",
          "name": "to",
          "type": "address"
        },
        {
          "internalType": "uint256",
          "name": "tokenId",
          "type": "uint256"
        }
      ],
      "name": "safeTransferFrom",
      "outputs": [],
      "stateMutability": "nonpayable",
      "type": "function"
    },
    {
      "inputs": [
        {
          "internalType": "address",
          "name": "from",
          "type": "address"
        },
        {
          "internalType": "address",
          "name": "to",
          "type": "address"
        },
        {
          "internalType": "uint256",
          "name": "tokenId",
          "type": "uint256"
        },
        {
          "internalType": "bytes",
          "name": "_data",
          "type": "bytes"
        }
      ],
      "name": "safeTransferFrom",
      "outputs": [],
      "stateMutability": "nonpayable",
      "type": "function"
    },
    {
      "inputs": [
        {
          "internalType": "address",
          "name": "operator",
          "type": "address"
        },
        {
          "internalType": "bool",
          "name": "approved",
          "type": "bool"
        }
      ],
      "name": "setApprovalForAll",
      "outputs": [],
      "stateMutability": "nonpayable",
      "type": "function"
    },
    {
      "inputs": [],
      "name": "startDate",
      "outputs": [
        {
          "internalType": "uint256",
          "name": "",
          "type": "uint256"
        }
      ],
      "stateMutability": "view",
      "type": "function"
    },
    {
      "inputs": [
        {
          "internalType": "bytes4",
          "name": "interfaceId",
          "type": "bytes4"
        }
      ],
      "name": "supportsInterface",
      "outputs": [
        {
          "internalType": "bool",
          "name": "",
          "type": "bool"
        }
      ],
      "stateMutability": "view",
      "type": "function"
    },
    {
      "inputs": [],
      "name": "symbol",
      "outputs": [
        {
          "internalType": "string",
          "name": "",
          "type": "string"
        }
      ],
      "stateMutability": "view",
      "type": "function"
    },
    {
      "inputs": [],
      "name": "ticketPrice",
      "outputs": [
        {
          "internalType": "uint256",
          "name": "",
          "type": "uint256"
        }
      ],
      "stateMutability": "view",
      "type": "function"
    },
    {
      "inputs": [
        {
          "internalType": "uint256",
          "name": "tokenId",
          "type": "uint256"
        }
      ],
      "name": "tokenURI",
      "outputs": [
        {
          "internalType": "string",
          "name": "",
          "type": "string"
        }
      ],
      "stateMutability": "view",
      "type": "function"
    },
    {
      "inputs": [
        {
          "internalType": "address",
          "name": "from",
          "type": "address"
        },
        {
          "internalType": "address",
          "name": "to",
          "type": "address"
        },
        {
          "internalType": "uint256",
          "name": "tokenId",
          "type": "uint256"
        }
      ],
      "name": "transferFrom",
      "outputs": [],
      "stateMutability": "nonpayable",
      "type": "function"
    },
    {
      "inputs": [
        {
          "internalType": "address",
          "name": "newOwner",
          "type": "address"
        }
      ],
      "name": "transferOwnership",
      "outputs": [],
      "stateMutability": "nonpayable",
      "type": "function"
    },
    {
      "inputs": [
        {
          "internalType": "address",
          "name": "_to",
          "type": "address"
        },
        {
          "internalType": "uint256",
          "name": "_tokenId",
          "type": "uint256"
        }
      ],
      "name": "transferTicket",
      "outputs": [],
      "stateMutability": "nonpayable",
      "type": "function"
    },
    {
      "inputs": [],
      "name": "verifierAddr",
      "outputs": [
        {
          "internalType": "address",
          "name": "",
          "type": "address"
        }
      ],
      "stateMutability": "view",
      "type": "function"
    },
    {
      "inputs": [
        {
          "internalType": "bytes",
          "name": "proof",
          "type": "bytes"
        },
        {
          "internalType": "uint256[]",
          "name": "pubSignals",
          "type": "uint256[]"
        }
      ],
      "name": "verifyProof",
      "outputs": [
        {
          "internalType": "bool",
          "name": "",
          "type": "bool"
        }
      ],
      "stateMutability": "view",
      "type": "function"
    },
    {
      "inputs": [
        {
          "internalType": "bytes",
          "name": "proof",
          "type": "bytes"
        },
        {
          "internalType": "uint256[]",
          "name": "pubSignals",
          "type": "uint256[]"
        }
      ],
      "name": "verifyTicketEvent",
      "outputs": [
        {
          "internalType": "bool",
          "name": "",
          "type": "bool"
        }
      ],
      "stateMutability": "view",
      "type": "function"
    }
  ],
  "bytecode": "0x60806040523480156200001157600080fd5b50604051620051a6380380620051a68339810160408190526200003491620003e5565b88604051806040016040528060048152602001632d25a2ab60e11b81525081600090805190602001906200006a92919062000247565b5080516200008090600190602084019062000247565b5050506200009d62000097620001f160201b60201c565b620001f5565b8851620000b29060099060208c019062000247565b50600b889055600c8790556012839055600d8490558551620000dc90600f90602089019062000247565b50600a80546001600160a01b0319166001600160a01b038c1617905584516200010d90600e90602088019062000247565b50602084106200016f5760405162461bcd60e51b8152602060048201526024808201527f7469636b657420737570706c792073686f756c64206265206c657373207468616044820152633710199960e11b606482015260840160405180910390fd5b83816040516200017f90620002d6565b9182526001600160a01b03166020820152604001604051809103906000f080158015620001b0573d6000803e3d6000fd5b50601480546001600160a01b039283166001600160a01b03199182161790915560088054949092169316929092179091555062000514975050505050505050565b3390565b600780546001600160a01b038381166001600160a01b0319831681179093556040519116919082907f8be0079c531659141344cd1fd0a4f28419497f9722a3daafe3b4186f6b6457e090600090a35050565b8280546200025590620004d8565b90600052602060002090601f016020900481019282620002795760008555620002c4565b82601f106200029457805160ff1916838001178555620002c4565b82800160010185558215620002c4579182015b82811115620002c4578251825591602001919060010190620002a7565b50620002d2929150620002e4565b5090565b611824806200398283390190565b5b80821115620002d25760008155600101620002e5565b80516001600160a01b03811681146200031357600080fd5b919050565b634e487b7160e01b600052604160045260246000fd5b600082601f8301126200034057600080fd5b81516001600160401b03808211156200035d576200035d62000318565b604051601f8301601f19908116603f0116810190828211818310171562000388576200038862000318565b81604052838152602092508683858801011115620003a557600080fd5b600091505b83821015620003c95785820183015181830184015290820190620003aa565b83821115620003db5760008385830101525b9695505050505050565b6000806000806000806000806000806101408b8d0312156200040657600080fd5b620004118b620002fb565b60208c0151909a506001600160401b03808211156200042f57600080fd5b6200043d8e838f016200032e565b9a5060408d0151995060608d0151985060808d01519150808211156200046257600080fd5b620004708e838f016200032e565b975060a08d01519150808211156200048757600080fd5b50620004968d828e016200032e565b95505060c08b0151935060e08b01519250620004b66101008c01620002fb565b9150620004c76101208c01620002fb565b90509295989b9194979a5092959850565b600181811c90821680620004ed57607f821691505b6020821081036200050e57634e487b7160e01b600052602260045260246000fd5b50919050565b61345e80620005246000396000f3fe6080604052600436106102c65760003560e01c80636352211e1161017957806395d89b41116100d6578063c87b56dd1161008a578063e985e9c511610064578063e985e9c514610728578063f2fde38b14610771578063fb6c95371461079157600080fd5b8063c87b56dd146106c8578063cd0d20f5146106e8578063d2f0be991461070857600080fd5b8063a89df8ad116100bb578063a89df8ad14610672578063b88d4fde14610692578063c24a0f8b146106b257600080fd5b806395d89b411461063d578063a22cb4651461065257600080fd5b80637284e4161161012d57806373219f611161011257806373219f61146105f557806385ea827c1461060a5780638da5cb5b1461061f57600080fd5b80637284e416146105cb57806372f65349146105e057600080fd5b80636686d3571161015e5780636686d3571461057457806370a0823114610596578063715018a6146105b657600080fd5b80636352211e14610534578063663ea2e21461055457600080fd5b80631e8e1e1311610227578063500f4fe3116101db578063516f279e116101c0578063516f279e146104df57806351958a56146104f45780635d036d1a1461051457600080fd5b8063500f4fe3146104b557806351605d80146104ca57600080fd5b806336afc6fa1161020c57806336afc6fa1461045657806342842e0e1461047f57806348a0d7541461049f57600080fd5b80631e8e1e131461041657806323b872dd1461043657600080fd5b80630b97bc861161027e5780630fdc05a6116102635780630fdc05a6146103d85780631209b1f6146103eb5780631e638f2e1461040157600080fd5b80630b97bc861461039c5780630ed5a933146103c057600080fd5b806306fdde03116102af57806306fdde0314610320578063081812fc14610342578063095ea7b31461037a57600080fd5b80630111b83a146102cb57806301ffc9a714610300575b600080fd5b3480156102d757600080fd5b506102eb6102e6366004612b4f565b6107a6565b60405190151581526020015b60405180910390f35b34801561030c57600080fd5b506102eb61031b366004612c25565b61080d565b34801561032c57600080fd5b506103356108a8565b6040516102f79190612c9a565b34801561034e57600080fd5b5061036261035d366004612cad565b61093a565b6040516001600160a01b0390911681526020016102f7565b34801561038657600080fd5b5061039a610395366004612ce2565b6109cf565b005b3480156103a857600080fd5b506103b2600b5481565b6040519081526020016102f7565b3480156103cc57600080fd5b5060115460ff166102eb565b61039a6103e6366004612ce2565b610b00565b3480156103f757600080fd5b506103b260125481565b34801561040d57600080fd5b5061039a610d9d565b34801561042257600080fd5b506102eb610431366004612b4f565b610dfa565b34801561044257600080fd5b5061039a610451366004612d0c565b610e8e565b34801561046257600080fd5b5061046b610f15565b6040516102f7989796959493929190612d48565b34801561048b57600080fd5b5061039a61049a366004612d0c565b611108565b3480156104ab57600080fd5b506103b2600d5481565b3480156104c157600080fd5b50610335611123565b3480156104d657600080fd5b506103356111b1565b3480156104eb57600080fd5b506103356111be565b34801561050057600080fd5b5061039a61050f366004612ce2565b6111cb565b34801561052057600080fd5b506102eb61052f366004612ce2565b61127c565b34801561054057600080fd5b5061036261054f366004612cad565b611313565b34801561056057600080fd5b50600854610362906001600160a01b031681565b34801561058057600080fd5b5061058961139e565b6040516102f79190612df2565b3480156105a257600080fd5b506103b26105b1366004612e05565b61142e565b3480156105c257600080fd5b5061039a6114c8565b3480156105d757600080fd5b5061033561152e565b3480156105ec57600080fd5b506103b261153b565b34801561060157600080fd5b50600d546103b2565b34801561061657600080fd5b506103b26115c2565b34801561062b57600080fd5b506007546001600160a01b0316610362565b34801561064957600080fd5b506103356115cd565b34801561065e57600080fd5b5061039a61066d366004612e2e565b6115dc565b34801561067e57600080fd5b50600a54610362906001600160a01b031681565b34801561069e57600080fd5b5061039a6106ad366004612e65565b6115eb565b3480156106be57600080fd5b506103b2600c5481565b3480156106d457600080fd5b506103356106e3366004612cad565b611679565b3480156106f457600080fd5b50601454610362906001600160a01b031681565b34801561071457600080fd5b5061039a610723366004612cad565b61180b565b34801561073457600080fd5b506102eb610743366004612ecd565b6001600160a01b03918216600090815260056020908152604080832093909416825291909152205460ff1690565b34801561077d57600080fd5b5061039a61078c366004612e05565b611957565b34801561079d57600080fd5b5061039a611a39565b60006107b28383610dfa565b6108035760405162461bcd60e51b815260206004820152601360248201527f5665726966792070726f6f66206661696c65640000000000000000000000000060448201526064015b60405180910390fd5b5060015b92915050565b60006001600160e01b031982167f80ac58cd00000000000000000000000000000000000000000000000000000000148061087057506001600160e01b031982167f5b5e139f00000000000000000000000000000000000000000000000000000000145b8061080757507f01ffc9a7000000000000000000000000000000000000000000000000000000006001600160e01b0319831614610807565b6060600080546108b790612f00565b80601f01602080910402602001604051908101604052809291908181526020018280546108e390612f00565b80156109305780601f1061090557610100808354040283529160200191610930565b820191906000526020600020905b81548152906001019060200180831161091357829003601f168201915b5050505050905090565b6000818152600260205260408120546001600160a01b03166109b35760405162461bcd60e51b815260206004820152602c60248201527f4552433732313a20617070726f76656420717565727920666f72206e6f6e657860448201526b34b9ba32b73a103a37b5b2b760a11b60648201526084016107fa565b506000908152600460205260409020546001600160a01b031690565b60006109da82611313565b9050806001600160a01b0316836001600160a01b031603610a635760405162461bcd60e51b815260206004820152602160248201527f4552433732313a20617070726f76616c20746f2063757272656e74206f776e6560448201527f720000000000000000000000000000000000000000000000000000000000000060648201526084016107fa565b336001600160a01b0382161480610a7f5750610a7f8133610743565b610af15760405162461bcd60e51b815260206004820152603860248201527f4552433732313a20617070726f76652063616c6c6572206973206e6f74206f7760448201527f6e6572206e6f7220617070726f76656420666f7220616c6c000000000000000060648201526084016107fa565b610afb8383611aa2565b505050565b80600d541015610b785760405162461bcd60e51b815260206004820152602760248201527f6e6f7420656e6f756768207469636b6574207175616e7469747920617661696c60448201527f61626c652121210000000000000000000000000000000000000000000000000060648201526084016107fa565b610b8460125482611b10565b341015610bd35760405162461bcd60e51b815260206004820152601560248201527f6e6f7420656e6f756768206d6f6e65792073656e74000000000000000000000060448201526064016107fa565b6000606081610be133611b1c565b905084610bed60135490565b93506000610c1d6009600f604051602001610c09929190612fd3565b604051602081830303815290604052611b8c565b9050600081604051602001610c329190613049565b6040516020818303038152906040529050610c4d8387611cdf565b610c578682611cf9565b600084610c6388611da2565b83604051602001610c769392919061308e565b60408051808303601f190181529082905280516020909101206014547f90b5561d000000000000000000000000000000000000000000000000000000008352600483018290529092506000916001600160a01b03909116906390b5561d906024016020604051808303816000875af1158015610cf6573d6000803e3d6000fd5b505050506040513d601f19601f82011682018060405250810190610d1a919061315d565b9050610d2a601380546001019055565b600d8054906000610d3a83613199565b90915550506040805133815242602082015263ffffffff83168183015260608101849052608081018a905290517f5bd8aa10833e0a0a65dc773cb2d74c96c4bb86f69191e010c8fcd8fc9c995e8e9181900360a00190a150505050505050505050565b6007546001600160a01b03163314610df75760405162461bcd60e51b815260206004820181905260248201527f4f776e61626c653a2063616c6c6572206973206e6f7420746865206f776e657260448201526064016107fa565b33ff5b6008546040517f1e8e1e130000000000000000000000000000000000000000000000000000000081526000916001600160a01b031690631e8e1e1390610e4690869086906004016131b0565b602060405180830381865afa158015610e63573d6000803e3d6000fd5b505050506040513d601f19601f82011682018060405250810190610e8791906131de565b9392505050565b610e983382611ea3565b610f0a5760405162461bcd60e51b815260206004820152603160248201527f4552433732313a207472616e736665722063616c6c6572206973206e6f74206f60448201527f776e6572206e6f7220617070726f76656400000000000000000000000000000060648201526084016107fa565b610afb838383611f99565b60006060600080606080600080600a60009054906101000a90046001600160a01b03166009600b54600c54600f600e601254600d54868054610f5690612f00565b80601f0160208091040260200160405190810160405280929190818152602001828054610f8290612f00565b8015610fcf5780601f10610fa457610100808354040283529160200191610fcf565b820191906000526020600020905b815481529060010190602001808311610fb257829003601f168201915b50505050509650838054610fe290612f00565b80601f016020809104026020016040519081016040528092919081815260200182805461100e90612f00565b801561105b5780601f106110305761010080835404028352916020019161105b565b820191906000526020600020905b81548152906001019060200180831161103e57829003601f168201915b5050505050935082805461106e90612f00565b80601f016020809104026020016040519081016040528092919081815260200182805461109a90612f00565b80156110e75780601f106110bc576101008083540402835291602001916110e7565b820191906000526020600020905b8154815290600101906020018083116110ca57829003601f168201915b50505050509250975097509750975097509750975097509091929394959697565b610afb838383604051806020016040528060008152506115eb565b6009805461113090612f00565b80601f016020809104026020016040519081016040528092919081815260200182805461115c90612f00565b80156111a95780601f1061117e576101008083540402835291602001916111a9565b820191906000526020600020905b81548152906001019060200180831161118c57829003601f168201915b505050505081565b6010805461113090612f00565b600e805461113090612f00565b6001600160a01b0382166000036112245760405162461bcd60e51b815260206004820152601860248201527f696e76616c696420616464726573732070726f7669646564000000000000000060448201526064016107fa565b61122f338383610e8e565b604080513381526001600160a01b03841660208201529081018290527fd44fac1f5dbf8e8674ffb02fd7846c7b6771f2d2a311ae9d2ee52958e69ea5fe9060600160405180910390a15050565b6007546000906001600160a01b031633146112d95760405162461bcd60e51b815260206004820181905260248201527f4f776e61626c653a2063616c6c6572206973206e6f7420746865206f776e657260448201526064016107fa565b826001600160a01b03166112ec83611313565b6001600160a01b03160361130b5761130382612166565b506001610807565b506000610807565b6000818152600260205260408120546001600160a01b0316806108075760405162461bcd60e51b815260206004820152602960248201527f4552433732313a206f776e657220717565727920666f72206e6f6e657869737460448201527f656e7420746f6b656e000000000000000000000000000000000000000000000060648201526084016107fa565b601454604080517fad2b303700000000000000000000000000000000000000000000000000000000815290516060926001600160a01b03169163ad2b30379160048083019260009291908290030181865afa158015611401573d6000803e3d6000fd5b505050506040513d6000823e601f3d908101601f1916820160405261142991908101906131fb565b905090565b60006001600160a01b0382166114ac5760405162461bcd60e51b815260206004820152602a60248201527f4552433732313a2062616c616e636520717565727920666f7220746865207a6560448201527f726f20616464726573730000000000000000000000000000000000000000000060648201526084016107fa565b506001600160a01b031660009081526003602052604090205490565b6007546001600160a01b031633146115225760405162461bcd60e51b815260206004820181905260248201527f4f776e61626c653a2063616c6c6572206973206e6f7420746865206f776e657260448201526064016107fa565b61152c60006121a6565b565b600f805461113090612f00565b601454604080517f9f3f89dc00000000000000000000000000000000000000000000000000000000815290516000926001600160a01b031691639f3f89dc9160048083019260209291908290030181865afa15801561159e573d6000803e3d6000fd5b505050506040513d601f19601f82011682018060405250810190611429919061328c565b600061142960135490565b6060600180546108b790612f00565b6115e73383836121f8565b5050565b6115f53383611ea3565b6116675760405162461bcd60e51b815260206004820152603160248201527f4552433732313a207472616e736665722063616c6c6572206973206e6f74206f60448201527f776e6572206e6f7220617070726f76656400000000000000000000000000000060648201526084016107fa565b611673848484846122c6565b50505050565b6000818152600260205260409020546060906001600160a01b03166117065760405162461bcd60e51b815260206004820152603160248201527f45524337323155524953746f726167653a2055524920717565727920666f722060448201527f6e6f6e6578697374656e7420746f6b656e00000000000000000000000000000060648201526084016107fa565b6000828152600660205260408120805461171f90612f00565b80601f016020809104026020016040519081016040528092919081815260200182805461174b90612f00565b80156117985780601f1061176d57610100808354040283529160200191611798565b820191906000526020600020905b81548152906001019060200180831161177b57829003601f168201915b5050505050905060006117b660408051602081019091526000815290565b905080516000036117c8575092915050565b8151156117fa5780826040516020016117e29291906132a5565b60405160208183030381529060405292505050919050565b61180384612344565b949350505050565b3360000361185b5760405162461bcd60e51b815260206004820152601860248201527f696e76616c696420616464726573732070726f7669646564000000000000000060448201526064016107fa565b60115460ff166118d35760405162461bcd60e51b815260206004820152602e60248201527f726566756e64206973206f6e6c7920617661696c61626c6520666f722063616360448201527f616e63656c6564206576656e747300000000000000000000000000000000000060648201526084016107fa565b6118dc81612166565b601254604051339180156108fc02916000818181858888f1935050505015801561190a573d6000803e3d6000fd5b50601254604080513081523360208201528082018490526060810192909252517fe2820dabfc1c5124dc9718c2be0affc8a0037202b0f27510f7ff8a3255f22d909181900360800190a150565b6007546001600160a01b031633146119b15760405162461bcd60e51b815260206004820181905260248201527f4f776e61626c653a2063616c6c6572206973206e6f7420746865206f776e657260448201526064016107fa565b6001600160a01b038116611a2d5760405162461bcd60e51b815260206004820152602660248201527f4f776e61626c653a206e6577206f776e657220697320746865207a65726f206160448201527f646472657373000000000000000000000000000000000000000000000000000060648201526084016107fa565b611a36816121a6565b50565b6007546001600160a01b03163314611a935760405162461bcd60e51b815260206004820181905260248201527f4f776e61626c653a2063616c6c6572206973206e6f7420746865206f776e657260448201526064016107fa565b6011805460ff19166001179055565b600081815260046020526040902080546001600160a01b0319166001600160a01b0384169081179091558190611ad782611313565b6001600160a01b03167f8c5be1e5ebec7d5bd14f71427d1e84f3dd0314c0f7b2291e5b200ac8c7c3b92560405160405180910390a45050565b6000610e8782846132d4565b606081600003611b5f57505060408051808201909152600481527f3078303000000000000000000000000000000000000000000000000000000000602082015290565b8160005b8115611b825780611b73816132f3565b915050600882901c9150611b63565b6118038482612439565b60608151600003611bab57505060408051602081019091526000815290565b60006040518060600160405280604081526020016133e96040913990506000600384516002611bda919061330c565b611be4919061333a565b611bef9060046132d4565b67ffffffffffffffff811115611c0757611c07612a74565b6040519080825280601f01601f191660200182016040528015611c31576020820181803683370190505b509050600182016020820185865187015b80821015611c9d576003820191508151603f8160121c168501518453600184019350603f81600c1c168501518453600184019350603f8160061c168501518453600184019350603f8116850151845350600183019250611c42565b5050600386510660018114611cb95760028114611ccc57611cd4565b603d6001830353603d6002830353611cd4565b603d60018303535b509195945050505050565b6115e78282604051806020016040528060008152506125fe565b6000828152600260205260409020546001600160a01b0316611d835760405162461bcd60e51b815260206004820152602e60248201527f45524337323155524953746f726167653a2055524920736574206f66206e6f6e60448201527f6578697374656e7420746f6b656e00000000000000000000000000000000000060648201526084016107fa565b60008281526006602090815260409091208251610afb928401906129a5565b606081600003611dc95750506040805180820190915260018152600360fc1b602082015290565b8160005b8115611df35780611ddd816132f3565b9150611dec9050600a8361333a565b9150611dcd565b60008167ffffffffffffffff811115611e0e57611e0e612a74565b6040519080825280601f01601f191660200182016040528015611e38576020820181803683370190505b5090505b841561180357611e4d60018361334e565b9150611e5a600a86613365565b611e6590603061330c565b60f81b818381518110611e7a57611e7a613379565b60200101906001600160f81b031916908160001a905350611e9c600a8661333a565b9450611e3c565b6000818152600260205260408120546001600160a01b0316611f1c5760405162461bcd60e51b815260206004820152602c60248201527f4552433732313a206f70657261746f7220717565727920666f72206e6f6e657860448201526b34b9ba32b73a103a37b5b2b760a11b60648201526084016107fa565b6000611f2783611313565b9050806001600160a01b0316846001600160a01b03161480611f6e57506001600160a01b0380821660009081526005602090815260408083209388168352929052205460ff165b806118035750836001600160a01b0316611f878461093a565b6001600160a01b031614949350505050565b826001600160a01b0316611fac82611313565b6001600160a01b0316146120285760405162461bcd60e51b815260206004820152602560248201527f4552433732313a207472616e736665722066726f6d20696e636f72726563742060448201527f6f776e657200000000000000000000000000000000000000000000000000000060648201526084016107fa565b6001600160a01b0382166120a35760405162461bcd60e51b8152602060048201526024808201527f4552433732313a207472616e7366657220746f20746865207a65726f2061646460448201527f726573730000000000000000000000000000000000000000000000000000000060648201526084016107fa565b6120ae600082611aa2565b6001600160a01b03831660009081526003602052604081208054600192906120d790849061334e565b90915550506001600160a01b038216600090815260036020526040812080546001929061210590849061330c565b909155505060008181526002602052604080822080546001600160a01b0319166001600160a01b0386811691821790925591518493918716917fddf252ad1be2c89b69c2b068fc378daa952ba7f163c4a11628f55a4df523b3ef91a4505050565b61216f8161267c565b6000818152600660205260409020805461218890612f00565b159050611a36576000818152600660205260408120611a3691612a29565b600780546001600160a01b038381166001600160a01b0319831681179093556040519116919082907f8be0079c531659141344cd1fd0a4f28419497f9722a3daafe3b4186f6b6457e090600090a35050565b816001600160a01b0316836001600160a01b0316036122595760405162461bcd60e51b815260206004820152601960248201527f4552433732313a20617070726f766520746f2063616c6c65720000000000000060448201526064016107fa565b6001600160a01b03838116600081815260056020908152604080832094871680845294825291829020805460ff191686151590811790915591519182527f17307eab39ab6107e8899845ad3d59bd9653f200f220920489ca2b5937696c31910160405180910390a3505050565b6122d1848484611f99565b6122dd84848484612717565b6116735760405162461bcd60e51b815260206004820152603260248201527f4552433732313a207472616e7366657220746f206e6f6e20455243373231526560448201527131b2b4bb32b91034b6b83632b6b2b73a32b960711b60648201526084016107fa565b6000818152600260205260409020546060906001600160a01b03166123d15760405162461bcd60e51b815260206004820152602f60248201527f4552433732314d657461646174613a2055524920717565727920666f72206e6f60448201527f6e6578697374656e7420746f6b656e000000000000000000000000000000000060648201526084016107fa565b60006123e860408051602081019091526000815290565b905060008151116124085760405180602001604052806000815250610e87565b8061241284611da2565b6040516020016124239291906132a5565b6040516020818303038152906040529392505050565b606060006124488360026132d4565b61245390600261330c565b67ffffffffffffffff81111561246b5761246b612a74565b6040519080825280601f01601f191660200182016040528015612495576020820181803683370190505b509050600360fc1b816000815181106124b0576124b0613379565b60200101906001600160f81b031916908160001a9053507f7800000000000000000000000000000000000000000000000000000000000000816001815181106124fb576124fb613379565b60200101906001600160f81b031916908160001a905350600061251f8460026132d4565b61252a90600161330c565b90505b60018111156125af577f303132333435363738396162636465660000000000000000000000000000000085600f166010811061256b5761256b613379565b1a60f81b82828151811061258157612581613379565b60200101906001600160f81b031916908160001a90535060049490941c936125a881613199565b905061252d565b508315610e875760405162461bcd60e51b815260206004820181905260248201527f537472696e67733a20686578206c656e67746820696e73756666696369656e7460448201526064016107fa565b6126088383612863565b6126156000848484612717565b610afb5760405162461bcd60e51b815260206004820152603260248201527f4552433732313a207472616e7366657220746f206e6f6e20455243373231526560448201527131b2b4bb32b91034b6b83632b6b2b73a32b960711b60648201526084016107fa565b600061268782611313565b9050612694600083611aa2565b6001600160a01b03811660009081526003602052604081208054600192906126bd90849061334e565b909155505060008281526002602052604080822080546001600160a01b0319169055518391906001600160a01b038416907fddf252ad1be2c89b69c2b068fc378daa952ba7f163c4a11628f55a4df523b3ef908390a45050565b60006001600160a01b0384163b1561285857604051630a85bd0160e11b81526001600160a01b0385169063150b7a029061275b90339089908890889060040161338f565b6020604051808303816000875af1925050508015612796575060408051601f3d908101601f19168201909252612793918101906133cb565b60015b61283e573d8080156127c4576040519150601f19603f3d011682016040523d82523d6000602084013e6127c9565b606091505b5080516000036128365760405162461bcd60e51b815260206004820152603260248201527f4552433732313a207472616e7366657220746f206e6f6e20455243373231526560448201527131b2b4bb32b91034b6b83632b6b2b73a32b960711b60648201526084016107fa565b805181602001fd5b6001600160e01b031916630a85bd0160e11b149050611803565b506001949350505050565b6001600160a01b0382166128b95760405162461bcd60e51b815260206004820181905260248201527f4552433732313a206d696e7420746f20746865207a65726f206164647265737360448201526064016107fa565b6000818152600260205260409020546001600160a01b03161561291e5760405162461bcd60e51b815260206004820152601c60248201527f4552433732313a20746f6b656e20616c7265616479206d696e7465640000000060448201526064016107fa565b6001600160a01b038216600090815260036020526040812080546001929061294790849061330c565b909155505060008181526002602052604080822080546001600160a01b0319166001600160a01b03861690811790915590518392907fddf252ad1be2c89b69c2b068fc378daa952ba7f163c4a11628f55a4df523b3ef908290a45050565b8280546129b190612f00565b90600052602060002090601f0160209004810192826129d35760008555612a19565b82601f106129ec57805160ff1916838001178555612a19565b82800160010185558215612a19579182015b82811115612a195782518255916020019190600101906129fe565b50612a25929150612a5f565b5090565b508054612a3590612f00565b6000825580601f10612a45575050565b601f016020900490600052602060002090810190611a3691905b5b80821115612a255760008155600101612a60565b634e487b7160e01b600052604160045260246000fd5b604051601f8201601f1916810167ffffffffffffffff81118282101715612ab357612ab3612a74565b604052919050565b600082601f830112612acc57600080fd5b813567ffffffffffffffff811115612ae657612ae6612a74565b612af9601f8201601f1916602001612a8a565b818152846020838601011115612b0e57600080fd5b816020850160208301376000918101602001919091529392505050565b600067ffffffffffffffff821115612b4557612b45612a74565b5060051b60200190565b60008060408385031215612b6257600080fd5b823567ffffffffffffffff80821115612b7a57600080fd5b612b8686838701612abb565b9350602091508185013581811115612b9d57600080fd5b85019050601f81018613612bb057600080fd5b8035612bc3612bbe82612b2b565b612a8a565b81815260059190911b82018301908381019088831115612be257600080fd5b928401925b82841015612c0057833582529284019290840190612be7565b80955050505050509250929050565b6001600160e01b031981168114611a3657600080fd5b600060208284031215612c3757600080fd5b8135610e8781612c0f565b60005b83811015612c5d578181015183820152602001612c45565b838111156116735750506000910152565b60008151808452612c86816020860160208601612c42565b601f01601f19169290920160200192915050565b602081526000610e876020830184612c6e565b600060208284031215612cbf57600080fd5b5035919050565b80356001600160a01b0381168114612cdd57600080fd5b919050565b60008060408385031215612cf557600080fd5b612cfe83612cc6565b946020939093013593505050565b600080600060608486031215612d2157600080fd5b612d2a84612cc6565b9250612d3860208501612cc6565b9150604084013590509250925092565b60006101006001600160a01b038b168352806020840152612d6b8184018b612c6e565b90508860408401528760608401528281036080840152612d8b8188612c6e565b905082810360a0840152612d9f8187612c6e565b60c0840195909552505060e001529695505050505050565b600081518084526020808501945080840160005b83811015612de757815187529582019590820190600101612dcb565b509495945050505050565b602081526000610e876020830184612db7565b600060208284031215612e1757600080fd5b610e8782612cc6565b8015158114611a3657600080fd5b60008060408385031215612e4157600080fd5b612e4a83612cc6565b91506020830135612e5a81612e20565b809150509250929050565b60008060008060808587031215612e7b57600080fd5b612e8485612cc6565b9350612e9260208601612cc6565b925060408501359150606085013567ffffffffffffffff811115612eb557600080fd5b612ec187828801612abb565b91505092959194509250565b60008060408385031215612ee057600080fd5b612ee983612cc6565b9150612ef760208401612cc6565b90509250929050565b600181811c90821680612f1457607f821691505b602082108103612f3457634e487b7160e01b600052602260045260246000fd5b50919050565b8054600090600181811c9080831680612f5457607f831692505b60208084108203612f7557634e487b7160e01b600052602260045260246000fd5b818015612f895760018114612f9a57612fc7565b60ff19861689528489019650612fc7565b60008881526020902060005b86811015612fbf5781548b820152908501908301612fa6565b505084890196505b50505050505092915050565b7f226576656e745f6e616d65223a2022000000000000000000000000000000000081526000613005600f830185612f3a565b7f222c20226465736372697074696f6e223a20220000000000000000000000000081526130356013820185612f3a565b61227d60f01b815260020195945050505050565b7f646174613a6170706c69636174696f6e2f6a736f6e3b6261736536342c00000081526000825161308181601d850160208701612c42565b91909101601d0192915050565b7f2272656365697665722061646472657373223a202200000000000000000000008152600084516130c6816015850160208901612c42565b7f222c2022746f6b656e4964223a202200000000000000000000000000000000006015918401918201528451613103816024840160208901612c42565b7f222c2022746f6b656e555249223a202200000000000000000000000000000000602492909101918201528351613141816034840160208801612c42565b61227d60f01b6034929091019182015260360195945050505050565b60006020828403121561316f57600080fd5b815163ffffffff81168114610e8757600080fd5b634e487b7160e01b600052601160045260246000fd5b6000816131a8576131a8613183565b506000190190565b6040815260006131c36040830185612c6e565b82810360208401526131d58185612db7565b95945050505050565b6000602082840312156131f057600080fd5b8151610e8781612e20565b6000602080838503121561320e57600080fd5b825167ffffffffffffffff81111561322557600080fd5b8301601f8101851361323657600080fd5b8051613244612bbe82612b2b565b81815260059190911b8201830190838101908783111561326357600080fd5b928401925b8284101561328157835182529284019290840190613268565b979650505050505050565b60006020828403121561329e57600080fd5b5051919050565b600083516132b7818460208801612c42565b8351908301906132cb818360208801612c42565b01949350505050565b60008160001904831182151516156132ee576132ee613183565b500290565b60006001820161330557613305613183565b5060010190565b6000821982111561331f5761331f613183565b500190565b634e487b7160e01b600052601260045260246000fd5b60008261334957613349613324565b500490565b60008282101561336057613360613183565b500390565b60008261337457613374613324565b500690565b634e487b7160e01b600052603260045260246000fd5b60006001600160a01b038087168352808616602084015250836040830152608060608301526133c16080830184612c6e565b9695505050505050565b6000602082840312156133dd57600080fd5b8151610e8781612c0f56fe4142434445464748494a4b4c4d4e4f505152535455565758595a6162636465666768696a6b6c6d6e6f707172737475767778797a303132333435363738392b2fa2646970667358221220a69dc46ed011dc71d08146f8b7c0bf5fc23dd499329ed44f368b1329656daf6164736f6c634300080d003360c06040526001805463ffffffff191690553480156200001e57600080fd5b5060405162001824380380620018248339810160408190526200004191620007df565b60008211620000975760405162461bcd60e51b815260206004820181905260248201527f5f6c6576656c732073686f756c642062652067726561746572207468616e203060448201526064015b60405180910390fd5b6020821115620000f85760405162461bcd60e51b815260206004820152602560248201527f5f6c6576656c732073686f756c64206e6f7420626520677265617465722074686044820152640616e2031360dc1b60648201526084016200008e565b60008290556001600160a01b0381166080526200011782600262000966565b63ffffffff1660a05260005b828110156200015b57620001378162000164565b60008281526002602052604090205580620001528162000981565b91505062000123565b5050506200099d565b6000816000036200019657507f044852b2a670ade5407e78fb2863c51de9fcb96542a07186fe3aeda6bb8a116d919050565b81600103620001c657507f099d0c546fbd7abb214084d0be96d84e5c3823ccf989f41dc55f09746f184c64919050565b81600203620001f657507f034280891a9c1fb974b3cc0a82d3627cea7c592de8f9f37c9eef9120484f33ba919050565b816003036200022657507f265f3887f138c809b3511238af9715d64a7b49c88c15cba6fe72a56ebdcb481a919050565b816004036200025657507f0c2b62da4f3fb0aab2df7fcd31cd2fdef272c7c8c74b0b9b43f5590d4fb6d77b919050565b816005036200028657507f1d3be139c3d68e075d074c4ef60dc86189626443a78966d69abdf1adffaae59c919050565b81600603620002b657507f140fb7c2f606a99531b652fa5fee814371872a013537ab8d43dd12187f5357b1919050565b81600703620002e657507f1ad2b1c3637276b44ce37234d0b3d83c7e7ea8476a98c9cd6baa411c56aa3a4b919050565b816008036200031657507f296dda7df4d53a0db2c802ea38d5d6a72d73dad05fce8e114bcecd4fe55e4d57919050565b816009036200034657507f1a3e4cb01067fcb3bfc41ec303080fa8a0189cb3be6d27b22bb2c0a3f07a5660919050565b81600a036200037657507f1776dace605c36c3895087716da2b9f59e95d31bf8a9c4ffe281218b14100fc0919050565b81600b03620003a657507f27e66d6ef7636d0e4a92cd8476dde71df898e703d377ceba8b6b7682fed146e8919050565b81600c03620003d657507f26e6cfc5421ee98e6fd0f786f366dc67cf150df0d3551b62fb9bd7ffb9ec83ce919050565b81600d036200040657507f1ff66d38c1036e523590eb9ad9ac71e0e78acfb124187354fa155e373db575fd919050565b81600e036200043657507f1f466b147ac22afdd574b7ac863f57585bcf1f2a6c3d67d62f8c2725ba841766919050565b81600f036200046657507f16dfdf2fbb586d44e130107670e32c47b0c97d5e9f2370d674ae3d4a99d98c71919050565b816010036200049657507f0accbac8c916d3dcf17be32a53b5fb608169f26c60f6a7bae53b640a2a41de81919050565b81601103620004c657507f272f98f4f9c30939699a4aac83ec3b2452d6e7fb06c5965337088e3affa263ee919050565b81601203620004f657507f03f22d474b36c81aee97d9b4d000640b1dec18842d595f92600de2643b43c332919050565b816013036200052657507f2d4a653c1b780a5459dd1c9511ab5e71ac66e995264885e3d758c5ddfe4be337919050565b816014036200055657507f1ce82f48db5184d93c5ba76b5e4325439acc6c4dff13e02fae8853c205e6b51c919050565b816015036200058657507f102c43715bbad57ba7f8eeedc6a542a16e2f5594a994270832be4205f7bfd9b7919050565b81601603620005b657507f1e067b97d04910b535ba76de5165d486dc193cdd363ccc5448d73ca959592f2a919050565b81601703620005e657507f2c5be511b2a9be8c54b061b1d95b1884e56e4cee1ba1bfeeb31aaa7aaf4552d2919050565b816018036200061657507f231ae9828971a40e8279f0f9d16d47ef0b23890f736e9db1f993640985fc02ac919050565b816019036200064657507f101d89fea09d53a9e421fdde4aa02e76330de1dabc790e02b8d3a2f5a8477693919050565b81601a036200067657507f05c59843b05976e6a505d3a958a5a4abe5c985f91aef5b937c815325905cef0c919050565b81601b03620006a657507f1f148828a2aecfe515ab902e35462e845f29d59af5a2dca76b34beaf2588f8f0919050565b81601c03620006d657507f19129c151440351fa0b7633671e1ee36b8528cc487a73f0cc66ddfa87de68d61919050565b81601d036200070657507f24a995812eb84c09b6dc49417a50aad00195719225ec90ffe45dcc6878de72ba919050565b81601e036200073657507f2974bf2981516d78022783385026360fb383e6e727f441e60ef2edacd1c65805919050565b81601f036200076657507f0a862e993b3e9d2e9a63963b8f4b20ef2961d2ba6caae03c7b13ef8b086ab2f7919050565b816020036200079657507f076df2561cb8e78fbbf2fb1840c66a7c166e4c59bf1c895487baf0ed4d9b4b32919050565b60405162461bcd60e51b815260206004820152601360248201527f496e646578206f7574206f6620626f756e64730000000000000000000000000060448201526064016200008e565b60008060408385031215620007f357600080fd5b825160208401519092506001600160a01b03811681146200081357600080fd5b809150509250929050565b634e487b7160e01b600052601160045260246000fd5b600181815b8085111562000877578163ffffffff048211156200085b576200085b6200081e565b808516156200086957918102915b93841c939080029062000839565b509250929050565b600082620008905750600162000960565b816200089f5750600062000960565b8160018114620008b85760028114620008c357620008fb565b600191505062000960565b60ff841115620008d757620008d76200081e565b6001841b915063ffffffff821115620008f457620008f46200081e565b5062000960565b5060208310610133831016604e8410600b841016171562000937575081810a63ffffffff8111156200093157620009316200081e565b62000960565b62000943838362000834565b8063ffffffff048211156200095c576200095c6200081e565b0290505b92915050565b60006200097a8363ffffffff84166200087f565b9392505050565b6000600182016200099657620009966200081e565b5060010190565b60805160a051610e54620009d06000396000818160f4015261032e01526000818161026201526104910152610e546000f3fe608060405234801561001057600080fd5b50600436106100ea5760003560e01c8063ad2b30371161008c578063d455a79d11610066578063d455a79d14610210578063e829558814610223578063ec73295914610236578063ed33639f1461025d57600080fd5b8063ad2b3037146101d3578063c2b40ae4146101e8578063cd87a3b41461020857600080fd5b80634ecf518b116100c85780634ecf518b146101635780635e8114dd1461017a57806390b5561d1461019a5780639f3f89dc146101ad57600080fd5b80632565b159146100ef5780632986c0e5146101305780632cdabbce14610140575b600080fd5b6101167f000000000000000000000000000000000000000000000000000000000000000081565b60405163ffffffff90911681526020015b60405180910390f35b6001546101169063ffffffff1681565b61015361014e366004610c79565b6102a9565b6040519015158152602001610127565b61016c60005481565b604051908152602001610127565b61016c610188366004610c79565b60026020526000908152604090205481565b6101166101a8366004610c79565b610321565b7f044852b2a670ade5407e78fb2863c51de9fcb96542a07186fe3aeda6bb8a116d61016c565b6101db6105a7565b6040516101279190610c92565b61016c6101f6366004610c79565b60036020526000908152604090205481565b61016c606481565b61016c61021e366004610c79565b6105ff565b61016c610231366004610c79565b610620565b61016c7f044852b2a670ade5407e78fb2863c51de9fcb96542a07186fe3aeda6bb8a116d81565b6102847f000000000000000000000000000000000000000000000000000000000000000081565b60405173ffffffffffffffffffffffffffffffffffffffff9091168152602001610127565b6000816000036102bb57506000919050565b6001546000906102d39060649063ffffffff16610cec565b9050805b6000818152600360205260409020548490036102f7575060019392505050565b80600003610303575060645b8061030d81610d16565b9150508181036102d7575060009392505050565b60015460009063ffffffff7f000000000000000000000000000000000000000000000000000000000000000081169116036103a35760405162461bcd60e51b815260206004820152601360248201527f4d65726b6c6520747265652069732066756c6c0000000000000000000000000060448201526064015b60405180910390fd5b600480546001818101835560009283527f8a35acfbc15ff81a39ae7d344fd709f28e8600b4aa8c65c6b64bfe7fe36bd19b9091018490555463ffffffff1690839080805b600054811015610527576103fc600286610d2d565b63ffffffff1660000361042d5783925061041581610620565b60008281526002602052604090208590559150610442565b60008181526002602052604090205492508391505b6040805180820182528481526020810184905290517f29a5f2f600000000000000000000000000000000000000000000000000000000815273ffffffffffffffffffffffffffffffffffffffff7f000000000000000000000000000000000000000000000000000000000000000016916329a5f2f6916104c59190600401610d50565b602060405180830381865afa1580156104e2573d6000803e3d6000fd5b505050506040513d601f19601f820116820180604052508101906105069190610d81565b9350610513600286610d9a565b94508061051f81610dbd565b9150506103e7565b5060015483906003906000906105459060649063ffffffff16610cec565b815260208101919091526040016000908120919091556001805463ffffffff169161056f83610dd6565b82546101009290920a63ffffffff8181021990931691831602179091556001805461059d9350909116610df9565b9695505050505050565b606060048054806020026020016040519081016040528092919081815260200182805480156105f557602002820191906000526020600020905b8154815260200190600101908083116105e1575b5050505050905090565b6004818154811061060f57600080fd5b600091825260209091200154905081565b60008160000361065157507f044852b2a670ade5407e78fb2863c51de9fcb96542a07186fe3aeda6bb8a116d919050565b8160010361068057507f099d0c546fbd7abb214084d0be96d84e5c3823ccf989f41dc55f09746f184c64919050565b816002036106af57507f034280891a9c1fb974b3cc0a82d3627cea7c592de8f9f37c9eef9120484f33ba919050565b816003036106de57507f265f3887f138c809b3511238af9715d64a7b49c88c15cba6fe72a56ebdcb481a919050565b8160040361070d57507f0c2b62da4f3fb0aab2df7fcd31cd2fdef272c7c8c74b0b9b43f5590d4fb6d77b919050565b8160050361073c57507f1d3be139c3d68e075d074c4ef60dc86189626443a78966d69abdf1adffaae59c919050565b8160060361076b57507f140fb7c2f606a99531b652fa5fee814371872a013537ab8d43dd12187f5357b1919050565b8160070361079a57507f1ad2b1c3637276b44ce37234d0b3d83c7e7ea8476a98c9cd6baa411c56aa3a4b919050565b816008036107c957507f296dda7df4d53a0db2c802ea38d5d6a72d73dad05fce8e114bcecd4fe55e4d57919050565b816009036107f857507f1a3e4cb01067fcb3bfc41ec303080fa8a0189cb3be6d27b22bb2c0a3f07a5660919050565b81600a0361082757507f1776dace605c36c3895087716da2b9f59e95d31bf8a9c4ffe281218b14100fc0919050565b81600b0361085657507f27e66d6ef7636d0e4a92cd8476dde71df898e703d377ceba8b6b7682fed146e8919050565b81600c0361088557507f26e6cfc5421ee98e6fd0f786f366dc67cf150df0d3551b62fb9bd7ffb9ec83ce919050565b81600d036108b457507f1ff66d38c1036e523590eb9ad9ac71e0e78acfb124187354fa155e373db575fd919050565b81600e036108e357507f1f466b147ac22afdd574b7ac863f57585bcf1f2a6c3d67d62f8c2725ba841766919050565b81600f0361091257507f16dfdf2fbb586d44e130107670e32c47b0c97d5e9f2370d674ae3d4a99d98c71919050565b8160100361094157507f0accbac8c916d3dcf17be32a53b5fb608169f26c60f6a7bae53b640a2a41de81919050565b8160110361097057507f272f98f4f9c30939699a4aac83ec3b2452d6e7fb06c5965337088e3affa263ee919050565b8160120361099f57507f03f22d474b36c81aee97d9b4d000640b1dec18842d595f92600de2643b43c332919050565b816013036109ce57507f2d4a653c1b780a5459dd1c9511ab5e71ac66e995264885e3d758c5ddfe4be337919050565b816014036109fd57507f1ce82f48db5184d93c5ba76b5e4325439acc6c4dff13e02fae8853c205e6b51c919050565b81601503610a2c57507f102c43715bbad57ba7f8eeedc6a542a16e2f5594a994270832be4205f7bfd9b7919050565b81601603610a5b57507f1e067b97d04910b535ba76de5165d486dc193cdd363ccc5448d73ca959592f2a919050565b81601703610a8a57507f2c5be511b2a9be8c54b061b1d95b1884e56e4cee1ba1bfeeb31aaa7aaf4552d2919050565b81601803610ab957507f231ae9828971a40e8279f0f9d16d47ef0b23890f736e9db1f993640985fc02ac919050565b81601903610ae857507f101d89fea09d53a9e421fdde4aa02e76330de1dabc790e02b8d3a2f5a8477693919050565b81601a03610b1757507f05c59843b05976e6a505d3a958a5a4abe5c985f91aef5b937c815325905cef0c919050565b81601b03610b4657507f1f148828a2aecfe515ab902e35462e845f29d59af5a2dca76b34beaf2588f8f0919050565b81601c03610b7557507f19129c151440351fa0b7633671e1ee36b8528cc487a73f0cc66ddfa87de68d61919050565b81601d03610ba457507f24a995812eb84c09b6dc49417a50aad00195719225ec90ffe45dcc6878de72ba919050565b81601e03610bd357507f2974bf2981516d78022783385026360fb383e6e727f441e60ef2edacd1c65805919050565b81601f03610c0257507f0a862e993b3e9d2e9a63963b8f4b20ef2961d2ba6caae03c7b13ef8b086ab2f7919050565b81602003610c3157507f076df2561cb8e78fbbf2fb1840c66a7c166e4c59bf1c895487baf0ed4d9b4b32919050565b60405162461bcd60e51b815260206004820152601360248201527f496e646578206f7574206f6620626f756e647300000000000000000000000000604482015260640161039a565b600060208284031215610c8b57600080fd5b5035919050565b6020808252825182820181905260009190848201906040850190845b81811015610cca57835183529284019291840191600101610cae565b50909695505050505050565b634e487b7160e01b600052601260045260246000fd5b600082610cfb57610cfb610cd6565b500690565b634e487b7160e01b600052601160045260246000fd5b600081610d2557610d25610d00565b506000190190565b600063ffffffff80841680610d4457610d44610cd6565b92169190910692915050565b60408101818360005b6002811015610d78578151835260209283019290910190600101610d59565b50505092915050565b600060208284031215610d9357600080fd5b5051919050565b600063ffffffff80841680610db157610db1610cd6565b92169190910492915050565b600060018201610dcf57610dcf610d00565b5060010190565b600063ffffffff808316818103610def57610def610d00565b6001019392505050565b600063ffffffff83811690831681811015610e1657610e16610d00565b03939250505056fea2646970667358221220025f4adb56961e4550eb43f2a901c6e2448e10c666203e83f4c5d7ce235823d564736f6c634300080d0033",
  "linkReferences": {},
  "deployedLinkReferences": {}
}