{
  "_format": "hh-sol-artifact-1",
  "contractName": "Event",
  "sourceName": "contracts/Event.sol",
  "abi": [
    {
      "inputs": [
        {
          "internalType": "address",
          "name": "_organizer",
          "type": "address"
        },
        {
          "internalType": "string",
          "name": "_name",
          "type": "string"
        },
        {
          "internalType": "uint256",
          "name": "_start",
          "type": "uint256"
        },
        {
          "internalType": "uint256",
          "name": "_end",
          "type": "uint256"
        },
        {
          "internalType": "string",
          "name": "_description",
          "type": "string"
        },
        {
          "internalType": "string",
          "name": "_location",
          "type": "string"
        },
        {
          "internalType": "uint256",
          "name": "supply",
          "type": "uint256"
        },
        {
          "internalType": "uint256",
          "name": "_ticketPrice",
          "type": "uint256"
        }
      ],
      "stateMutability": "nonpayable",
      "type": "constructor"
    },
    {
      "anonymous": false,
      "inputs": [
        {
          "indexed": true,
          "internalType": "address",
          "name": "owner",
          "type": "address"
        },
        {
          "indexed": true,
          "internalType": "address",
          "name": "approved",
          "type": "address"
        },
        {
          "indexed": true,
          "internalType": "uint256",
          "name": "tokenId",
          "type": "uint256"
        }
      ],
      "name": "Approval",
      "type": "event"
    },
    {
      "anonymous": false,
      "inputs": [
        {
          "indexed": true,
          "internalType": "address",
          "name": "owner",
          "type": "address"
        },
        {
          "indexed": true,
          "internalType": "address",
          "name": "operator",
          "type": "address"
        },
        {
          "indexed": false,
          "internalType": "bool",
          "name": "approved",
          "type": "bool"
        }
      ],
      "name": "ApprovalForAll",
      "type": "event"
    },
    {
      "anonymous": false,
      "inputs": [
        {
          "indexed": true,
          "internalType": "address",
          "name": "previousOwner",
          "type": "address"
        },
        {
          "indexed": true,
          "internalType": "address",
          "name": "newOwner",
          "type": "address"
        }
      ],
      "name": "OwnershipTransferred",
      "type": "event"
    },
    {
      "anonymous": false,
      "inputs": [
        {
          "indexed": false,
          "internalType": "address",
          "name": "_event",
          "type": "address"
        },
        {
          "indexed": false,
          "internalType": "address",
          "name": "_organizer",
          "type": "address"
        },
        {
          "indexed": false,
          "internalType": "uint256",
          "name": "_balance",
          "type": "uint256"
        }
      ],
      "name": "PaymentCollected",
      "type": "event"
    },
    {
      "anonymous": false,
      "inputs": [
        {
          "indexed": false,
          "internalType": "address",
          "name": "purchaser",
          "type": "address"
        },
        {
          "indexed": false,
          "internalType": "uint256",
          "name": "quantity",
          "type": "uint256"
        },
        {
          "indexed": false,
          "internalType": "uint256",
          "name": "date",
          "type": "uint256"
        },
        {
          "indexed": false,
          "internalType": "uint256[]",
          "name": "allItemId",
          "type": "uint256[]"
        }
      ],
      "name": "TicketPurchased",
      "type": "event"
    },
    {
      "anonymous": false,
      "inputs": [
        {
          "indexed": false,
          "internalType": "address",
          "name": "_event",
          "type": "address"
        },
        {
          "indexed": false,
          "internalType": "address",
          "name": "_requestedBy",
          "type": "address"
        },
        {
          "indexed": false,
          "internalType": "uint256",
          "name": "_tokenIds",
          "type": "uint256"
        },
        {
          "indexed": false,
          "internalType": "uint256",
          "name": "_ticketPrice",
          "type": "uint256"
        }
      ],
      "name": "TicketRefunded",
      "type": "event"
    },
    {
      "anonymous": false,
      "inputs": [
        {
          "indexed": false,
          "internalType": "address",
          "name": "_from",
          "type": "address"
        },
        {
          "indexed": false,
          "internalType": "address",
          "name": "_to",
          "type": "address"
        },
        {
          "indexed": false,
          "internalType": "uint256",
          "name": "_tokenId",
          "type": "uint256"
        }
      ],
      "name": "TicketTransfered",
      "type": "event"
    },
    {
      "anonymous": false,
      "inputs": [
        {
          "indexed": true,
          "internalType": "address",
          "name": "from",
          "type": "address"
        },
        {
          "indexed": true,
          "internalType": "address",
          "name": "to",
          "type": "address"
        },
        {
          "indexed": true,
          "internalType": "uint256",
          "name": "tokenId",
          "type": "uint256"
        }
      ],
      "name": "Transfer",
      "type": "event"
    },
    {
      "inputs": [
        {
          "internalType": "address",
          "name": "to",
          "type": "address"
        },
        {
          "internalType": "uint256",
          "name": "tokenId",
          "type": "uint256"
        }
      ],
      "name": "approve",
      "outputs": [],
      "stateMutability": "nonpayable",
      "type": "function"
    },
    {
      "inputs": [],
      "name": "available",
      "outputs": [
        {
          "internalType": "uint256",
          "name": "",
          "type": "uint256"
        }
      ],
      "stateMutability": "view",
      "type": "function"
    },
    {
      "inputs": [
        {
          "internalType": "address",
          "name": "owner",
          "type": "address"
        }
      ],
      "name": "balanceOf",
      "outputs": [
        {
          "internalType": "uint256",
          "name": "",
          "type": "uint256"
        }
      ],
      "stateMutability": "view",
      "type": "function"
    },
    {
      "inputs": [],
      "name": "cancelEvent",
      "outputs": [],
      "stateMutability": "nonpayable",
      "type": "function"
    },
    {
      "inputs": [],
      "name": "collectPayment",
      "outputs": [],
      "stateMutability": "nonpayable",
      "type": "function"
    },
    {
      "inputs": [],
      "name": "description",
      "outputs": [
        {
          "internalType": "string",
          "name": "",
          "type": "string"
        }
      ],
      "stateMutability": "view",
      "type": "function"
    },
    {
      "inputs": [],
      "name": "endDate",
      "outputs": [
        {
          "internalType": "uint256",
          "name": "",
          "type": "uint256"
        }
      ],
      "stateMutability": "view",
      "type": "function"
    },
    {
      "inputs": [],
      "name": "evName",
      "outputs": [
        {
          "internalType": "string",
          "name": "",
          "type": "string"
        }
      ],
      "stateMutability": "view",
      "type": "function"
    },
    {
      "inputs": [],
      "name": "evOwner",
      "outputs": [
        {
          "internalType": "address",
          "name": "",
          "type": "address"
        }
      ],
      "stateMutability": "view",
      "type": "function"
    },
    {
      "inputs": [
        {
          "internalType": "uint256",
          "name": "tokenId",
          "type": "uint256"
        }
      ],
      "name": "getApproved",
      "outputs": [
        {
          "internalType": "address",
          "name": "",
          "type": "address"
        }
      ],
      "stateMutability": "view",
      "type": "function"
    },
    {
      "inputs": [],
      "name": "getIdentity",
      "outputs": [
        {
          "internalType": "address",
          "name": "",
          "type": "address"
        },
        {
          "internalType": "string",
          "name": "",
          "type": "string"
        },
        {
          "internalType": "uint256",
          "name": "",
          "type": "uint256"
        },
        {
          "internalType": "uint256",
          "name": "",
          "type": "uint256"
        },
        {
          "internalType": "string",
          "name": "",
          "type": "string"
        },
        {
          "internalType": "string",
          "name": "",
          "type": "string"
        },
        {
          "internalType": "uint256",
          "name": "",
          "type": "uint256"
        },
        {
          "internalType": "uint256",
          "name": "",
          "type": "uint256"
        }
      ],
      "stateMutability": "view",
      "type": "function"
    },
    {
      "inputs": [],
      "name": "getMerkleTreeLeaves",
      "outputs": [
        {
          "internalType": "bytes32[]",
          "name": "",
          "type": "bytes32[]"
        }
      ],
      "stateMutability": "view",
      "type": "function"
    },
    {
      "inputs": [
        {
          "internalType": "uint256",
          "name": "ticket",
          "type": "uint256"
        }
      ],
      "name": "getRefund",
      "outputs": [],
      "stateMutability": "nonpayable",
      "type": "function"
    },
    {
      "inputs": [],
      "name": "getTotalTicketAvailables",
      "outputs": [
        {
          "internalType": "uint256",
          "name": "",
          "type": "uint256"
        }
      ],
      "stateMutability": "view",
      "type": "function"
    },
    {
      "inputs": [],
      "name": "getTotalTicketMinted",
      "outputs": [
        {
          "internalType": "uint256",
          "name": "",
          "type": "uint256"
        }
      ],
      "stateMutability": "view",
      "type": "function"
    },
    {
      "inputs": [],
      "name": "imageHash",
      "outputs": [
        {
          "internalType": "string",
          "name": "",
          "type": "string"
        }
      ],
      "stateMutability": "view",
      "type": "function"
    },
    {
      "inputs": [
        {
          "internalType": "address",
          "name": "owner",
          "type": "address"
        },
        {
          "internalType": "address",
          "name": "operator",
          "type": "address"
        }
      ],
      "name": "isApprovedForAll",
      "outputs": [
        {
          "internalType": "bool",
          "name": "",
          "type": "bool"
        }
      ],
      "stateMutability": "view",
      "type": "function"
    },
    {
      "inputs": [],
      "name": "isCanceled",
      "outputs": [
        {
          "internalType": "bool",
          "name": "",
          "type": "bool"
        }
      ],
      "stateMutability": "view",
      "type": "function"
    },
    {
      "inputs": [
        {
          "internalType": "address",
          "name": "_owner",
          "type": "address"
        },
        {
          "internalType": "uint256",
          "name": "_tokenId",
          "type": "uint256"
        }
      ],
      "name": "isTicketValid",
      "outputs": [
        {
          "internalType": "bool",
          "name": "",
          "type": "bool"
        }
      ],
      "stateMutability": "nonpayable",
      "type": "function"
    },
    {
      "inputs": [],
      "name": "location",
      "outputs": [
        {
          "internalType": "string",
          "name": "",
          "type": "string"
        }
      ],
      "stateMutability": "view",
      "type": "function"
    },
    {
      "inputs": [],
      "name": "merkleTreeAddress",
      "outputs": [
        {
          "internalType": "contract MerkleTree",
          "name": "",
          "type": "address"
        }
      ],
      "stateMutability": "view",
      "type": "function"
    },
    {
      "inputs": [],
      "name": "name",
      "outputs": [
        {
          "internalType": "string",
          "name": "",
          "type": "string"
        }
      ],
      "stateMutability": "view",
      "type": "function"
    },
    {
      "inputs": [],
      "name": "owner",
      "outputs": [
        {
          "internalType": "address",
          "name": "",
          "type": "address"
        }
      ],
      "stateMutability": "view",
      "type": "function"
    },
    {
      "inputs": [
        {
          "internalType": "uint256",
          "name": "tokenId",
          "type": "uint256"
        }
      ],
      "name": "ownerOf",
      "outputs": [
        {
          "internalType": "address",
          "name": "",
          "type": "address"
        }
      ],
      "stateMutability": "view",
      "type": "function"
    },
    {
      "inputs": [
        {
          "internalType": "address",
          "name": "receiverAddress",
          "type": "address"
        },
        {
          "internalType": "uint256",
          "name": "quantity",
          "type": "uint256"
        }
      ],
      "name": "purchaseTicket",
      "outputs": [],
      "stateMutability": "payable",
      "type": "function"
    },
    {
      "inputs": [],
      "name": "renounceOwnership",
      "outputs": [],
      "stateMutability": "nonpayable",
      "type": "function"
    },
    {
      "inputs": [
        {
          "internalType": "address",
          "name": "from",
          "type": "address"
        },
        {
          "internalType": "address",
          "name": "to",
          "type": "address"
        },
        {
          "internalType": "uint256",
          "name": "tokenId",
          "type": "uint256"
        }
      ],
      "name": "safeTransferFrom",
      "outputs": [],
      "stateMutability": "nonpayable",
      "type": "function"
    },
    {
      "inputs": [
        {
          "internalType": "address",
          "name": "from",
          "type": "address"
        },
        {
          "internalType": "address",
          "name": "to",
          "type": "address"
        },
        {
          "internalType": "uint256",
          "name": "tokenId",
          "type": "uint256"
        },
        {
          "internalType": "bytes",
          "name": "_data",
          "type": "bytes"
        }
      ],
      "name": "safeTransferFrom",
      "outputs": [],
      "stateMutability": "nonpayable",
      "type": "function"
    },
    {
      "inputs": [
        {
          "internalType": "address",
          "name": "operator",
          "type": "address"
        },
        {
          "internalType": "bool",
          "name": "approved",
          "type": "bool"
        }
      ],
      "name": "setApprovalForAll",
      "outputs": [],
      "stateMutability": "nonpayable",
      "type": "function"
    },
    {
      "inputs": [],
      "name": "startDate",
      "outputs": [
        {
          "internalType": "uint256",
          "name": "",
          "type": "uint256"
        }
      ],
      "stateMutability": "view",
      "type": "function"
    },
    {
      "inputs": [
        {
          "internalType": "bytes4",
          "name": "interfaceId",
          "type": "bytes4"
        }
      ],
      "name": "supportsInterface",
      "outputs": [
        {
          "internalType": "bool",
          "name": "",
          "type": "bool"
        }
      ],
      "stateMutability": "view",
      "type": "function"
    },
    {
      "inputs": [],
      "name": "symbol",
      "outputs": [
        {
          "internalType": "string",
          "name": "",
          "type": "string"
        }
      ],
      "stateMutability": "view",
      "type": "function"
    },
    {
      "inputs": [],
      "name": "ticketPrice",
      "outputs": [
        {
          "internalType": "uint256",
          "name": "",
          "type": "uint256"
        }
      ],
      "stateMutability": "view",
      "type": "function"
    },
    {
      "inputs": [
        {
          "internalType": "uint256",
          "name": "tokenId",
          "type": "uint256"
        }
      ],
      "name": "tokenURI",
      "outputs": [
        {
          "internalType": "string",
          "name": "",
          "type": "string"
        }
      ],
      "stateMutability": "view",
      "type": "function"
    },
    {
      "inputs": [
        {
          "internalType": "address",
          "name": "from",
          "type": "address"
        },
        {
          "internalType": "address",
          "name": "to",
          "type": "address"
        },
        {
          "internalType": "uint256",
          "name": "tokenId",
          "type": "uint256"
        }
      ],
      "name": "transferFrom",
      "outputs": [],
      "stateMutability": "nonpayable",
      "type": "function"
    },
    {
      "inputs": [
        {
          "internalType": "address",
          "name": "newOwner",
          "type": "address"
        }
      ],
      "name": "transferOwnership",
      "outputs": [],
      "stateMutability": "nonpayable",
      "type": "function"
    },
    {
      "inputs": [
        {
          "internalType": "address",
          "name": "_to",
          "type": "address"
        },
        {
          "internalType": "uint256",
          "name": "_tokenId",
          "type": "uint256"
        }
      ],
      "name": "transferTicket",
      "outputs": [],
      "stateMutability": "nonpayable",
      "type": "function"
    }
  ],
  "bytecode": "0x60806040523480156200001157600080fd5b5060405162003e5638038062003e56833981016040819052620000349162000364565b86604051806040016040528060048152602001632d25a2ab60e11b81525081600090805190602001906200006a929190620001e0565b50805162000080906001906020840190620001e0565b5050506200009d620000976200018a60201b60201c565b6200018e565b8651620000b29060089060208a0190620001e0565b50600a869055600b8590556103e8620000cd82601b6200044c565b620000d991906200042b565b601155600c8290558351620000f690600e906020870190620001e0565b50600980546001600160a01b0319166001600160a01b038a1617905582516200012790600d906020860190620001e0565b508160405162000137906200026f565b908152602001604051809103906000f0801580156200015a573d6000803e3d6000fd5b50601380546001600160a01b0319166001600160a01b039290921691909117905550620004cb9650505050505050565b3390565b600780546001600160a01b038381166001600160a01b0319831681179093556040519116919082907f8be0079c531659141344cd1fd0a4f28419497f9722a3daafe3b4186f6b6457e090600090a35050565b828054620001ee9062000478565b90600052602060002090601f0160209004810192826200021257600085556200025d565b82601f106200022d57805160ff19168380011785556200025d565b828001600101855582156200025d579182015b828111156200025d57825182559160200191906001019062000240565b506200026b9291506200027d565b5090565b61085d80620035f983390190565b5b808211156200026b57600081556001016200027e565b80516001600160a01b0381168114620002ac57600080fd5b919050565b600082601f830112620002c2578081fd5b81516001600160401b0380821115620002df57620002df620004b5565b604051601f8301601f19908116603f011681019082821181831017156200030a576200030a620004b5565b8160405283815260209250868385880101111562000326578485fd5b8491505b838210156200034957858201830151818301840152908201906200032a565b838211156200035a57848385830101525b9695505050505050565b600080600080600080600080610100898b03121562000381578384fd5b6200038c8962000294565b60208a01519098506001600160401b0380821115620003a9578586fd5b620003b78c838d01620002b1565b985060408b0151975060608b0151965060808b0151915080821115620003db578586fd5b620003e98c838d01620002b1565b955060a08b0151915080821115620003ff578485fd5b506200040e8b828c01620002b1565b60c08b015160e0909b0151999c989b509699959894979350505050565b6000826200044757634e487b7160e01b81526012600452602481fd5b500490565b60008160001904831182151516156200047357634e487b7160e01b81526011600452602481fd5b500290565b600181811c908216806200048d57607f821691505b60208210811415620004af57634e487b7160e01b600052602260045260246000fd5b50919050565b634e487b7160e01b600052604160045260246000fd5b61311e80620004db6000396000f3fe60806040526004361061026a5760003560e01c80636352211e11610153578063a22cb465116100cb578063cd0d20f51161007f578063e985e9c511610064578063e985e9c514610657578063f2fde38b146106a0578063fb6c9537146106c057600080fd5b8063cd0d20f514610617578063d2f0be991461063757600080fd5b8063b88d4fde116100b0578063b88d4fde146105c1578063c24a0f8b146105e1578063c87b56dd146105f757600080fd5b8063a22cb46514610581578063a89df8ad146105a157600080fd5b80637284e4161161012257806385ea827c1161010757806385ea827c146105395780638da5cb5b1461054e57806395d89b411461056c57600080fd5b80637284e4161461050f57806373219f611461052457600080fd5b80636352211e146104985780636686d357146104b857806370a08231146104da578063715018a6146104fa57600080fd5b806323b872dd116101e6578063500f4fe3116101b5578063516f279e1161019a578063516f279e1461044357806351958a56146104585780635d036d1a1461047857600080fd5b8063500f4fe31461041957806351605d801461042e57600080fd5b806323b872dd1461039a57806336afc6fa146103ba57806342842e0e146103e357806348a0d7541461040357600080fd5b80630b97bc861161023d5780630fdc05a6116102225780630fdc05a61461035c5780631209b1f61461036f5780631e638f2e1461038557600080fd5b80630b97bc86146103205780630ed5a9331461034457600080fd5b806301ffc9a71461026f57806306fdde03146102a4578063081812fc146102c6578063095ea7b3146102fe575b600080fd5b34801561027b57600080fd5b5061028f61028a366004612add565b6106d5565b60405190151581526020015b60405180910390f35b3480156102b057600080fd5b506102b9610772565b60405161029b9190612efd565b3480156102d257600080fd5b506102e66102e1366004612b15565b610804565b6040516001600160a01b03909116815260200161029b565b34801561030a57600080fd5b5061031e610319366004612a0c565b61089e565b005b34801561032c57600080fd5b50610336600a5481565b60405190815260200161029b565b34801561035057600080fd5b5060105460ff1661028f565b61031e61036a366004612a0c565b6109d0565b34801561037b57600080fd5b5061033660115481565b34801561039157600080fd5b5061031e610c30565b3480156103a657600080fd5b5061031e6103b53660046128df565b610c8d565b3480156103c657600080fd5b506103cf610d14565b60405161029b989796959493929190612de6565b3480156103ef57600080fd5b5061031e6103fe3660046128df565b610f07565b34801561040f57600080fd5b50610336600c5481565b34801561042557600080fd5b506102b9610f22565b34801561043a57600080fd5b506102b9610fb0565b34801561044f57600080fd5b506102b9610fbd565b34801561046457600080fd5b5061031e610473366004612a0c565b610fca565b34801561048457600080fd5b5061028f610493366004612a0c565b611078565b3480156104a457600080fd5b506102e66104b3366004612b15565b611111565b3480156104c457600080fd5b506104cd61119c565b60405161029b9190612eb9565b3480156104e657600080fd5b506103366104f5366004612893565b61123b565b34801561050657600080fd5b5061031e6112d5565b34801561051b57600080fd5b506102b961133b565b34801561053057600080fd5b50600c54610336565b34801561054557600080fd5b50610336611348565b34801561055a57600080fd5b506007546001600160a01b03166102e6565b34801561057857600080fd5b506102b9611353565b34801561058d57600080fd5b5061031e61059c3660046129d2565b611362565b3480156105ad57600080fd5b506009546102e6906001600160a01b031681565b3480156105cd57600080fd5b5061031e6105dc36600461291a565b611371565b3480156105ed57600080fd5b50610336600b5481565b34801561060357600080fd5b506102b9610612366004612b15565b6113ff565b34801561062357600080fd5b506013546102e6906001600160a01b031681565b34801561064357600080fd5b5061031e610652366004612b15565b611592565b34801561066357600080fd5b5061028f6106723660046128ad565b6001600160a01b03918216600090815260056020908152604080832093909416825291909152205460ff1690565b3480156106ac57600080fd5b5061031e6106bb366004612893565b6116db565b3480156106cc57600080fd5b5061031e6117bd565b60006001600160e01b031982167f80ac58cd00000000000000000000000000000000000000000000000000000000148061073857506001600160e01b031982167f5b5e139f00000000000000000000000000000000000000000000000000000000145b8061076c57507f01ffc9a7000000000000000000000000000000000000000000000000000000006001600160e01b03198316145b92915050565b60606000805461078190612fe6565b80601f01602080910402602001604051908101604052809291908181526020018280546107ad90612fe6565b80156107fa5780601f106107cf576101008083540402835291602001916107fa565b820191906000526020600020905b8154815290600101906020018083116107dd57829003601f168201915b5050505050905090565b6000818152600260205260408120546001600160a01b03166108825760405162461bcd60e51b815260206004820152602c60248201527f4552433732313a20617070726f76656420717565727920666f72206e6f6e657860448201526b34b9ba32b73a103a37b5b2b760a11b60648201526084015b60405180910390fd5b506000908152600460205260409020546001600160a01b031690565b60006108a982611111565b9050806001600160a01b0316836001600160a01b031614156109335760405162461bcd60e51b815260206004820152602160248201527f4552433732313a20617070726f76616c20746f2063757272656e74206f776e6560448201527f72000000000000000000000000000000000000000000000000000000000000006064820152608401610879565b336001600160a01b038216148061094f575061094f8133610672565b6109c15760405162461bcd60e51b815260206004820152603860248201527f4552433732313a20617070726f76652063616c6c6572206973206e6f74206f7760448201527f6e6572206e6f7220617070726f76656420666f7220616c6c00000000000000006064820152608401610879565b6109cb8383611826565b505050565b80600c541015610a485760405162461bcd60e51b815260206004820152602760248201527f6e6f7420656e6f756768207469636b6574207175616e7469747920617661696c60448201527f61626c65212121000000000000000000000000000000000000000000000000006064820152608401610879565b610a5460115482611894565b341015610aa35760405162461bcd60e51b815260206004820152601560248201527f6e6f7420656e6f756768206d6f6e65792073656e7400000000000000000000006044820152606401610879565b6000606081610ab1336118a7565b905084610abd60125490565b93506000610aed6008600e604051602001610ad9929190612c20565b604051602081830303815290604052611914565b9050600081604051602001610b029190612c96565b6040516020818303038152906040529050610b1d8387611a76565b610b278682611a90565b6000610b4985610b3689611b39565b84604051602001610ad993929190612cdb565b6013546040517fd4a2498d0000000000000000000000000000000000000000000000000000000081529192506001600160a01b03169063d4a2498d90610b93908490600401612efd565b600060405180830381600087803b158015610bad57600080fd5b505af1158015610bc1573d6000803e3d6000fd5b50505050610bd3601280546001019055565b600c8054906000610be383612fcf565b91905055507fb1abf8cae4386f6e07baa4378573f7d3b2bf422f48155f99bbf26fe8b5f529a733894289604051610c1d9493929190612e55565b60405180910390a1505050505050505050565b6007546001600160a01b03163314610c8a5760405162461bcd60e51b815260206004820181905260248201527f4f776e61626c653a2063616c6c6572206973206e6f7420746865206f776e65726044820152606401610879565b33ff5b610c973382611c53565b610d095760405162461bcd60e51b815260206004820152603160248201527f4552433732313a207472616e736665722063616c6c6572206973206e6f74206f60448201527f776e6572206e6f7220617070726f7665640000000000000000000000000000006064820152608401610879565b6109cb838383611d49565b60006060600080606080600080600960009054906101000a90046001600160a01b03166008600a54600b54600e600d601154600c54868054610d5590612fe6565b80601f0160208091040260200160405190810160405280929190818152602001828054610d8190612fe6565b8015610dce5780601f10610da357610100808354040283529160200191610dce565b820191906000526020600020905b815481529060010190602001808311610db157829003601f168201915b50505050509650838054610de190612fe6565b80601f0160208091040260200160405190810160405280929190818152602001828054610e0d90612fe6565b8015610e5a5780601f10610e2f57610100808354040283529160200191610e5a565b820191906000526020600020905b815481529060010190602001808311610e3d57829003601f168201915b50505050509350828054610e6d90612fe6565b80601f0160208091040260200160405190810160405280929190818152602001828054610e9990612fe6565b8015610ee65780601f10610ebb57610100808354040283529160200191610ee6565b820191906000526020600020905b815481529060010190602001808311610ec957829003601f168201915b50505050509250975097509750975097509750975097509091929394959697565b6109cb83838360405180602001604052806000815250611371565b60088054610f2f90612fe6565b80601f0160208091040260200160405190810160405280929190818152602001828054610f5b90612fe6565b8015610fa85780601f10610f7d57610100808354040283529160200191610fa8565b820191906000526020600020905b815481529060010190602001808311610f8b57829003601f168201915b505050505081565b600f8054610f2f90612fe6565b600d8054610f2f90612fe6565b6001600160a01b0382166110205760405162461bcd60e51b815260206004820152601860248201527f696e76616c696420616464726573732070726f766964656400000000000000006044820152606401610879565b61102b338383610c8d565b604080513381526001600160a01b03841660208201529081018290527fd44fac1f5dbf8e8674ffb02fd7846c7b6771f2d2a311ae9d2ee52958e69ea5fe9060600160405180910390a15050565b6007546000906001600160a01b031633146110d55760405162461bcd60e51b815260206004820181905260248201527f4f776e61626c653a2063616c6c6572206973206e6f7420746865206f776e65726044820152606401610879565b826001600160a01b03166110e883611111565b6001600160a01b031614156111085761110082611f16565b50600161076c565b50600092915050565b6000818152600260205260408120546001600160a01b03168061076c5760405162461bcd60e51b815260206004820152602960248201527f4552433732313a206f776e657220717565727920666f72206e6f6e657869737460448201527f656e7420746f6b656e00000000000000000000000000000000000000000000006064820152608401610879565b601354604080517fad2b303700000000000000000000000000000000000000000000000000000000815290516060926001600160a01b03169163ad2b3037916004808301926000929190829003018186803b1580156111fa57600080fd5b505afa15801561120e573d6000803e3d6000fd5b505050506040513d6000823e601f3d908101601f191682016040526112369190810190612a35565b905090565b60006001600160a01b0382166112b95760405162461bcd60e51b815260206004820152602a60248201527f4552433732313a2062616c616e636520717565727920666f7220746865207a6560448201527f726f2061646472657373000000000000000000000000000000000000000000006064820152608401610879565b506001600160a01b031660009081526003602052604090205490565b6007546001600160a01b0316331461132f5760405162461bcd60e51b815260206004820181905260248201527f4f776e61626c653a2063616c6c6572206973206e6f7420746865206f776e65726044820152606401610879565b6113396000611f56565b565b600e8054610f2f90612fe6565b600061123660125490565b60606001805461078190612fe6565b61136d338383611fa8565b5050565b61137b3383611c53565b6113ed5760405162461bcd60e51b815260206004820152603160248201527f4552433732313a207472616e736665722063616c6c6572206973206e6f74206f60448201527f776e6572206e6f7220617070726f7665640000000000000000000000000000006064820152608401610879565b6113f984848484612077565b50505050565b6000818152600260205260409020546060906001600160a01b031661148c5760405162461bcd60e51b815260206004820152603160248201527f45524337323155524953746f726167653a2055524920717565727920666f722060448201527f6e6f6e6578697374656e7420746f6b656e0000000000000000000000000000006064820152608401610879565b600082815260066020526040812080546114a590612fe6565b80601f01602080910402602001604051908101604052809291908181526020018280546114d190612fe6565b801561151e5780601f106114f35761010080835404028352916020019161151e565b820191906000526020600020905b81548152906001019060200180831161150157829003601f168201915b50505050509050600061153c60408051602081019091526000815290565b905080516000141561154f575092915050565b815115611581578082604051602001611569929190612bf1565b60405160208183030381529060405292505050919050565b61158a846120f5565b949350505050565b336115df5760405162461bcd60e51b815260206004820152601860248201527f696e76616c696420616464726573732070726f766964656400000000000000006044820152606401610879565b60105460ff166116575760405162461bcd60e51b815260206004820152602e60248201527f726566756e64206973206f6e6c7920617661696c61626c6520666f722063616360448201527f616e63656c6564206576656e74730000000000000000000000000000000000006064820152608401610879565b61166081611f16565b601154604051339180156108fc02916000818181858888f1935050505015801561168e573d6000803e3d6000fd5b50601154604080513081523360208201528082018490526060810192909252517fe2820dabfc1c5124dc9718c2be0affc8a0037202b0f27510f7ff8a3255f22d909181900360800190a150565b6007546001600160a01b031633146117355760405162461bcd60e51b815260206004820181905260248201527f4f776e61626c653a2063616c6c6572206973206e6f7420746865206f776e65726044820152606401610879565b6001600160a01b0381166117b15760405162461bcd60e51b815260206004820152602660248201527f4f776e61626c653a206e6577206f776e657220697320746865207a65726f206160448201527f64647265737300000000000000000000000000000000000000000000000000006064820152608401610879565b6117ba81611f56565b50565b6007546001600160a01b031633146118175760405162461bcd60e51b815260206004820181905260248201527f4f776e61626c653a2063616c6c6572206973206e6f7420746865206f776e65726044820152606401610879565b6010805460ff19166001179055565b600081815260046020526040902080546001600160a01b0319166001600160a01b038416908117909155819061185b82611111565b6001600160a01b03167f8c5be1e5ebec7d5bd14f71427d1e84f3dd0314c0f7b2291e5b200ac8c7c3b92560405160405180910390a45050565b60006118a08284612f6d565b9392505050565b6060816118e757505060408051808201909152600481527f3078303000000000000000000000000000000000000000000000000000000000602082015290565b8160005b811561190a57806118fb81613021565b915050600882901c91506118eb565b61158a84826121ea565b606081516000141561193457505060408051602081019091526000815290565b60006040518060600160405280604081526020016130a960409139905060006003845160026119639190612f41565b61196d9190612f59565b611978906004612f6d565b67ffffffffffffffff81111561199e57634e487b7160e01b600052604160045260246000fd5b6040519080825280601f01601f1916602001820160405280156119c8576020820181803683370190505b509050600182016020820185865187015b80821015611a34576003820191508151603f8160121c168501518453600184019350603f81600c1c168501518453600184019350603f8160061c168501518453600184019350603f81168501518453506001830192506119d9565b5050600386510660018114611a505760028114611a6357611a6b565b603d6001830353603d6002830353611a6b565b603d60018303535b509195945050505050565b61136d8282604051806020016040528060008152506123f5565b6000828152600260205260409020546001600160a01b0316611b1a5760405162461bcd60e51b815260206004820152602e60248201527f45524337323155524953746f726167653a2055524920736574206f66206e6f6e60448201527f6578697374656e7420746f6b656e0000000000000000000000000000000000006064820152608401610879565b600082815260066020908152604090912082516109cb928401906127a8565b606081611b5d5750506040805180820190915260018152600360fc1b602082015290565b8160005b8115611b875780611b7181613021565b9150611b809050600a83612f59565b9150611b61565b60008167ffffffffffffffff811115611bb057634e487b7160e01b600052604160045260246000fd5b6040519080825280601f01601f191660200182016040528015611bda576020820181803683370190505b5090505b841561158a57611bef600183612f8c565b9150611bfc600a8661303c565b611c07906030612f41565b60f81b818381518110611c2a57634e487b7160e01b600052603260045260246000fd5b60200101906001600160f81b031916908160001a905350611c4c600a86612f59565b9450611bde565b6000818152600260205260408120546001600160a01b0316611ccc5760405162461bcd60e51b815260206004820152602c60248201527f4552433732313a206f70657261746f7220717565727920666f72206e6f6e657860448201526b34b9ba32b73a103a37b5b2b760a11b6064820152608401610879565b6000611cd783611111565b9050806001600160a01b0316846001600160a01b03161480611d1e57506001600160a01b0380821660009081526005602090815260408083209388168352929052205460ff165b8061158a5750836001600160a01b0316611d3784610804565b6001600160a01b031614949350505050565b826001600160a01b0316611d5c82611111565b6001600160a01b031614611dd85760405162461bcd60e51b815260206004820152602560248201527f4552433732313a207472616e736665722066726f6d20696e636f72726563742060448201527f6f776e65720000000000000000000000000000000000000000000000000000006064820152608401610879565b6001600160a01b038216611e535760405162461bcd60e51b8152602060048201526024808201527f4552433732313a207472616e7366657220746f20746865207a65726f2061646460448201527f72657373000000000000000000000000000000000000000000000000000000006064820152608401610879565b611e5e600082611826565b6001600160a01b0383166000908152600360205260408120805460019290611e87908490612f8c565b90915550506001600160a01b0382166000908152600360205260408120805460019290611eb5908490612f41565b909155505060008181526002602052604080822080546001600160a01b0319166001600160a01b0386811691821790925591518493918716917fddf252ad1be2c89b69c2b068fc378daa952ba7f163c4a11628f55a4df523b3ef91a4505050565b611f1f81612473565b60008181526006602052604090208054611f3890612fe6565b1590506117ba5760008181526006602052604081206117ba9161282c565b600780546001600160a01b038381166001600160a01b0319831681179093556040519116919082907f8be0079c531659141344cd1fd0a4f28419497f9722a3daafe3b4186f6b6457e090600090a35050565b816001600160a01b0316836001600160a01b0316141561200a5760405162461bcd60e51b815260206004820152601960248201527f4552433732313a20617070726f766520746f2063616c6c6572000000000000006044820152606401610879565b6001600160a01b03838116600081815260056020908152604080832094871680845294825291829020805460ff191686151590811790915591519182527f17307eab39ab6107e8899845ad3d59bd9653f200f220920489ca2b5937696c31910160405180910390a3505050565b612082848484611d49565b61208e8484848461250e565b6113f95760405162461bcd60e51b815260206004820152603260248201527f4552433732313a207472616e7366657220746f206e6f6e20455243373231526560448201527131b2b4bb32b91034b6b83632b6b2b73a32b960711b6064820152608401610879565b6000818152600260205260409020546060906001600160a01b03166121825760405162461bcd60e51b815260206004820152602f60248201527f4552433732314d657461646174613a2055524920717565727920666f72206e6f60448201527f6e6578697374656e7420746f6b656e00000000000000000000000000000000006064820152608401610879565b600061219960408051602081019091526000815290565b905060008151116121b957604051806020016040528060008152506118a0565b806121c384611b39565b6040516020016121d4929190612bf1565b6040516020818303038152906040529392505050565b606060006121f9836002612f6d565b612204906002612f41565b67ffffffffffffffff81111561222a57634e487b7160e01b600052604160045260246000fd5b6040519080825280601f01601f191660200182016040528015612254576020820181803683370190505b509050600360fc1b8160008151811061227d57634e487b7160e01b600052603260045260246000fd5b60200101906001600160f81b031916908160001a9053507f7800000000000000000000000000000000000000000000000000000000000000816001815181106122d657634e487b7160e01b600052603260045260246000fd5b60200101906001600160f81b031916908160001a90535060006122fa846002612f6d565b612305906001612f41565b90505b60018111156123a6577f303132333435363738396162636465660000000000000000000000000000000085600f166010811061235457634e487b7160e01b600052603260045260246000fd5b1a60f81b82828151811061237857634e487b7160e01b600052603260045260246000fd5b60200101906001600160f81b031916908160001a90535060049490941c9361239f81612fcf565b9050612308565b5083156118a05760405162461bcd60e51b815260206004820181905260248201527f537472696e67733a20686578206c656e67746820696e73756666696369656e746044820152606401610879565b6123ff8383612666565b61240c600084848461250e565b6109cb5760405162461bcd60e51b815260206004820152603260248201527f4552433732313a207472616e7366657220746f206e6f6e20455243373231526560448201527131b2b4bb32b91034b6b83632b6b2b73a32b960711b6064820152608401610879565b600061247e82611111565b905061248b600083611826565b6001600160a01b03811660009081526003602052604081208054600192906124b4908490612f8c565b909155505060008281526002602052604080822080546001600160a01b0319169055518391906001600160a01b038416907fddf252ad1be2c89b69c2b068fc378daa952ba7f163c4a11628f55a4df523b3ef908390a45050565b60006001600160a01b0384163b1561265b57604051630a85bd0160e11b81526001600160a01b0385169063150b7a0290612552903390899088908890600401612daa565b602060405180830381600087803b15801561256c57600080fd5b505af192505050801561259c575060408051601f3d908101601f1916820190925261259991810190612af9565b60015b612641573d8080156125ca576040519150601f19603f3d011682016040523d82523d6000602084013e6125cf565b606091505b5080516126395760405162461bcd60e51b815260206004820152603260248201527f4552433732313a207472616e7366657220746f206e6f6e20455243373231526560448201527131b2b4bb32b91034b6b83632b6b2b73a32b960711b6064820152608401610879565b805181602001fd5b6001600160e01b031916630a85bd0160e11b14905061158a565b506001949350505050565b6001600160a01b0382166126bc5760405162461bcd60e51b815260206004820181905260248201527f4552433732313a206d696e7420746f20746865207a65726f20616464726573736044820152606401610879565b6000818152600260205260409020546001600160a01b0316156127215760405162461bcd60e51b815260206004820152601c60248201527f4552433732313a20746f6b656e20616c7265616479206d696e746564000000006044820152606401610879565b6001600160a01b038216600090815260036020526040812080546001929061274a908490612f41565b909155505060008181526002602052604080822080546001600160a01b0319166001600160a01b03861690811790915590518392907fddf252ad1be2c89b69c2b068fc378daa952ba7f163c4a11628f55a4df523b3ef908290a45050565b8280546127b490612fe6565b90600052602060002090601f0160209004810192826127d6576000855561281c565b82601f106127ef57805160ff191683800117855561281c565b8280016001018555821561281c579182015b8281111561281c578251825591602001919060010190612801565b50612828929150612862565b5090565b50805461283890612fe6565b6000825580601f10612848575050565b601f0160209004906000526020600020908101906117ba91905b5b808211156128285760008155600101612863565b80356001600160a01b038116811461288e57600080fd5b919050565b6000602082840312156128a4578081fd5b6118a082612877565b600080604083850312156128bf578081fd5b6128c883612877565b91506128d660208401612877565b90509250929050565b6000806000606084860312156128f3578081fd5b6128fc84612877565b925061290a60208501612877565b9150604084013590509250925092565b6000806000806080858703121561292f578081fd5b61293885612877565b93506020612947818701612877565b935060408601359250606086013567ffffffffffffffff8082111561296a578384fd5b818801915088601f83011261297d578384fd5b81358181111561298f5761298f61307c565b6129a1601f8201601f19168501612f10565b915080825289848285010111156129b6578485fd5b8084840185840137810190920192909252939692955090935050565b600080604083850312156129e4578182fd5b6129ed83612877565b915060208301358015158114612a01578182fd5b809150509250929050565b60008060408385031215612a1e578182fd5b612a2783612877565b946020939093013593505050565b60006020808385031215612a47578182fd5b825167ffffffffffffffff80821115612a5e578384fd5b818501915085601f830112612a71578384fd5b815181811115612a8357612a8361307c565b8060051b9150612a94848301612f10565b8181528481019084860184860187018a1015612aae578788fd5b8795505b83861015612ad0578051835260019590950194918601918601612ab2565b5098975050505050505050565b600060208284031215612aee578081fd5b81356118a081613092565b600060208284031215612b0a578081fd5b81516118a081613092565b600060208284031215612b26578081fd5b5035919050565b60008151808452612b45816020860160208601612fa3565b601f01601f19169290920160200192915050565b8054600090600181811c9080831680612b7357607f831692505b6020808410821415612b9357634e487b7160e01b86526022600452602486fd5b818015612ba75760018114612bb857612be5565b60ff19861689528489019650612be5565b60008881526020902060005b86811015612bdd5781548b820152908501908301612bc4565b505084890196505b50505050505092915050565b60008351612c03818460208801612fa3565b835190830190612c17818360208801612fa3565b01949350505050565b7f226576656e745f6e616d65223a2022000000000000000000000000000000000081526000612c52600f830185612b59565b7f222c20226465736372697074696f6e223a2022000000000000000000000000008152612c826013820185612b59565b61227d60f01b815260020195945050505050565b7f646174613a6170706c69636174696f6e2f6a736f6e3b6261736536342c000000815260008251612cce81601d850160208701612fa3565b91909101601d0192915050565b7f2272656365697665722061646472657373223a20220000000000000000000000815260008451612d13816015850160208901612fa3565b7f222c2022746f6b656e4964223a202200000000000000000000000000000000006015918401918201528451612d50816024840160208901612fa3565b7f222c2022746f6b656e555249223a202200000000000000000000000000000000602492909101918201528351612d8e816034840160208801612fa3565b61227d60f01b6034929091019182015260360195945050505050565b60006001600160a01b03808716835280861660208401525083604083015260806060830152612ddc6080830184612b2d565b9695505050505050565b60006101006001600160a01b038b168352806020840152612e098184018b612b2d565b90508860408401528760608401528281036080840152612e298188612b2d565b905082810360a0840152612e3d8187612b2d565b60c0840195909552505060e001529695505050505050565b6000608082016001600160a01b0387168352602086818501528560408501526080606085015281855180845260a0860191508287019350845b81811015612eaa57845183529383019391830191600101612e8e565b50909998505050505050505050565b6020808252825182820181905260009190848201906040850190845b81811015612ef157835183529284019291840191600101612ed5565b50909695505050505050565b6020815260006118a06020830184612b2d565b604051601f8201601f1916810167ffffffffffffffff81118282101715612f3957612f3961307c565b604052919050565b60008219821115612f5457612f54613050565b500190565b600082612f6857612f68613066565b500490565b6000816000190483118215151615612f8757612f87613050565b500290565b600082821015612f9e57612f9e613050565b500390565b60005b83811015612fbe578181015183820152602001612fa6565b838111156113f95750506000910152565b600081612fde57612fde613050565b506000190190565b600181811c90821680612ffa57607f821691505b6020821081141561301b57634e487b7160e01b600052602260045260246000fd5b50919050565b600060001982141561303557613035613050565b5060010190565b60008261304b5761304b613066565b500690565b634e487b7160e01b600052601160045260246000fd5b634e487b7160e01b600052601260045260246000fd5b634e487b7160e01b600052604160045260246000fd5b6001600160e01b0319811681146117ba57600080fdfe4142434445464748494a4b4c4d4e4f505152535455565758595a6162636465666768696a6b6c6d6e6f707172737475767778797a303132333435363738392b2fa264697066735822122068f3b247244b73df994dc8c67642bec376d25d76616cf86b0faf151d5256d81164736f6c63430008040033608060405234801561001057600080fd5b5060405161085d38038061085d83398101604081905261002f9161011c565b6000600161003e836002610134565b6100489190610153565b9050610055600183610153565b60015560005b818110156100b357604051600360fc1b602082015260009060210160408051601f19818403018152919052805160209182012082546001810184556000938452919092200155806100ab8161016a565b91505061005b565b506001545b81811015610114576002600082815481106100e357634e487b7160e01b600052603260045260246000fd5b600091825260208083209091015483546001810185559383529120909101558061010c8161016a565b9150506100b8565b50505061019b565b60006020828403121561012d578081fd5b5051919050565b600081600019048311821515161561014e5761014e610185565b500290565b60008282101561016557610165610185565b500390565b600060001982141561017e5761017e610185565b5060010190565b634e487b7160e01b600052601160045260246000fd5b6106b3806101aa6000396000f3fe608060405234801561001057600080fd5b50600436106100675760003560e01c8063d455a79d11610050578063d455a79d14610092578063d4a2498d146100b3578063f0ba8440146100c857600080fd5b80633bc5de301461006c578063ad2b30371461008a575b600080fd5b6100746100db565b6040516100819190610566565b60405180910390f35b610074610133565b6100a56100a0366004610515565b610189565b604051908152602001610081565b6100c66100c136600461046b565b6101aa565b005b6100a56100d6366004610515565b6102e6565b6060600080548060200260200160405190810160405280929190818152602001828054801561012957602002820191906000526020600020905b815481526020019060010190808311610115575b5050505050905090565b606060028054806020026020016040519081016040528092919081815260200182805480156101295760200282019190600052602060002090815481526020019060010190808311610115575050505050905090565b6002818154811061019957600080fd5b600091825260209091200154905081565b6000546001541061021b576040517f08c379a000000000000000000000000000000000000000000000000000000000815260206004820152601f60248201527f546865204d65726b6c65205472656520697320616c72656164792066756c6c00604482015260640160405180910390fd5b60008160405160200161022e919061052d565b6040516020818303038152906040528051906020012090508060006001548154811061026a57634e487b7160e01b600052603260045260246000fd5b60009182526020909120015560028054829190610289906001906105f5565b60015461029691906105f5565b815481106102b457634e487b7160e01b600052603260045260246000fd5b90600052602060002001819055506102cd6001546102f6565b600180549060006102dd8361060c565b91905055505050565b6000818154811061019957600080fd5b806000805b82156103f55761030a836103fb565b91506103158361041a565b1561032a576103238261043b565b9050610336565b61033382610453565b90505b6000838154811061035757634e487b7160e01b600052603260045260246000fd5b90600052602060002001546000828154811061038357634e487b7160e01b600052603260045260246000fd5b90600052602060002001546040516020016103a8929190918252602082015260400190565b60405160208183030381529060405280519060200120600083815481106103df57634e487b7160e01b600052603260045260246000fd5b90600052602060002001819055508192506102fb565b50505050565b6000600261040a6001846105f5565b61041491906105c2565b92915050565b6000610427600283610627565b61043357506001919050565b506000919050565b60006104488260026105d6565b6104149060016105aa565b60006104608260026105d6565b6104149060026105aa565b60006020828403121561047c578081fd5b813567ffffffffffffffff80821115610493578283fd5b818401915084601f8301126104a6578283fd5b8135818111156104b8576104b8610667565b604051601f8201601f19908116603f011681019083821181831017156104e0576104e0610667565b816040528281528760208487010111156104f8578586fd5b826020860160208301379182016020019490945295945050505050565b600060208284031215610526578081fd5b5035919050565b60008251815b8181101561054d5760208186018101518583015201610533565b8181111561055b5782828501525b509190910192915050565b6020808252825182820181905260009190848201906040850190845b8181101561059e57835183529284019291840191600101610582565b50909695505050505050565b600082198211156105bd576105bd61063b565b500190565b6000826105d1576105d1610651565b500490565b60008160001904831182151516156105f0576105f061063b565b500290565b6000828210156106075761060761063b565b500390565b60006000198214156106205761062061063b565b5060010190565b60008261063657610636610651565b500690565b634e487b7160e01b600052601160045260246000fd5b634e487b7160e01b600052601260045260246000fd5b634e487b7160e01b600052604160045260246000fdfea26469706673582212206dc698cf815fed1bb8540148a44ab075805d0a81506c896aa487d1218830f77c64736f6c63430008040033",
  "linkReferences": {},
  "deployedLinkReferences": {}
}