{
  "_format": "hh-sol-artifact-1",
  "contractName": "Event",
  "sourceName": "contracts/Event.sol",
  "abi": [
    {
      "inputs": [
        {
          "internalType": "address",
          "name": "_organizer",
          "type": "address"
        },
        {
          "internalType": "string",
          "name": "_name",
          "type": "string"
        },
        {
          "internalType": "uint256",
          "name": "_start",
          "type": "uint256"
        },
        {
          "internalType": "uint256",
          "name": "_end",
          "type": "uint256"
        },
        {
          "internalType": "string",
          "name": "_description",
          "type": "string"
        },
        {
          "internalType": "string",
          "name": "_location",
          "type": "string"
        },
        {
          "internalType": "uint256",
          "name": "supply",
          "type": "uint256"
        },
        {
          "internalType": "uint256",
          "name": "_ticketPrice",
          "type": "uint256"
        },
        {
          "internalType": "address",
          "name": "_verifierAddr",
          "type": "address"
        },
        {
          "internalType": "address",
          "name": "_hasherAddr",
          "type": "address"
        }
      ],
      "stateMutability": "nonpayable",
      "type": "constructor"
    },
    {
      "anonymous": false,
      "inputs": [
        {
          "indexed": true,
          "internalType": "address",
          "name": "previousOwner",
          "type": "address"
        },
        {
          "indexed": true,
          "internalType": "address",
          "name": "newOwner",
          "type": "address"
        }
      ],
      "name": "OwnershipTransferred",
      "type": "event"
    },
    {
      "anonymous": false,
      "inputs": [
        {
          "indexed": false,
          "internalType": "address",
          "name": "_event",
          "type": "address"
        },
        {
          "indexed": false,
          "internalType": "address",
          "name": "_organizer",
          "type": "address"
        },
        {
          "indexed": false,
          "internalType": "uint256",
          "name": "_balance",
          "type": "uint256"
        }
      ],
      "name": "PaymentCollected",
      "type": "event"
    },
    {
      "anonymous": false,
      "inputs": [
        {
          "indexed": false,
          "internalType": "address",
          "name": "purchaser",
          "type": "address"
        },
        {
          "indexed": false,
          "internalType": "uint256",
          "name": "date",
          "type": "uint256"
        },
        {
          "indexed": false,
          "internalType": "uint32",
          "name": "index",
          "type": "uint32"
        },
        {
          "indexed": false,
          "internalType": "uint256",
          "name": "info",
          "type": "uint256"
        },
        {
          "indexed": false,
          "internalType": "uint256",
          "name": "newItemId",
          "type": "uint256"
        },
        {
          "indexed": false,
          "internalType": "uint256",
          "name": "commitment",
          "type": "uint256"
        }
      ],
      "name": "TicketPurchased",
      "type": "event"
    },
    {
      "anonymous": false,
      "inputs": [
        {
          "indexed": false,
          "internalType": "address",
          "name": "_event",
          "type": "address"
        },
        {
          "indexed": false,
          "internalType": "address",
          "name": "_requestedBy",
          "type": "address"
        },
        {
          "indexed": false,
          "internalType": "uint256",
          "name": "_tokenIds",
          "type": "uint256"
        },
        {
          "indexed": false,
          "internalType": "uint256",
          "name": "_ticketPrice",
          "type": "uint256"
        }
      ],
      "name": "TicketRefunded",
      "type": "event"
    },
    {
      "anonymous": false,
      "inputs": [
        {
          "indexed": false,
          "internalType": "address",
          "name": "_from",
          "type": "address"
        },
        {
          "indexed": false,
          "internalType": "address",
          "name": "_to",
          "type": "address"
        },
        {
          "indexed": false,
          "internalType": "uint256",
          "name": "_tokenIds",
          "type": "uint256"
        }
      ],
      "name": "TicketTransfered",
      "type": "event"
    },
    {
      "inputs": [],
      "name": "FIELD_SIZE",
      "outputs": [
        {
          "internalType": "uint256",
          "name": "",
          "type": "uint256"
        }
      ],
      "stateMutability": "view",
      "type": "function"
    },
    {
      "inputs": [],
      "name": "ROOT_HISTORY_SIZE",
      "outputs": [
        {
          "internalType": "uint256",
          "name": "",
          "type": "uint256"
        }
      ],
      "stateMutability": "view",
      "type": "function"
    },
    {
      "inputs": [],
      "name": "ZERO_VALUE",
      "outputs": [
        {
          "internalType": "uint256",
          "name": "",
          "type": "uint256"
        }
      ],
      "stateMutability": "view",
      "type": "function"
    },
    {
      "inputs": [
        {
          "internalType": "address",
          "name": "",
          "type": "address"
        }
      ],
      "name": "addressToIndex",
      "outputs": [
        {
          "internalType": "uint32",
          "name": "",
          "type": "uint32"
        }
      ],
      "stateMutability": "view",
      "type": "function"
    },
    {
      "inputs": [],
      "name": "available",
      "outputs": [
        {
          "internalType": "uint256",
          "name": "",
          "type": "uint256"
        }
      ],
      "stateMutability": "view",
      "type": "function"
    },
    {
      "inputs": [],
      "name": "cancelEvent",
      "outputs": [],
      "stateMutability": "nonpayable",
      "type": "function"
    },
    {
      "inputs": [
        {
          "internalType": "uint256",
          "name": "",
          "type": "uint256"
        }
      ],
      "name": "commitments",
      "outputs": [
        {
          "internalType": "bool",
          "name": "",
          "type": "bool"
        }
      ],
      "stateMutability": "view",
      "type": "function"
    },
    {
      "inputs": [],
      "name": "description",
      "outputs": [
        {
          "internalType": "string",
          "name": "",
          "type": "string"
        }
      ],
      "stateMutability": "view",
      "type": "function"
    },
    {
      "inputs": [],
      "name": "endDate",
      "outputs": [
        {
          "internalType": "uint256",
          "name": "",
          "type": "uint256"
        }
      ],
      "stateMutability": "view",
      "type": "function"
    },
    {
      "inputs": [],
      "name": "evName",
      "outputs": [
        {
          "internalType": "string",
          "name": "",
          "type": "string"
        }
      ],
      "stateMutability": "view",
      "type": "function"
    },
    {
      "inputs": [],
      "name": "evOwner",
      "outputs": [
        {
          "internalType": "address",
          "name": "",
          "type": "address"
        }
      ],
      "stateMutability": "view",
      "type": "function"
    },
    {
      "inputs": [
        {
          "internalType": "address",
          "name": "_purchaser",
          "type": "address"
        }
      ],
      "name": "getAddressIndex",
      "outputs": [
        {
          "internalType": "uint32",
          "name": "",
          "type": "uint32"
        }
      ],
      "stateMutability": "view",
      "type": "function"
    },
    {
      "inputs": [],
      "name": "getIdentity",
      "outputs": [
        {
          "internalType": "address",
          "name": "",
          "type": "address"
        },
        {
          "internalType": "string",
          "name": "",
          "type": "string"
        },
        {
          "internalType": "uint256",
          "name": "",
          "type": "uint256"
        },
        {
          "internalType": "uint256",
          "name": "",
          "type": "uint256"
        },
        {
          "internalType": "string",
          "name": "",
          "type": "string"
        },
        {
          "internalType": "string",
          "name": "",
          "type": "string"
        },
        {
          "internalType": "uint256",
          "name": "",
          "type": "uint256"
        },
        {
          "internalType": "uint256",
          "name": "",
          "type": "uint256"
        }
      ],
      "stateMutability": "view",
      "type": "function"
    },
    {
      "inputs": [],
      "name": "getLeaves",
      "outputs": [
        {
          "internalType": "uint256[]",
          "name": "",
          "type": "uint256[]"
        }
      ],
      "stateMutability": "view",
      "type": "function"
    },
    {
      "inputs": [],
      "name": "getMerkleTreeLeaves",
      "outputs": [
        {
          "internalType": "uint256[]",
          "name": "",
          "type": "uint256[]"
        }
      ],
      "stateMutability": "view",
      "type": "function"
    },
    {
      "inputs": [],
      "name": "getTotalTicketAvailables",
      "outputs": [
        {
          "internalType": "uint256",
          "name": "",
          "type": "uint256"
        }
      ],
      "stateMutability": "view",
      "type": "function"
    },
    {
      "inputs": [],
      "name": "getTotalTicketMinted",
      "outputs": [
        {
          "internalType": "uint256",
          "name": "",
          "type": "uint256"
        }
      ],
      "stateMutability": "view",
      "type": "function"
    },
    {
      "inputs": [],
      "name": "getZero",
      "outputs": [
        {
          "internalType": "uint256",
          "name": "",
          "type": "uint256"
        }
      ],
      "stateMutability": "view",
      "type": "function"
    },
    {
      "inputs": [],
      "name": "getZeroValues",
      "outputs": [
        {
          "internalType": "uint256",
          "name": "",
          "type": "uint256"
        }
      ],
      "stateMutability": "view",
      "type": "function"
    },
    {
      "inputs": [],
      "name": "hasher",
      "outputs": [
        {
          "internalType": "contract IPoseidonHasher",
          "name": "",
          "type": "address"
        }
      ],
      "stateMutability": "view",
      "type": "function"
    },
    {
      "inputs": [],
      "name": "imageHash",
      "outputs": [
        {
          "internalType": "string",
          "name": "",
          "type": "string"
        }
      ],
      "stateMutability": "view",
      "type": "function"
    },
    {
      "inputs": [],
      "name": "index",
      "outputs": [
        {
          "internalType": "uint32",
          "name": "",
          "type": "uint32"
        }
      ],
      "stateMutability": "view",
      "type": "function"
    },
    {
      "inputs": [
        {
          "internalType": "uint256",
          "name": "leaf",
          "type": "uint256"
        }
      ],
      "name": "insert",
      "outputs": [
        {
          "internalType": "uint32",
          "name": "",
          "type": "uint32"
        }
      ],
      "stateMutability": "nonpayable",
      "type": "function"
    },
    {
      "inputs": [
        {
          "internalType": "uint256",
          "name": "_nullifierHash",
          "type": "uint256"
        }
      ],
      "name": "isSpent",
      "outputs": [
        {
          "internalType": "bool",
          "name": "",
          "type": "bool"
        }
      ],
      "stateMutability": "view",
      "type": "function"
    },
    {
      "inputs": [
        {
          "internalType": "uint256",
          "name": "root",
          "type": "uint256"
        }
      ],
      "name": "isValidRoot",
      "outputs": [
        {
          "internalType": "bool",
          "name": "",
          "type": "bool"
        }
      ],
      "stateMutability": "view",
      "type": "function"
    },
    {
      "inputs": [
        {
          "internalType": "uint256",
          "name": "",
          "type": "uint256"
        }
      ],
      "name": "leaves",
      "outputs": [
        {
          "internalType": "uint256",
          "name": "",
          "type": "uint256"
        }
      ],
      "stateMutability": "view",
      "type": "function"
    },
    {
      "inputs": [
        {
          "internalType": "uint256",
          "name": "",
          "type": "uint256"
        }
      ],
      "name": "levelHashes",
      "outputs": [
        {
          "internalType": "uint256",
          "name": "",
          "type": "uint256"
        }
      ],
      "stateMutability": "view",
      "type": "function"
    },
    {
      "inputs": [],
      "name": "levels",
      "outputs": [
        {
          "internalType": "uint256",
          "name": "",
          "type": "uint256"
        }
      ],
      "stateMutability": "view",
      "type": "function"
    },
    {
      "inputs": [],
      "name": "location",
      "outputs": [
        {
          "internalType": "string",
          "name": "",
          "type": "string"
        }
      ],
      "stateMutability": "view",
      "type": "function"
    },
    {
      "inputs": [],
      "name": "maxSize",
      "outputs": [
        {
          "internalType": "uint32",
          "name": "",
          "type": "uint32"
        }
      ],
      "stateMutability": "view",
      "type": "function"
    },
    {
      "inputs": [],
      "name": "merkleTreeAddress",
      "outputs": [
        {
          "internalType": "contract MerkleTree",
          "name": "",
          "type": "address"
        }
      ],
      "stateMutability": "view",
      "type": "function"
    },
    {
      "inputs": [
        {
          "internalType": "uint256",
          "name": "",
          "type": "uint256"
        }
      ],
      "name": "nullifierHashes",
      "outputs": [
        {
          "internalType": "bool",
          "name": "",
          "type": "bool"
        }
      ],
      "stateMutability": "view",
      "type": "function"
    },
    {
      "inputs": [],
      "name": "owner",
      "outputs": [
        {
          "internalType": "address",
          "name": "",
          "type": "address"
        }
      ],
      "stateMutability": "view",
      "type": "function"
    },
    {
      "inputs": [
        {
          "internalType": "address",
          "name": "_purchaser",
          "type": "address"
        },
        {
          "internalType": "uint256",
          "name": "_commitment",
          "type": "uint256"
        }
      ],
      "name": "purchaseTicket",
      "outputs": [],
      "stateMutability": "payable",
      "type": "function"
    },
    {
      "inputs": [],
      "name": "renounceOwnership",
      "outputs": [],
      "stateMutability": "nonpayable",
      "type": "function"
    },
    {
      "inputs": [
        {
          "internalType": "uint256",
          "name": "",
          "type": "uint256"
        }
      ],
      "name": "roots",
      "outputs": [
        {
          "internalType": "uint256",
          "name": "",
          "type": "uint256"
        }
      ],
      "stateMutability": "view",
      "type": "function"
    },
    {
      "inputs": [],
      "name": "startDate",
      "outputs": [
        {
          "internalType": "uint256",
          "name": "",
          "type": "uint256"
        }
      ],
      "stateMutability": "view",
      "type": "function"
    },
    {
      "inputs": [],
      "name": "ticketPrice",
      "outputs": [
        {
          "internalType": "uint256",
          "name": "",
          "type": "uint256"
        }
      ],
      "stateMutability": "view",
      "type": "function"
    },
    {
      "inputs": [
        {
          "internalType": "address",
          "name": "newOwner",
          "type": "address"
        }
      ],
      "name": "transferOwnership",
      "outputs": [],
      "stateMutability": "nonpayable",
      "type": "function"
    },
    {
      "inputs": [],
      "name": "verifierAddr",
      "outputs": [
        {
          "internalType": "address",
          "name": "",
          "type": "address"
        }
      ],
      "stateMutability": "view",
      "type": "function"
    },
    {
      "inputs": [
        {
          "internalType": "bytes",
          "name": "proof",
          "type": "bytes"
        },
        {
          "internalType": "uint256[]",
          "name": "pubSignals",
          "type": "uint256[]"
        }
      ],
      "name": "verifyProof",
      "outputs": [
        {
          "internalType": "bool",
          "name": "",
          "type": "bool"
        }
      ],
      "stateMutability": "view",
      "type": "function"
    },
    {
      "inputs": [
        {
          "internalType": "bytes",
          "name": "proof",
          "type": "bytes"
        },
        {
          "internalType": "uint256[]",
          "name": "pubSignals",
          "type": "uint256[]"
        }
      ],
      "name": "verifyTicketEvent",
      "outputs": [
        {
          "internalType": "bool",
          "name": "",
          "type": "bool"
        }
      ],
      "stateMutability": "view",
      "type": "function"
    },
    {
      "inputs": [
        {
          "internalType": "uint256",
          "name": "i",
          "type": "uint256"
        }
      ],
      "name": "zeros",
      "outputs": [
        {
          "internalType": "uint256",
          "name": "",
          "type": "uint256"
        }
      ],
      "stateMutability": "pure",
      "type": "function"
    }
  ],
  "bytecode": "0x60c06040526001805463ffffffff191690553480156200001e57600080fd5b50604051620032bf380380620032bf833981016040819052620000419162000ad9565b838160008211620000995760405162461bcd60e51b815260206004820181905260248201527f5f6c6576656c732073686f756c642062652067726561746572207468616e203060448201526064015b60405180910390fd5b6020821115620000fa5760405162461bcd60e51b815260206004820152602560248201527f5f6c6576656c732073686f756c64206e6f74206265206772656174657220746860448201526430b710199960d91b606482015260840162000090565b60008290556001600160a01b0381166080526200011982600262000d14565b63ffffffff1660a05260005b828110156200015d57620001398162000279565b60008281526002602052604090205580620001548162000d2f565b91505062000125565b5050506200017a62000174620008f860201b60201c565b620008fc565b88516200018f9060079060208c01906200094e565b506009889055600a8790556010839055600b8490558551620001b990600d9060208901906200094e565b50600880546001600160a01b0319166001600160a01b038c161790558451620001ea90600c9060208801906200094e565b5060118410620002495760405162461bcd60e51b8152602060048201526024808201527f7469636b657420737570706c792073686f756c64206265206c657373207468616044820152633710189b60e11b606482015260840162000090565b50600680546001600160a01b0319166001600160a01b03929092169190911790555062000d879650505050505050565b600081600003620002ab57507f9aa38f7ea48808686649fa7880b9399d9e535a0a95a359acf706c433259205a5919050565b81600103620002db57507f2c29b53ae2a7e149da1910c2b1c9a78f003db2bd5520f50ce8c74bdcdb568012919050565b816002036200030b57507f0a4b737194779f9b1d0b8442e12967e17efaa0da5da8e5392f4b06dfaa24ee0a919050565b816003036200033b57507f17a15d9ebc5471bbaefd7e16a461f7c6fd079e5a5aacaf8509784a1993c14756919050565b816004036200036b57507f2b5d98f30dd5369771a77e039bdd9d996922ac099439950ef6406fd2aabc9c57919050565b816005036200039b57507f0d59bdeb4a9fc11991f6830096928757e2adf7335afe03f399f3bdfa43ccb380919050565b81600603620003cb57507f2e40730cf574ab677beddcae49bbfd7ae30dc22fbac0e3d6b70e1981f817f0d2919050565b81600703620003fa57507ed8d77c1fbf6f21c7d1f159e06569e3c5c1042e9a6925cf2ad0b1007ccccd89919050565b816008036200042a57507f2cbf870c4e6a2ddb731f85eadcaaaa02930a0555b098f327b01b090fc02a13dc919050565b816009036200045a57507f2770813b76848f0d85832877d7964451059aedf7708e94ace835a41c5c5c3032919050565b81600a036200048a57507f1b38a24ed681bab435fd89fcd6a2c33979dfbd218a191b5a01e25bcb7b64a180919050565b81600b03620004ba57507f2ebd6f1f05c73f3cf702a8a2785f9fe1efabca48231e1802abd6082b3eb25ada919050565b81600c03620004ea57507f2946bbd452c25d6be385a02c5c927ef6a53b38df11881dde66d1456780f426a2919050565b81600d036200051a57507f2947dbd4f961187b14843603c3e9d5ab714cb152e4e32ffc217c25a1317c004d919050565b81600e036200054a57507f2293fdc6cb52ee2d0924f1162a01bb6d9d4c8e4f79df10783ca5db324cde350c919050565b81600f036200057a57507f1cdb4e135280f46adfd41ca0446ca39e4c98a473eceb23dfae87e34375d7376c919050565b81601003620005aa57507f18ce6e88feb516cc12f16134f831a3bc8bb2327e7d9217672acfb9e998c66620919050565b81601103620005da57507f196c9160fa69c6e80c102f080a77516efc9b1c80efbd43a05c92d4a052ec5d04919050565b816012036200060a57507f0d3b32f031ce74a359b30a566a8b2f4a0bcd12062a73dd7dc98987e284e9b174919050565b816013036200063a57507f29937bf28bbad002267775c58ec5a25517a47d5e984051befc6adca6bf6077af919050565b816014036200066a57507f16fbcfecac3a8080879dfd5d8e5396cfd45318d6b6365422d248a80d4709dfd3919050565b816015036200069a57507f2ba87097790da4a18c2a648daf6a914dc40a77027e4f4d006b86689745f1f904919050565b81601603620006ca57507f1589f8abfbdc2b1c2f37ed59fec56ea1abf13ed4c35e19dab00ab6f06d5f5f94919050565b81601703620006fa57507f13245464d7bb21db64edc07abf62aba1aff095c5cb7d82eff1064174940c03aa919050565b816018036200072a57507f1a5bf36afaf568ba9574f0ec3c123d517d75df791ce8b5b613695f920fb3c526919050565b816019036200075a57507f23a071ff50383563ee5a0fda1c94b695f38555523ba98d8d6bdb601fdc0f1ad2919050565b81601a036200078a57507f1e251c6adf83e1f386ae2680c758793d43f7567a61ef1cd8ad4281eac303e6ba919050565b81601b03620007ba57507f1da0cd96dea8bf9eb38b9dd35178ae22fa2aad2980d4daedf71945c2b48c82bf919050565b81601c03620007ea57507f1d5f2f09d80a285e49e77e785802bb2f67bafca2e2a97fc1eab680437efc938f919050565b81601d036200081a57507f108d602bea7929a7708f0e5622f9a08575f3be7becf0afb4bc03f90b4ed8f945919050565b81601e036200084a57507f300d01d67029ba619a9e9ef07f256bc7001f41305cbbeeb759222123761d3be5919050565b81601f036200087a57507f1a8a6c4eefd81a332654811be806161e3b3b50219a14d2d36ecd8b213a3455da919050565b81602003620008aa57507f1865f912dd1273fb75972d72cca10055c6e3b529e36aa8c8ef67698a42727dfe919050565b60405162461bcd60e51b815260206004820152601360248201527f496e646578206f7574206f6620626f756e647300000000000000000000000000604482015260640162000090565b919050565b3390565b600580546001600160a01b038381166001600160a01b0319831681179093556040519116919082907f8be0079c531659141344cd1fd0a4f28419497f9722a3daafe3b4186f6b6457e090600090a35050565b8280546200095c9062000d4b565b90600052602060002090601f016020900481019282620009805760008555620009cb565b82601f106200099b57805160ff1916838001178555620009cb565b82800160010185558215620009cb579182015b82811115620009cb578251825591602001919060010190620009ae565b50620009d9929150620009dd565b5090565b5b80821115620009d95760008155600101620009de565b80516001600160a01b0381168114620008f357600080fd5b634e487b7160e01b600052604160045260246000fd5b600082601f83011262000a3457600080fd5b81516001600160401b038082111562000a515762000a5162000a0c565b604051601f8301601f19908116603f0116810190828211818310171562000a7c5762000a7c62000a0c565b8160405283815260209250868385880101111562000a9957600080fd5b600091505b8382101562000abd578582018301518183018401529082019062000a9e565b8382111562000acf5760008385830101525b9695505050505050565b6000806000806000806000806000806101408b8d03121562000afa57600080fd5b62000b058b620009f4565b60208c0151909a506001600160401b038082111562000b2357600080fd5b62000b318e838f0162000a22565b9a5060408d0151995060608d0151985060808d015191508082111562000b5657600080fd5b62000b648e838f0162000a22565b975060a08d015191508082111562000b7b57600080fd5b5062000b8a8d828e0162000a22565b95505060c08b0151935060e08b0151925062000baa6101008c01620009f4565b915062000bbb6101208c01620009f4565b90509295989b9194979a5092959850565b634e487b7160e01b600052601160045260246000fd5b600181815b8085111562000c25578163ffffffff0482111562000c095762000c0962000bcc565b8085161562000c1757918102915b93841c939080029062000be7565b509250929050565b60008262000c3e5750600162000d0e565b8162000c4d5750600062000d0e565b816001811462000c66576002811462000c715762000ca9565b600191505062000d0e565b60ff84111562000c855762000c8562000bcc565b6001841b915063ffffffff82111562000ca25762000ca262000bcc565b5062000d0e565b5060208310610133831016604e8410600b841016171562000ce5575081810a63ffffffff81111562000cdf5762000cdf62000bcc565b62000d0e565b62000cf1838362000be2565b8063ffffffff0482111562000d0a5762000d0a62000bcc565b0290505b92915050565b600062000d288363ffffffff841662000c2d565b9392505050565b60006001820162000d445762000d4462000bcc565b5060010190565b600181811c9082168062000d6057607f821691505b60208210810362000d8157634e487b7160e01b600052602260045260246000fd5b50919050565b60805160a05161250462000dbb600039600081816103c70152610fe00152600081816107ef01526111a001526125046000f3fe6080604052600436106102dc5760003560e01c8063715018a611610184578063c2b40ae4116100d6578063ec7329591161008a578063f667e0aa11610064578063f667e0aa14610831578063fb6c953714610864578063ff7e2be91461087957600080fd5b8063ec732959146107a9578063ed33639f146107dd578063f2fde38b1461081157600080fd5b8063cd87a3b4116100bb578063cd87a3b414610754578063d455a79d14610769578063e82955881461078957600080fd5b8063c2b40ae414610707578063cd0d20f51461073457600080fd5b80638da5cb5b11610138578063a89df8ad11610112578063a89df8ad146106bc578063ad2b3037146106dc578063c24a0f8b146106f157600080fd5b80638da5cb5b1461067e57806390b5561d1461069c5780639f3f89dc1461062157600080fd5b806372f653491161016957806372f653491461062157806373219f611461065457806385ea827c1461066957600080fd5b8063715018a6146105f75780637284e4161461060c57600080fd5b8063414a37ba1161023d57806351605d80116101f15780635e8114dd116101cb5780635e8114dd14610570578063663ea2e21461059d5780636686d357146105d557600080fd5b806351605d8014610516578063516f279e1461052b5780635a129efe1461054057600080fd5b806349ce89971161022257806349ce8997146104ae5780634ecf518b146104de578063500f4fe3146104f457600080fd5b8063414a37ba1461046457806348a0d7541461049857600080fd5b80631f79a1e9116102945780632986c0e5116102795780632986c0e5146103fe5780632cdabbce1461041b57806336afc6fa1461043b57600080fd5b80631f79a1e9146103855780632565b159146103b557600080fd5b80630fdc05a6116102c55780630fdc05a61461033a5780631209b1f61461034f5780631e8e1e131461036557600080fd5b80630111b83a146102e15780630b97bc8614610316575b600080fd5b3480156102ed57600080fd5b506103016102fc366004611f52565b6108b5565b60405190151581526020015b60405180910390f35b34801561032257600080fd5b5061032c60095481565b60405190815260200161030d565b61034d610348366004612021565b61091b565b005b34801561035b57600080fd5b5061032c60105481565b34801561037157600080fd5b50610301610380366004611f52565b610b9f565b34801561039157600080fd5b506103016103a036600461204b565b60136020526000908152604090205460ff1681565b3480156103c157600080fd5b506103e97f000000000000000000000000000000000000000000000000000000000000000081565b60405163ffffffff909116815260200161030d565b34801561040a57600080fd5b506001546103e99063ffffffff1681565b34801561042757600080fd5b5061030161043636600461204b565b610c33565b34801561044757600080fd5b50610450610cab565b60405161030d9897969594939291906120c0565b34801561047057600080fd5b5061032c7f30644e72e131a029b85045b68181585d2833e84879b9709143e1f593f000000181565b3480156104a457600080fd5b5061032c600b5481565b3480156104ba57600080fd5b506103016104c936600461204b565b60146020526000908152604090205460ff1681565b3480156104ea57600080fd5b5061032c60005481565b34801561050057600080fd5b50610509610e9e565b60405161030d919061212f565b34801561052257600080fd5b50610509610f2c565b34801561053757600080fd5b50610509610f39565b34801561054c57600080fd5b5061030161055b36600461204b565b60009081526013602052604090205460ff1690565b34801561057c57600080fd5b5061032c61058b36600461204b565b60026020526000908152604090205481565b3480156105a957600080fd5b506006546105bd906001600160a01b031681565b6040516001600160a01b03909116815260200161030d565b3480156105e157600080fd5b506105ea610f46565b60405161030d919061217d565b34801561060357600080fd5b5061034d610f55565b34801561061857600080fd5b50610509610fbb565b34801561062d57600080fd5b507f9aa38f7ea48808686649fa7880b9399d9e535a0a95a359acf706c433259205a561032c565b34801561066057600080fd5b50600b5461032c565b34801561067557600080fd5b5061032c610fc8565b34801561068a57600080fd5b506005546001600160a01b03166105bd565b3480156106a857600080fd5b506103e96106b736600461204b565b610fd3565b3480156106c857600080fd5b506008546105bd906001600160a01b031681565b3480156106e857600080fd5b506105ea6112b6565b3480156106fd57600080fd5b5061032c600a5481565b34801561071357600080fd5b5061032c61072236600461204b565b60036020526000908152604090205481565b34801561074057600080fd5b506012546105bd906001600160a01b031681565b34801561076057600080fd5b5061032c606481565b34801561077557600080fd5b5061032c61078436600461204b565b61130e565b34801561079557600080fd5b5061032c6107a436600461204b565b61132f565b3480156107b557600080fd5b5061032c7f9aa38f7ea48808686649fa7880b9399d9e535a0a95a359acf706c433259205a581565b3480156107e957600080fd5b506105bd7f000000000000000000000000000000000000000000000000000000000000000081565b34801561081d57600080fd5b5061034d61082c366004612190565b61198c565b34801561083d57600080fd5b506103e961084c366004612190565b60156020526000908152604090205463ffffffff1681565b34801561087057600080fd5b5061034d611a6e565b34801561088557600080fd5b506103e9610894366004612190565b6001600160a01b031660009081526015602052604090205463ffffffff1690565b60006108c18383610b9f565b6109125760405162461bcd60e51b815260206004820152601360248201527f5665726966792070726f6f66206661696c65640000000000000000000000000060448201526064015b60405180910390fd5b50600192915050565b6011600b54106109935760405162461bcd60e51b815260206004820152602760248201527f6e6f7420656e6f756768207469636b6574207175616e7469747920617661696c60448201527f61626c65212121000000000000000000000000000000000000000000000000006064820152608401610909565b6109a06010546000611ad7565b3410156109ef5760405162461bcd60e51b815260206004820152601560248201527f6e6f7420656e6f756768206d6f6e65792073656e7400000000000000000000006044820152606401610909565b60008181526014602052604090205460ff1615610a745760405162461bcd60e51b815260206004820152602160248201527f54686520636f6d6d69746d656e7420686173206265656e207375626d6974746560448201527f64000000000000000000000000000000000000000000000000000000000000006064820152608401610909565b6000606081610a8233611ae3565b9050610a8d60115490565b9250600081610a9b85611b5b565b86604051602001610aae939291906121ab565b6040516020818303038152906040528051906020012060001c90506000610ad486610fd3565b6000878152601460209081526040808320805460ff191660011790556001600160a01b038b16835260159091529020805463ffffffff831663ffffffff199091161790559050610b28601180546001019055565b600b8054906000610b388361229a565b90915550506040805133815242602082015263ffffffff831681830152606081018490526080810187905260a0810188905290517fd86e9eb4cb0cce904726b45ee7d327e36ae1de0fe26f1d1131b25a9af23177789181900360c00190a150505050505050565b6006546040517f1e8e1e130000000000000000000000000000000000000000000000000000000081526000916001600160a01b031690631e8e1e1390610beb90869086906004016122b1565b602060405180830381865afa158015610c08573d6000803e3d6000fd5b505050506040513d601f19601f82011682018060405250810190610c2c91906122df565b9392505050565b600081600003610c4557506000919050565b600154600090610c5d9060649063ffffffff16612317565b9050805b600081815260036020526040902054849003610c81575060019392505050565b80600003610c8d575060645b80610c978161229a565b915050818103610c61575060009392505050565b60006060600080606080600080600860009054906101000a90046001600160a01b03166007600954600a54600d600c601054600b54868054610cec9061232b565b80601f0160208091040260200160405190810160405280929190818152602001828054610d189061232b565b8015610d655780601f10610d3a57610100808354040283529160200191610d65565b820191906000526020600020905b815481529060010190602001808311610d4857829003601f168201915b50505050509650838054610d789061232b565b80601f0160208091040260200160405190810160405280929190818152602001828054610da49061232b565b8015610df15780601f10610dc657610100808354040283529160200191610df1565b820191906000526020600020905b815481529060010190602001808311610dd457829003601f168201915b50505050509350828054610e049061232b565b80601f0160208091040260200160405190810160405280929190818152602001828054610e309061232b565b8015610e7d5780601f10610e5257610100808354040283529160200191610e7d565b820191906000526020600020905b815481529060010190602001808311610e6057829003601f168201915b50505050509250975097509750975097509750975097509091929394959697565b60078054610eab9061232b565b80601f0160208091040260200160405190810160405280929190818152602001828054610ed79061232b565b8015610f245780601f10610ef957610100808354040283529160200191610f24565b820191906000526020600020905b815481529060010190602001808311610f0757829003601f168201915b505050505081565b600e8054610eab9061232b565b600c8054610eab9061232b565b6060610f506112b6565b905090565b6005546001600160a01b03163314610faf5760405162461bcd60e51b815260206004820181905260248201527f4f776e61626c653a2063616c6c6572206973206e6f7420746865206f776e65726044820152606401610909565b610fb96000611c5c565b565b600d8054610eab9061232b565b6000610f5060115490565b60015460009063ffffffff7f000000000000000000000000000000000000000000000000000000000000000081169116036110505760405162461bcd60e51b815260206004820152601360248201527f4d65726b6c6520747265652069732066756c6c000000000000000000000000006044820152606401610909565b7f30644e72e131a029b85045b68181585d2833e84879b9709143e1f593f000000182106110bf5760405162461bcd60e51b815260206004820152601c60248201527f6c6561662067726561746572207468616e204649454c445f53495a45000000006044820152606401610909565b600480546001818101835560009283527f8a35acfbc15ff81a39ae7d344fd709f28e8600b4aa8c65c6b64bfe7fe36bd19b9091018490555463ffffffff1690839080805b60005481101561123657611118600286612365565b63ffffffff16600003611149578392506111318161132f565b6000828152600260205260409020859055915061115e565b60008181526002602052604090205492508391505b6040805180820182528481526020810184905290517f29a5f2f60000000000000000000000000000000000000000000000000000000081526001600160a01b037f000000000000000000000000000000000000000000000000000000000000000016916329a5f2f6916111d49190600401612388565b602060405180830381865afa1580156111f1573d6000803e3d6000fd5b505050506040513d601f19601f8201168201806040525081019061121591906123b9565b93506112226002866123d2565b94508061122e816123f5565b915050611103565b5060015483906003906000906112549060649063ffffffff16612317565b815260208101919091526040016000908120919091556001805463ffffffff169161127e8361240e565b82546101009290920a63ffffffff818102199093169183160217909155600180546112ac9350909116612431565b9695505050505050565b6060600480548060200260200160405190810160405280929190818152602001828054801561130457602002820191906000526020600020905b8154815260200190600101908083116112f0575b5050505050905090565b6004818154811061131e57600080fd5b600091825260209091200154905081565b60008160000361136057507f9aa38f7ea48808686649fa7880b9399d9e535a0a95a359acf706c433259205a5919050565b8160010361138f57507f2c29b53ae2a7e149da1910c2b1c9a78f003db2bd5520f50ce8c74bdcdb568012919050565b816002036113be57507f0a4b737194779f9b1d0b8442e12967e17efaa0da5da8e5392f4b06dfaa24ee0a919050565b816003036113ed57507f17a15d9ebc5471bbaefd7e16a461f7c6fd079e5a5aacaf8509784a1993c14756919050565b8160040361141c57507f2b5d98f30dd5369771a77e039bdd9d996922ac099439950ef6406fd2aabc9c57919050565b8160050361144b57507f0d59bdeb4a9fc11991f6830096928757e2adf7335afe03f399f3bdfa43ccb380919050565b8160060361147a57507f2e40730cf574ab677beddcae49bbfd7ae30dc22fbac0e3d6b70e1981f817f0d2919050565b816007036114a857507ed8d77c1fbf6f21c7d1f159e06569e3c5c1042e9a6925cf2ad0b1007ccccd89919050565b816008036114d757507f2cbf870c4e6a2ddb731f85eadcaaaa02930a0555b098f327b01b090fc02a13dc919050565b8160090361150657507f2770813b76848f0d85832877d7964451059aedf7708e94ace835a41c5c5c3032919050565b81600a0361153557507f1b38a24ed681bab435fd89fcd6a2c33979dfbd218a191b5a01e25bcb7b64a180919050565b81600b0361156457507f2ebd6f1f05c73f3cf702a8a2785f9fe1efabca48231e1802abd6082b3eb25ada919050565b81600c0361159357507f2946bbd452c25d6be385a02c5c927ef6a53b38df11881dde66d1456780f426a2919050565b81600d036115c257507f2947dbd4f961187b14843603c3e9d5ab714cb152e4e32ffc217c25a1317c004d919050565b81600e036115f157507f2293fdc6cb52ee2d0924f1162a01bb6d9d4c8e4f79df10783ca5db324cde350c919050565b81600f0361162057507f1cdb4e135280f46adfd41ca0446ca39e4c98a473eceb23dfae87e34375d7376c919050565b8160100361164f57507f18ce6e88feb516cc12f16134f831a3bc8bb2327e7d9217672acfb9e998c66620919050565b8160110361167e57507f196c9160fa69c6e80c102f080a77516efc9b1c80efbd43a05c92d4a052ec5d04919050565b816012036116ad57507f0d3b32f031ce74a359b30a566a8b2f4a0bcd12062a73dd7dc98987e284e9b174919050565b816013036116dc57507f29937bf28bbad002267775c58ec5a25517a47d5e984051befc6adca6bf6077af919050565b8160140361170b57507f16fbcfecac3a8080879dfd5d8e5396cfd45318d6b6365422d248a80d4709dfd3919050565b8160150361173a57507f2ba87097790da4a18c2a648daf6a914dc40a77027e4f4d006b86689745f1f904919050565b8160160361176957507f1589f8abfbdc2b1c2f37ed59fec56ea1abf13ed4c35e19dab00ab6f06d5f5f94919050565b8160170361179857507f13245464d7bb21db64edc07abf62aba1aff095c5cb7d82eff1064174940c03aa919050565b816018036117c757507f1a5bf36afaf568ba9574f0ec3c123d517d75df791ce8b5b613695f920fb3c526919050565b816019036117f657507f23a071ff50383563ee5a0fda1c94b695f38555523ba98d8d6bdb601fdc0f1ad2919050565b81601a0361182557507f1e251c6adf83e1f386ae2680c758793d43f7567a61ef1cd8ad4281eac303e6ba919050565b81601b0361185457507f1da0cd96dea8bf9eb38b9dd35178ae22fa2aad2980d4daedf71945c2b48c82bf919050565b81601c0361188357507f1d5f2f09d80a285e49e77e785802bb2f67bafca2e2a97fc1eab680437efc938f919050565b81601d036118b257507f108d602bea7929a7708f0e5622f9a08575f3be7becf0afb4bc03f90b4ed8f945919050565b81601e036118e157507f300d01d67029ba619a9e9ef07f256bc7001f41305cbbeeb759222123761d3be5919050565b81601f0361191057507f1a8a6c4eefd81a332654811be806161e3b3b50219a14d2d36ecd8b213a3455da919050565b8160200361193f57507f1865f912dd1273fb75972d72cca10055c6e3b529e36aa8c8ef67698a42727dfe919050565b60405162461bcd60e51b815260206004820152601360248201527f496e646578206f7574206f6620626f756e6473000000000000000000000000006044820152606401610909565b919050565b6005546001600160a01b031633146119e65760405162461bcd60e51b815260206004820181905260248201527f4f776e61626c653a2063616c6c6572206973206e6f7420746865206f776e65726044820152606401610909565b6001600160a01b038116611a625760405162461bcd60e51b815260206004820152602660248201527f4f776e61626c653a206e6577206f776e657220697320746865207a65726f206160448201527f64647265737300000000000000000000000000000000000000000000000000006064820152608401610909565b611a6b81611c5c565b50565b6005546001600160a01b03163314611ac85760405162461bcd60e51b815260206004820181905260248201527f4f776e61626c653a2063616c6c6572206973206e6f7420746865206f776e65726044820152606401610909565b600f805460ff19166001179055565b6000610c2c8284612456565b606081600003611b2657505060408051808201909152600481527f3078303000000000000000000000000000000000000000000000000000000000602082015290565b8160005b8115611b495780611b3a816123f5565b915050600882901c9150611b2a565b611b538482611cc6565b949350505050565b606081600003611b825750506040805180820190915260018152600360fc1b602082015290565b8160005b8115611bac5780611b96816123f5565b9150611ba59050600a83612475565b9150611b86565b60008167ffffffffffffffff811115611bc757611bc7611e8b565b6040519080825280601f01601f191660200182016040528015611bf1576020820181803683370190505b5090505b8415611b5357611c06600183612489565b9150611c13600a86612317565b611c1e9060306124a0565b60f81b818381518110611c3357611c336124b8565b60200101906001600160f81b031916908160001a905350611c55600a86612475565b9450611bf5565b600580546001600160a01b038381167fffffffffffffffffffffffff0000000000000000000000000000000000000000831681179093556040519116919082907f8be0079c531659141344cd1fd0a4f28419497f9722a3daafe3b4186f6b6457e090600090a35050565b60606000611cd5836002612456565b611ce09060026124a0565b67ffffffffffffffff811115611cf857611cf8611e8b565b6040519080825280601f01601f191660200182016040528015611d22576020820181803683370190505b509050600360fc1b81600081518110611d3d57611d3d6124b8565b60200101906001600160f81b031916908160001a9053507f780000000000000000000000000000000000000000000000000000000000000081600181518110611d8857611d886124b8565b60200101906001600160f81b031916908160001a9053506000611dac846002612456565b611db79060016124a0565b90505b6001811115611e3c577f303132333435363738396162636465660000000000000000000000000000000085600f1660108110611df857611df86124b8565b1a60f81b828281518110611e0e57611e0e6124b8565b60200101906001600160f81b031916908160001a90535060049490941c93611e358161229a565b9050611dba565b508315610c2c5760405162461bcd60e51b815260206004820181905260248201527f537472696e67733a20686578206c656e67746820696e73756666696369656e746044820152606401610909565b634e487b7160e01b600052604160045260246000fd5b604051601f8201601f1916810167ffffffffffffffff81118282101715611eca57611eca611e8b565b604052919050565b600082601f830112611ee357600080fd5b8135602067ffffffffffffffff821115611eff57611eff611e8b565b8160051b611f0e828201611ea1565b9283528481018201928281019087851115611f2857600080fd5b83870192505b84831015611f4757823582529183019190830190611f2e565b979650505050505050565b60008060408385031215611f6557600080fd5b823567ffffffffffffffff80821115611f7d57600080fd5b818501915085601f830112611f9157600080fd5b8135602082821115611fa557611fa5611e8b565b611fb7601f8301601f19168201611ea1565b8281528882848701011115611fcb57600080fd5b82828601838301376000928101820192909252909450850135915080821115611ff357600080fd5b5061200085828601611ed2565b9150509250929050565b80356001600160a01b038116811461198757600080fd5b6000806040838503121561203457600080fd5b61203d8361200a565b946020939093013593505050565b60006020828403121561205d57600080fd5b5035919050565b60005b8381101561207f578181015183820152602001612067565b8381111561208e576000848401525b50505050565b600081518084526120ac816020860160208601612064565b601f01601f19169290920160200192915050565b60006101006001600160a01b038b1683528060208401526120e38184018b612094565b905088604084015287606084015282810360808401526121038188612094565b905082810360a08401526121178187612094565b60c0840195909552505060e001529695505050505050565b602081526000610c2c6020830184612094565b600081518084526020808501945080840160005b8381101561217257815187529582019590820190600101612156565b509495945050505050565b602081526000610c2c6020830184612142565b6000602082840312156121a257600080fd5b610c2c8261200a565b7f2272656365697665722061646472657373223a202200000000000000000000008152600084516121e3816015850160208901612064565b7f222c2022746f6b656e4964223a202200000000000000000000000000000000006015918401918201528451612220816024840160208901612064565b7f222c2022636f6d6d69746d656e74223a2022000000000000000000000000000060249290910191820152603681019390935250507f227d000000000000000000000000000000000000000000000000000000000000605682015260580192915050565b634e487b7160e01b600052601160045260246000fd5b6000816122a9576122a9612284565b506000190190565b6040815260006122c46040830185612094565b82810360208401526122d68185612142565b95945050505050565b6000602082840312156122f157600080fd5b81518015158114610c2c57600080fd5b634e487b7160e01b600052601260045260246000fd5b60008261232657612326612301565b500690565b600181811c9082168061233f57607f821691505b60208210810361235f57634e487b7160e01b600052602260045260246000fd5b50919050565b600063ffffffff8084168061237c5761237c612301565b92169190910692915050565b60408101818360005b60028110156123b0578151835260209283019290910190600101612391565b50505092915050565b6000602082840312156123cb57600080fd5b5051919050565b600063ffffffff808416806123e9576123e9612301565b92169190910492915050565b60006001820161240757612407612284565b5060010190565b600063ffffffff80831681810361242757612427612284565b6001019392505050565b600063ffffffff8381169083168181101561244e5761244e612284565b039392505050565b600081600019048311821515161561247057612470612284565b500290565b60008261248457612484612301565b500490565b60008282101561249b5761249b612284565b500390565b600082198211156124b3576124b3612284565b500190565b634e487b7160e01b600052603260045260246000fdfea26469706673582212200dffb25297345a71324a79634a188b24514755a2f9b3e29f15e27657aa2cbae664736f6c634300080d0033",
  "linkReferences": {},
  "deployedLinkReferences": {}
}