{
  "_format": "hh-sol-artifact-1",
  "contractName": "PlonkVerifier",
  "sourceName": "contracts/verifier.sol",
  "abi": [
    {
      "inputs": [
        {
          "internalType": "bytes",
          "name": "proof",
          "type": "bytes"
        },
        {
          "internalType": "uint256[]",
          "name": "pubSignals",
          "type": "uint256[]"
        }
      ],
      "name": "verifyProof",
      "outputs": [
        {
          "internalType": "bool",
          "name": "",
          "type": "bool"
        }
      ],
      "stateMutability": "view",
      "type": "function"
    }
  ],
  "bytecode": "0x608060405234801561001057600080fd5b50612250806100206000396000f3fe608060405234801561001057600080fd5b506004361061002b5760003560e01c80631e8e1e1314610030575b600080fd5b61004361003e3660046120cb565b610057565b604051901515815260200160405180910390f35b6000611fdb565b600080600184846000805b821561008b575092938183058581029091039350909181830290039081610069565b505050600181111561009c57600080fd5b505060008112156100aa5783015b9392505050565b60405181602084028301815160208301925060005b828410156100f7578185526000805160206121db8339815191528451830991506020850194506020840193506100c6565b61010f6000805160206121db8339815191528361005e565b91506020850394506020840393508592505b82841115610166576000805160206121db8339815191528551830990506000805160206121db83398151915284518309818552601f1995860195909401939150610121565b5090915250505050565b6000805160206121db833981519152811061018f576000805260206000f35b50565b6103208151146101a6576000805260206000f35b6101b4610260820151610170565b6101c2610280820151610170565b6101d06102a0820151610170565b6101de6102c0820151610170565b6101ec6102e0820151610170565b6101fa610300820151610170565b61018f610320820151610170565b60008060208501516104c085015260408501516104e08501526060850151610500850152608085015161052085015260a085015161054085015260c085015161056085015260e08501516105808501526101008501516105a08501526101208501516105c08501526101408501516105e08501526101608501516106008501526101808501516106208501526101a08501516106408501526101c08501516106608501526101e08501516106808501526102008501516106a08501526102208501516106c085015260208301516106e08501526020800183015161070085015260406020018301516107208501526060602001830151610740850152608060200183015161076085015260a06020018301516107808501526000805160206121db8339815191526102e06104c08601200690508060208501526000805160206121db8339815191526020808601200660408501526000805160206121db833981519152604060e08501200660008501526000805160206121db83398151915260c06101208501200691508160608501526000805160206121db83398151915282820960a0850152506000805160206121db83398151915281820990506000805160206121db83398151915281820990506000805160206121db83398151915281820990506000805160206121db83398151915281820990506000805160206121db83398151915281820990506000805160206121db83398151915281820990506000805160206121db83398151915281820990506000805160206121db83398151915281820990506000805160206121db83398151915281820990506000805160206121db83398151915281820990506000805160206121db83398151915281820990506000805160206121db83398151915281820990506000805160206121db83398151915281820990506000805160206121db83398151915281820990506000805160206121db83398151915281820990506000805160206121db83398151915281820990508060808401526000805160206121db83398151915280600183030106905080610260840152806102808401526000805160206121db83398151915260e0610260840120068060c08501526000805160206121db83398151915281820991508160e08501526000805160206121db8339815191528183099150816101008501526000805160206121db8339815191528183099150816101208501526000805160206121db8339815191528183099150816101408501526000805160206121db833981519152818309610160850152505060806101e091909101206000805160206121db83398151915290066101809091015250565b60016000805160206121db833981519152806000805160206121db83398151915283606086015103010662010000096102a08301526000805160206121db8339815191526000805160206121fb833981519152820990506000805160206121db833981519152806000805160206121db83398151915283606086015103010662010000096102c08301526000805160206121db8339815191526000805160206121fb833981519152820990506000805160206121db833981519152806000805160206121db83398151915283606086015103010662010000096102e08301526000805160206121db8339815191526000805160206121fb833981519152820990506000805160206121db833981519152806000805160206121db83398151915283606086015103010662010000096103008301526000805160206121db8339815191526000805160206121fb833981519152820990506000805160206121db833981519152806000805160206121db83398151915283606086015103010662010000096103208301526000805160206121db8339815191526000805160206121fb833981519152820990506000805160206121db833981519152806000805160206121db83398151915283606086015103010662010000096103408301526000805160206121db8339815191526000805160206121fb833981519152820990506000805160206121db833981519152806000805160206121db83398151915283606086015103010662010000096103608301526000805160206121db8339815191526000805160206121fb833981519152820990506000805160206121db833981519152806000805160206121db83398151915283606086015103010662010000096103808301526000805160206121db8339815191526000805160206121fb833981519152820990506000805160206121db833981519152806000805160206121db83398151915283606086015103010662010000096103a08301526000805160206121db8339815191526000805160206121fb833981519152820990506000805160206121db833981519152806000805160206121db83398151915283606086015103010662010000096103c08301526000805160206121db8339815191526000805160206121fb833981519152820990506000805160206121db833981519152806000805160206121db83398151915283606086015103010662010000096103e08301526000805160206121db8339815191526000805160206121fb833981519152820990506000805160206121db833981519152806000805160206121db83398151915283606086015103010662010000096104008301526000805160206121db8339815191526000805160206121fb833981519152820990506000805160206121db833981519152806000805160206121db83398151915283606086015103010662010000096104208301526000805160206121db8339815191526000805160206121fb833981519152820990506000805160206121db833981519152806000805160206121db83398151915283606086015103010662010000096104408301526000805160206121db8339815191526000805160206121fb833981519152820990506000805160206121db833981519152806000805160206121db83398151915283606086015103010662010000096104608301526000805160206121db8339815191526000805160206121fb833981519152820990506000805160206121db833981519152806000805160206121db83398151915283606086015103010662010000096104808301526000805160206121db8339815191526000805160206121fb833981519152820990506000805160206121db833981519152806000805160206121db83398151915283606086015103010662010000096104a0830152610b78601261028084016100b1565b610260820151600191506000805160206121db833981519152816102a0850151096102a08401526000805160206121db8339815191526000805160206121fb833981519152830991506000805160206121db83398151915280826102c08601510983096102c08401526000805160206121db8339815191526000805160206121fb833981519152830991506000805160206121db83398151915280826102e08601510983096102e08401526000805160206121db8339815191526000805160206121fb833981519152830991506000805160206121db83398151915280826103008601510983096103008401526000805160206121db8339815191526000805160206121fb833981519152830991506000805160206121db83398151915280826103208601510983096103208401526000805160206121db8339815191526000805160206121fb833981519152830991506000805160206121db83398151915280826103408601510983096103408401526000805160206121db8339815191526000805160206121fb833981519152830991506000805160206121db83398151915280826103608601510983096103608401526000805160206121db8339815191526000805160206121fb833981519152830991506000805160206121db83398151915280826103808601510983096103808401526000805160206121db8339815191526000805160206121fb833981519152830991506000805160206121db83398151915280826103a08601510983096103a08401526000805160206121db8339815191526000805160206121fb833981519152830991506000805160206121db83398151915280826103c08601510983096103c08401526000805160206121db8339815191526000805160206121fb833981519152830991506000805160206121db83398151915280826103e08601510983096103e08401526000805160206121db8339815191526000805160206121fb833981519152830991506000805160206121db83398151915280826104008601510983096104008401526000805160206121db8339815191526000805160206121fb833981519152830991506000805160206121db83398151915280826104208601510983096104208401526000805160206121db8339815191526000805160206121fb833981519152830991506000805160206121db83398151915280826104408601510983096104408401526000805160206121db8339815191526000805160206121fb833981519152830991506000805160206121db83398151915280826104608601510983096104608401526000805160206121db8339815191526000805160206121fb833981519152830991506000805160206121db83398151915280826104808601510983096104808401526000805160206121db8339815191526000805160206121fb833981519152830991506000805160206121db83398151915280826104a08601510983096104a0840152505050565b60006000805160206121db833981519152806000805160206121db83398151915260208601516102a0860151098303010690506000805160206121db833981519152806000805160206121db83398151915260408601516102c0860151098303010690506000805160206121db833981519152806000805160206121db83398151915260608601516102e0860151098303010690506000805160206121db833981519152806000805160206121db8339815191526080860151610300860151098303010690506000805160206121db833981519152806000805160206121db83398151915260a0860151610320860151098303010690506000805160206121db833981519152806000805160206121db83398151915260c0860151610340860151098303010690506000805160206121db833981519152806000805160206121db83398151915260e0860151610360860151098303010690506000805160206121db833981519152806000805160206121db833981519152610100860151610380860151098303010690506000805160206121db833981519152806000805160206121db8339815191526101208601516103a0860151098303010690506000805160206121db833981519152806000805160206121db8339815191526101408601516103c0860151098303010690506000805160206121db833981519152806000805160206121db8339815191526101608601516103e0860151098303010690506000805160206121db833981519152806000805160206121db833981519152610180860151610400860151098303010690506000805160206121db833981519152806000805160206121db8339815191526101a0860151610420860151098303010690506000805160206121db833981519152806000805160206121db8339815191526101c0860151610440860151098303010690506000805160206121db833981519152806000805160206121db8339815191526101e0860151610460860151098303010690506000805160206121db833981519152806000805160206121db833981519152610200860151610480860151098303010690506000805160206121db833981519152806000805160206121db8339815191526102208601516104a086015109830301069050806101a0830152505050565b60008060006000805160206121db8339815191526101a08601516103208601510892506000805160206121db83398151915260208601516102c08601510991506000805160206121db833981519152610260850151830891506000805160206121db8339815191526040860151830891506000805160206121db83398151915260208601516102e08601510990506000805160206121db833981519152610280850151820890506000805160206121db8339815191526040860151820890506000805160206121db83398151915281830991506000805160206121db83398151915260408601516102a08601510890506000805160206121db83398151915281830991506000805160206121db833981519152610300850151830991506000805160206121db8339815191526000860151830991506000805160206121db83398151915260008601516102a08701510990506000805160206121db8339815191526000860151820990506000805160206121db8339815191528183089150506000805160206121db833981519152816000805160206121db833981519152840103069150506000805160206121db83398151915261028084015182099050806101c0840152505050565b6040518151815260208201516020820152825160408201526020830151606082015260408260808360066107d05a03fa905080611528576000805260206000f35b505050565b6000604051835181526020840151602082015284604082015260408160608360076107d05a03fa915081611565576000805260206000f35b825160408201526020830151606082015260408360808360066107d05a03fa91505080611596576000805260206000f35b50505050565b600060405183815284602082015285604082015260408160608360076107d05a03fa9150816115cf576000805260206000f35b825160408201526020830151606082015260408360808360066107d05a03fa91505080611600576000805260206000f35b5050505050565b600060405183815284602082015285604082015260408360608360076107d05a03fa91505080611600576000805260206000f35b6101e082016116586101e083018281518152602091820151910152565b61152861018084015161022084018361152d565b60008061022084016000805160206121db83398151915260c08601516102608601510992506116dd837f19299f0ae67abc67e064eb6522b2e81de09be73831ff9462085b6211944e28477f286398ca47101b94449b7eb0ab6aac28bc8db45b7d7593417d5ba7c7303fdfb584611607565b6000805160206121db83398151915261028085015184099250611741837f0a583bcf52db47a03616910d8a0304f6486dc80ad3020262f61e89aea9cfd9a37e84408d395c25a4ffdc91d5c33ec3065d752e2e949d1d148176f6374ad3e4318461159c565b6000805160206121db83398151915260c08601516102808601510992506117aa837f1421f9f0bba348547b62ab6d1c03ae0f5c292f44ff294361c694adbf6904b9f57f28c25f58990e5a416542ce09cb0f67f2378d7bd9503c5f2ddf27a3e6635269058461159c565b6000805160206121db83398151915260c08601516102a0860151099250611813837f1d5f7fc253cdb9c5b10a13160eab3ac326cc4a6f3531ef677f0538cf191bcbcb7f274262be3bb1e3bce75bb30136532f40ba02c325992be21bd14b926dc91548518461159c565b60c08501519250611866837f2adc32ebaa242590e236aaa4326bdfd9b8ac15d13ebaca88158cc703fda93c6b7f165763e15fa1d1314ec4b5bfdc9ccb535e2b09bc07a4a0009b601d43392303d48461159c565b6000805160206121db83398151915260a08601516102608601510892506000805160206121db8339815191526040860151840892506000805160206121db83398151915260a086015160020991506000805160206121db833981519152610280850151830891506000805160206121db8339815191526040860151830891506000805160206121db83398151915282840992506000805160206121db83398151915260a086015160030991506000805160206121db8339815191526102a0850151830891506000805160206121db8339815191526040860151830891506000805160206121db83398151915282840992506000805160206121db8339815191526000860151840992506000805160206121db83398151915260c0860151840992506000805160206121db83398151915260008601516102a08701510991506000805160206121db8339815191526000860151830991506000805160206121db83398151915260c0860151830991506000805160206121db83398151915282840892506000805160206121db83398151915261018086015184089250611a0f8360e086018361152d565b6000805160206121db8339815191526102c085015160208701510992506000805160206121db833981519152610260850151840892506000805160206121db8339815191526040860151840892506000805160206121db8339815191526102e085015160208701510991506000805160206121db833981519152610280850151830891506000805160206121db8339815191526040860151830891506000805160206121db83398151915282840992506000805160206121db8339815191526000860151840992506000805160206121db83398151915260c0860151840992506000805160206121db8339815191526020860151840992506000805160206121db83398151915261030085015184096000805160206121db833981519152908103069250611b7f837f254a7dffd9f3d84251b6343f4812a3059f89dbef8dd8fba49228db9ad60afacd7f18cc645085e7a68df03cd7977b0e2b3d2e3453df40f77e13822b33f53907e7328461159c565b611b8d6101208501826114e7565b60808501519250611ba38361016086018361152d565b6000805160206121db8339815191528384099250611bc6836101a086018361152d565b611bd860e0860151602086018361152d565b611beb610100860151606086018361152d565b611bfe61012086015160a086018361152d565b611c4f6101408601517f2985be670097f2d8d58b957c50d64ac984e42302d71f5add8b2b52e80410d9ec7f1615f6e5094effeaafadab602775085a34dd6b0d7a4b56f1efba8d4a16b2abf28461159c565b611ca06101608601517f2fad4eeb9f9bb6a33e2fc08afab2accbc16437c15e9e5f1f4fc820a14ec259397f14f90f3b84ed78d58b7d2c0cda8f1df7b711db9e655a45df85b7c40eb6c5b5c38461159c565b6101c085015192506000805160206121db8339815191528060c087015161032087015109840892506000805160206121db8339815191528060e087015161026087015109840892506000805160206121db8339815191528061010087015161028087015109840892506000805160206121db833981519152806101208701516102a087015109840892506000805160206121db833981519152806101408701516102c087015109840892506000805160206121db833981519152806101608701516102e087015109840892506000805160206121db833981519152806101808701516103008701510984086000805160206121db833981519152908103069250611dae83600260018461159c565b60608501519250611dc4836101e086018361152d565b6000805160206121db83398151915260608601516101808701510992506000805160206121db8339815191526000805160206121fb833981519152840992506116008361022086018361152d565b60006040516101e0830151815260206101e08401015160208201527f223579455556edfb7e6b8ccc134fc423aa9936ef0774b6a808f3e7498c5b446860408201527f16fb578621ad3211c67a3fcaa8edc10fb1f2ae0836dc0eed36634f05b536f61e60608201527f0f008909304c728ba4c31910eb4f168b798bb29f20575a8b53291abd087dc6a160808201527f2ae53d36cbca13624b2858d168bb46301b2ed4a99315fca074e35a872d1947a560a082015261022083015160c08201526020610220840101517f30644e72e131a029b85045b68181585d97816a916871ca8d3c208c16d87cfd47817f30644e72e131a029b85045b68181585d97816a916871ca8d3c208c16d87cfd47030690508060e0830152507f198e9393920d483a7260bfb731fb5d25f1aa493335a9e71297e485b7aef312c26101008201527f1800deef121f1e76426a00665e5c4479674322d4f75edadd46debd5cd992f6ed6101208201527f090689d0585ff075ec9e99ad690c3395bc4b313370b38ef355acdadcd122975b6101408201527f12c85ea5db8c6deb4aab71808dcb408fe3d1e7690c43d37b4ce6cc0166fa7daa6101608201526020816101808360086107d05a03fa90511692915050565b6040516104c08101604052611fef84610192565b611ffa838286610208565b612003816105e4565b61200d8382610fc4565b612017818561131d565b612021818561163b565b61202b818561166c565b61203481611e12565b6104c0820360405280600052505060206000f35b600082601f830112612058578081fd5b8135602067ffffffffffffffff821115612074576120746121ab565b8160051b61208382820161217a565b83815282810190868401838801850189101561209d578687fd5b8693505b858410156120bf5780358352600193909301929184019184016120a1565b50979650505050505050565b600080604083850312156120dd578182fd5b823567ffffffffffffffff808211156120f4578384fd5b818501915085601f830112612107578384fd5b813560208282111561211b5761211b6121ab565b61212d601f8301601f1916820161217a565b8281528882848701011115612140578687fd5b828286018383013791820181019590955293850135915080821115612163578283fd5b5061217085828601612048565b9150509250929050565b604051601f8201601f1916810167ffffffffffffffff811182821017156121a3576121a36121ab565b604052919050565b7f4e487b7100000000000000000000000000000000000000000000000000000000600052604160045260246000fdfe30644e72e131a029b85045b68181585d2833e84879b9709143e1f593f000000100eeb2cb5981ed45649abebde081dcff16c8601de4347e7dd1628ba2daac43b7a26469706673582212200f4587585e92cba9a1b26a7a64288c6c4ca6e06d995791b0aacac22b93cf778d64736f6c63430008040033",
  "linkReferences": {},
  "deployedLinkReferences": {}
}