{
  "_format": "hh-sol-artifact-1",
  "contractName": "PlonkVerifier",
  "sourceName": "contracts/verifier.sol",
  "abi": [
    {
      "inputs": [
        {
          "internalType": "bytes",
          "name": "proof",
          "type": "bytes"
        },
        {
          "internalType": "uint256[]",
          "name": "pubSignals",
          "type": "uint256[]"
        }
      ],
      "name": "verifyProof",
      "outputs": [
        {
          "internalType": "bool",
          "name": "",
          "type": "bool"
        }
      ],
      "stateMutability": "view",
      "type": "function"
    }
  ],
  "bytecode": "0x608060405234801561001057600080fd5b506114b7806100206000396000f3fe608060405234801561001057600080fd5b506004361061002b5760003560e01c80631e8e1e1314610030575b600080fd5b61004361003e3660046113a9565b610057565b604051901515815260200160405180910390f35b600061125e565b600080600184846000805b821561008b575092938183058581029091039350909181830290039081610069565b505050600181111561009c57600080fd5b505060008112156100aa5783015b9392505050565b60405181602084028301815160208301925060005b828410156100f7578185526000805160206114628339815191528451830991506020850194506020840193506100c6565b61010f6000805160206114628339815191528361005e565b91506020850394506020840393508592505b828411156101665760008051602061146283398151915285518309905060008051602061146283398151915284518309818552601f1995860195909401939150610121565b5090915250505050565b600080516020611462833981519152811061018f576000805260206000f35b50565b6103208151146101a6576000805260206000f35b6101b4610260820151610170565b6101c2610280820151610170565b6101d06102a0820151610170565b6101de6102c0820151610170565b6101ec6102e0820151610170565b6101fa610300820151610170565b61018f610320820151610170565b60008060208301516102c0850152602080018301516102e085015260406020018301516103008501526060602001830151610320850152608060200183015161034085015260a060200183015161036085015260008051602061146283398151915260c06102c0860120069050806020850152600080516020611462833981519152602080860120066040850152600080516020611462833981519152604060e085012006600085015260008051602061146283398151915260c061012085012006915081606085015260008051602061146283398151915282820960a0850152506000805160206114628339815191528182099050600080516020611462833981519152818209905060008051602061146283398151915281820990506000805160206114628339815191528182099050600080516020611462833981519152818209905060008051602061146283398151915281820990506000805160206114628339815191528182099050600080516020611462833981519152818209905060008051602061146283398151915281820990506000805160206114628339815191528182099050600080516020611462833981519152818209905060008051602061146283398151915281820990506000805160206114628339815191528182099050600080516020611462833981519152818209905060008051602061146283398151915281820990506000805160206114628339815191528182099050806080840152600080516020611462833981519152806001830301069050806102608401528061028084015260008051602061146283398151915260e0610260840120068060c085015260008051602061146283398151915281820991508160e0850152600080516020611462833981519152818309915081610100850152600080516020611462833981519152818309915081610120850152600080516020611462833981519152818309915081610140850152600080516020611462833981519152818309610160850152505060806101e0919091012060008051602061146283398151915290066101809091015250565b60016000805160206114628339815191528060008051602061146283398151915283606086015103010662010000096102a0830152610562600261028084016100b1565b61026082015160019150600080516020611462833981519152816102a0850151096102a0840152505050565b60008060006000805160206114628339815191526101a086015161032086015108925060008051602061146283398151915260208601516102c08601510991506000805160206114628339815191526102608501518308915060008051602061146283398151915260408601518308915060008051602061146283398151915260208601516102e086015109905060008051602061146283398151915261028085015182089050600080516020611462833981519152604086015182089050600080516020611462833981519152818309915060008051602061146283398151915260408601516102a086015108905060008051602061146283398151915281830991506000805160206114628339815191526103008501518309915060008051602061146283398151915260008601518309915060008051602061146283398151915260008601516102a0870151099050600080516020611462833981519152600086015182099050600080516020611462833981519152818308915050600080516020611462833981519152816000805160206114628339815191528401030691505060008051602061146283398151915261028084015182099050806101c0840152505050565b6040518151815260208201516020820152825160408201526020830151606082015260408260808360066107d05a03fa905080610799576000805260206000f35b505050565b6000604051835181526020840151602082015284604082015260408160608360076107d05a03fa9150816107d6576000805260206000f35b825160408201526020830151606082015260408360808360066107d05a03fa91505080610807576000805260206000f35b50505050565b600060405183815284602082015285604082015260408160608360076107d05a03fa915081610840576000805260206000f35b825160408201526020830151606082015260408360808360066107d05a03fa91505080610871576000805260206000f35b5050505050565b600060405183815284602082015285604082015260408360608360076107d05a03fa91505080610871576000805260206000f35b6101e082016108c96101e083018281518152602091820151910152565b61079961018084015161022084018361079e565b600080610220840160008051602061146283398151915260c086015161026086015109925061094e837f2f0ab0a7810ce3d3a38c575df89dc9ca621b708c1660f9e275d0a57e5e1060a47f1f2f7720e7b54a1d905a3a9734d824c18081f97a32c6767190527aebe953e66584610878565b600080516020611462833981519152610280850151840992506109b3837f10a5a672f17dfadbb5585c3ea011d8ffc8d21a521034af24b88cd7de09c4811f7f25b4d6e52481a642c6793a4c6d1e0e3ccff53c582dfbe0688b489ac3c3fcbc448461080d565b60008051602061146283398151915260c0860151610280860151099250610a1c837f1e0cf2448eec250adfc2f46a864b0ff52d54e89aafb15f4e6f51f4d2fc3c0e547f09fb45d178b522be28298a102b4b563afa821a21165d71974f77f220fff2c3378461080d565b60008051602061146283398151915260c08601516102a0860151099250610a85837f297bc9655f94e21d3a91505e300a2607fbf36ed8b931ed550318a796525b20c17f06df0ad55a0e357cdf36123671f4b18b3e2fb301c564b0351ee47654d6e64b128461080d565b60c08501519250610ad8837f147c50e43468ee4553b9f10885adef03371ff607e4f64326ed2483e8cfb532417f16571b2f3e25137b02d6f79062cec8390449c3c147416ccf7f59a7e5ca83c4e48461080d565b60008051602061146283398151915260a086015161026086015108925060008051602061146283398151915260408601518408925060008051602061146283398151915260a0860151600209915060008051602061146283398151915261028085015183089150600080516020611462833981519152604086015183089150600080516020611462833981519152828409925060008051602061146283398151915260a086015160030991506000805160206114628339815191526102a085015183089150600080516020611462833981519152604086015183089150600080516020611462833981519152828409925060008051602061146283398151915260008601518409925060008051602061146283398151915260c08601518409925060008051602061146283398151915260008601516102a087015109915060008051602061146283398151915260008601518309915060008051602061146283398151915260c086015183099150600080516020611462833981519152828408925060008051602061146283398151915261018086015184089250610c818360e086018361079e565b6000805160206114628339815191526102c08501516020870151099250600080516020611462833981519152610260850151840892506000805160206114628339815191526040860151840892506000805160206114628339815191526102e0850151602087015109915060008051602061146283398151915261028085015183089150600080516020611462833981519152604086015183089150600080516020611462833981519152828409925060008051602061146283398151915260008601518409925060008051602061146283398151915260c0860151840992506000805160206114628339815191526020860151840992506000805160206114628339815191526103008501518409600080516020611462833981519152908103069250610df1837f0eb1ffe0731b93e9de46ca75f555076b85a56dfc72772cefce95a2cb4cca62997f243061d4deb61e0f7ba196ff9f9ec1906b46a52812dd64208f0d7e30772f1c138461080d565b610dff610120850182610758565b60808501519250610e158361016086018361079e565b6000805160206114628339815191528384099250610e38836101a086018361079e565b610e4a60e0860151602086018361079e565b610e5d610100860151606086018361079e565b610e7061012086015160a086018361079e565b610ec16101408601517f131213288bd02a986abbb87a978a8395a1644e453f26224baf6019b2bf7274367f1a0507acf6bcc19e48014fe2c0a3064893faf2f4c503246e89cbc651ba4f8ecd8461080d565b610f126101608601517f0b0b1d2685ef3160fe6dd2d5dc0fa78bc5d4716375c11c7c45c03754d64c56667f020dc14b0124f6f5851f7158f498f37d9527cfd136d51ecb80917262073753748461080d565b6101c085015192506000805160206114628339815191528060c087015161032087015109840892506000805160206114628339815191528060e08701516102608701510984089250600080516020611462833981519152806101008701516102808701510984089250600080516020611462833981519152806101208701516102a08701510984089250600080516020611462833981519152806101408701516102c08701510984089250600080516020611462833981519152806101608701516102e087015109840892506000805160206114628339815191528061018087015161030087015109840860008051602061146283398151915290810306925061102083600260018461080d565b60608501519250611036836101e086018361079e565b60008051602061146283398151915260608601516101808701510992506000805160206114628339815191527eeeb2cb5981ed45649abebde081dcff16c8601de4347e7dd1628ba2daac43b7840992506108718361022086018361079e565b60006040516101e0830151815260206101e08401015160208201527f04826eac00f0382ea84bdc2c766610071bfe954132df3a84901a5edcc89b41f860408201527f11632edd0a4c1df2680481ec32646151d74902d0e30689981ee8bc8644160a6960608201527f10319be6cec56479d15c77559ba7ca080b43bb1dcda72afb7bd1bf7dffaecb9e60808201527f080a616082e6b54bc847da6322ba245cfbc0f6fee3fa0553d91c201a61378e1d60a082015261022083015160c08201526020610220840101517f30644e72e131a029b85045b68181585d97816a916871ca8d3c208c16d87cfd47817f30644e72e131a029b85045b68181585d97816a916871ca8d3c208c16d87cfd47030690508060e0830152507f198e9393920d483a7260bfb731fb5d25f1aa493335a9e71297e485b7aef312c26101008201527f1800deef121f1e76426a00665e5c4479674322d4f75edadd46debd5cd992f6ed6101208201527f090689d0585ff075ec9e99ad690c3395bc4b313370b38ef355acdadcd122975b6101408201527f12c85ea5db8c6deb4aab71808dcb408fe3d1e7690c43d37b4ce6cc0166fa7daa6101608201526020816101808360086107d05a03fa90511692915050565b6040516102c0810160405261127284610192565b61127d838286610208565b6112868161051e565b60006101a0820152611298818561058e565b6112a281856108ac565b6112ac81856108dd565b6112b581611095565b6102c0820360405280600052505060206000f35b7f4e487b7100000000000000000000000000000000000000000000000000000000600052604160045260246000fd5b604051601f8201601f1916810167ffffffffffffffff81118282101715611321576113216112c9565b604052919050565b600082601f83011261133a57600080fd5b8135602067ffffffffffffffff821115611356576113566112c9565b8160051b6113658282016112f8565b928352848101820192828101908785111561137f57600080fd5b83870192505b8483101561139e57823582529183019190830190611385565b979650505050505050565b600080604083850312156113bc57600080fd5b823567ffffffffffffffff808211156113d457600080fd5b818501915085601f8301126113e857600080fd5b81356020828211156113fc576113fc6112c9565b61140e601f8301601f191682016112f8565b828152888284870101111561142257600080fd5b8282860183830137600092810182019290925290945085013591508082111561144a57600080fd5b5061145785828601611329565b915050925092905056fe30644e72e131a029b85045b68181585d2833e84879b9709143e1f593f0000001a264697066735822122094bab0e2371b200c419236b7d24cf232fb83dc270aa7078bbf3bba034d56850864736f6c634300080d0033",
  "linkReferences": {},
  "deployedLinkReferences": {}
}