{
  "_format": "hh-sol-artifact-1",
  "contractName": "ZKEventVerifier",
  "sourceName": "contracts/verifier.sol",
  "abi": [
    {
      "inputs": [
        {
          "internalType": "uint256[2]",
          "name": "a",
          "type": "uint256[2]"
        },
        {
          "internalType": "uint256[2][2]",
          "name": "b",
          "type": "uint256[2][2]"
        },
        {
          "internalType": "uint256[2]",
          "name": "c",
          "type": "uint256[2]"
        },
        {
          "internalType": "uint256[9]",
          "name": "input",
          "type": "uint256[9]"
        }
      ],
      "name": "verifyProof",
      "outputs": [
        {
          "internalType": "bool",
          "name": "r",
          "type": "bool"
        }
      ],
      "stateMutability": "view",
      "type": "function"
    }
  ],
  "bytecode": "0x608060405234801561001057600080fd5b50611774806100206000396000f3fe608060405234801561001057600080fd5b506004361061002b5760003560e01c8063c542c93b14610030575b600080fd5b61004361003e36600461154c565b610057565b604051901515815260200160405180910390f35b60006100616113bd565b60408051808201825287518152602080890151818301529083528151608081018352875151818401908152885183015160608301528152825180840184528883018051518252518301518184015281830152838201528151808301835286518152868201518183015283830152815160098082526101408201909352600092909182016101208036833701905050905060005b600981101561015f5784816009811061011d57634e487b7160e01b600052603260045260246000fd5b602002015182828151811061014257634e487b7160e01b600052603260045260246000fd5b602090810291909101015280610157816116ed565b9150506100f4565b5061016a8183610188565b61017957600192505050610180565b6000925050505b949350505050565b60007f30644e72e131a029b85045b68181585d2833e84879b9709143e1f593f0000001816101b46103c2565b9050806080015151855160016101ca919061169f565b1461021c5760405162461bcd60e51b815260206004820152601260248201527f76657269666965722d6261642d696e707574000000000000000000000000000060448201526064015b60405180910390fd5b604080518082019091526000808252602082018190525b8651811015610337578387828151811061025d57634e487b7160e01b600052603260045260246000fd5b6020026020010151106102b25760405162461bcd60e51b815260206004820152601f60248201527f76657269666965722d6774652d736e61726b2d7363616c61722d6669656c64006044820152606401610213565b6103238261031e85608001518460016102cb919061169f565b815181106102e957634e487b7160e01b600052603260045260246000fd5b60200260200101518a858151811061031157634e487b7160e01b600052603260045260246000fd5b6020026020010151610ba1565b610c48565b91508061032f816116ed565b915050610233565b5061036e81836080015160008151811061036157634e487b7160e01b600052603260045260246000fd5b6020026020010151610c48565b90506103a46103808660000151610ceb565b8660200151846000015185602001518587604001518b604001518960600151610d8a565b6103b457600193505050506103bc565b600093505050505b92915050565b6103ca61140e565b6040805180820182527f039761846b8ae5d65f6988d1290cb7e404330d210250eb137497483b3ff43e3e81527e53271d2578d63ddcff613c155a5efb83598d981aa65917b839df7e3117c91a6020808301919091529083528151608080820184527f301515e5973d7d82e8d201b9edd3af861ba65ebde75a532a05a7b39039a4f9648285019081527f0fd62ab8209fc1466409378fb30f78419792a604de73c209ac99729c66438488606080850191909152908352845180860186527f1b3b93e9db15e01e5b2f520086a213d4855a8d2b3e3e165c39dcae7f2562ad4881527f0b0092d8afac1435a949d5a72feea8c8e9472a4c7f54d17ac26757c5785870f0818601528385015285840192909252835180820185527f198e9393920d483a7260bfb731fb5d25f1aa493335a9e71297e485b7aef312c28186019081527f1800deef121f1e76426a00665e5c4479674322d4f75edadd46debd5cd992f6ed828501528152845180860186527f090689d0585ff075ec9e99ad690c3395bc4b313370b38ef355acdadcd122975b81527f12c85ea5db8c6deb4aab71808dcb408fe3d1e7690c43d37b4ce6cc0166fa7daa818601528185015285850152835190810184527f1efc4670414b8a6030d92751929d656bdcd885fa5e6179bba1f35ec52e2717a38185019081527f119c1689579a0334cd8654f4adae9bb1d049ca6f566449f850731357e0f2ad66828401528152835180850185527f2a43689bb8d702540f511885cc27f6488d15e4a3c1f988cb03a795cb2cf4467981527f2ddc9ef538aeaaff6adf2590d2415954b4d6b86db419f76153833a06b51792258185015281840152908401528151600a8082526101608201909352919082015b604080518082019091526000808252602082015281526020019060019003908161064557505060808201908152604080518082019091527f13a15b17c617fa5b5f9cd6efdec3c34cbb6a96346950cd582266ec2a602d36be81527f20bb2466860bc3dc70b913d75d877af4b0bade292b5093b7131d70757c6fdf7c6020820152905180516000906106e657634e487b7160e01b600052603260045260246000fd5b602002602001018190525060405180604001604052807f1c308450a8ac659d8d7bee1c5129962d5d02018e1622e74dead171c3f470756e81526020017f05f4688b21368d2f848d9ec2b62f316ae08440c435dfc849bda7ae84e8def3f6815250816080015160018151811061076b57634e487b7160e01b600052603260045260246000fd5b602002602001018190525060405180604001604052807f24f6f62d7755e58b3d239796e59ca1f79c2ffaa56b57a92e160b1c082e006a8681526020017f2975bb872ab03a5eb404e261e9ae73cefb66f14728b366d2bca7e11bb966069281525081608001516002815181106107f057634e487b7160e01b600052603260045260246000fd5b602002602001018190525060405180604001604052807f09fa66f719d7e2aad7dbeafc1d15e6f1a57363d9b6cc947484005d2a09b8866281526020017f149355ee4f7a5c6087e405c2f9b45b7c94a2058e10563cde0bb04bec9d231caf815250816080015160038151811061087557634e487b7160e01b600052603260045260246000fd5b602002602001018190525060405180604001604052807f038951e2d9ef94b30fa706ec79a56fec758d8e4e40b2315ad0151a686c539a6581526020017f2a4270cdc0937d5a6133321acae49e90e9f9aaa0235cc3b8b7c4209fd9dee34781525081608001516004815181106108fa57634e487b7160e01b600052603260045260246000fd5b602002602001018190525060405180604001604052807f1a14df9070e5583382a065f0d7061ea98ca6e6313899d32e095c0472bda07cbd81526020017f10f0205ceb480e0869d7f8b0cc2baf28180841a3ff827209c7d926b9b25f7a05815250816080015160058151811061097f57634e487b7160e01b600052603260045260246000fd5b602002602001018190525060405180604001604052807f093de2079326812ccb6c4600660c2423cab9f5876594e5211e597a41c385bf9981526020017f24bf86b403da2c035d46127def8f06ad5e75f0ee4ef436a54a03fc282cd758358152508160800151600681518110610a0457634e487b7160e01b600052603260045260246000fd5b602002602001018190525060405180604001604052807f2cb2eba055bfe52771cae72cbbf6e403bf2ecf81dfdead888219187f18f8c90e81526020017f06ea68cf1339cd1b0f009ba4e50f77944012da7a51bb50680e2bcfe7e9b8f22f8152508160800151600781518110610a8957634e487b7160e01b600052603260045260246000fd5b602002602001018190525060405180604001604052807f16600bd6273b9ad49ab22d3307d1c44ac821bfd9026574e0aa3fce7f13a3b8a981526020017f2caf8b4a198346d50df779bb0c4f3d342cd133e816246be6f0107051859eabf18152508160800151600881518110610b0e57634e487b7160e01b600052603260045260246000fd5b602002602001018190525060405180604001604052807f28733771c8b403c95be62245858add9261d3177de60f0c547967d6d9c462bc7781526020017f0187953912114fd331242abbf19b617e7a508cb0bfc4f2b16b929cc58ae39e0d8152508160800151600981518110610b9357634e487b7160e01b600052603260045260246000fd5b602002602001018190525090565b6040805180820190915260008082526020820152610bbd61145f565b835181526020808501519082015260408101839052600060608360808460076107d05a03fa9050808015610bf057610bf2565bfe5b5080610c405760405162461bcd60e51b815260206004820152601260248201527f70616972696e672d6d756c2d6661696c656400000000000000000000000000006044820152606401610213565b505092915050565b6040805180820190915260008082526020820152610c6461147d565b8351815260208085015181830152835160408301528301516060808301919091526000908360c08460066107d05a03fa9050808015610bf0575080610c405760405162461bcd60e51b815260206004820152601260248201527f70616972696e672d6164642d6661696c656400000000000000000000000000006044820152606401610213565b604080518082019091526000808252602082015281517f30644e72e131a029b85045b68181585d97816a916871ca8d3c208c16d87cfd4790158015610d3257506020830151155b15610d525750506040805180820190915260008082526020820152919050565b604051806040016040528084600001518152602001828560200151610d779190611708565b610d8190846116d6565b90529392505050565b60408051600480825260a08201909252600091829190816020015b6040805180820190915260008082526020820152815260200190600190039081610da557505060408051600480825260a0820190925291925060009190602082015b610def61149b565b815260200190600190039081610de75790505090508a82600081518110610e2657634e487b7160e01b600052603260045260246000fd5b60200260200101819052508882600181518110610e5357634e487b7160e01b600052603260045260246000fd5b60200260200101819052508682600281518110610e8057634e487b7160e01b600052603260045260246000fd5b60200260200101819052508482600381518110610ead57634e487b7160e01b600052603260045260246000fd5b60200260200101819052508981600081518110610eda57634e487b7160e01b600052603260045260246000fd5b60200260200101819052508781600181518110610f0757634e487b7160e01b600052603260045260246000fd5b60200260200101819052508581600281518110610f3457634e487b7160e01b600052603260045260246000fd5b60200260200101819052508381600381518110610f6157634e487b7160e01b600052603260045260246000fd5b6020026020010181905250610f768282610f85565b9b9a5050505050505050505050565b60008151835114610fd85760405162461bcd60e51b815260206004820152601660248201527f70616972696e672d6c656e677468732d6661696c6564000000000000000000006044820152606401610213565b82516000610fe78260066116b7565b905060008167ffffffffffffffff81111561101257634e487b7160e01b600052604160045260246000fd5b60405190808252806020026020018201604052801561103b578160200160208202803683370190505b50905060005b8381101561133a5786818151811061106957634e487b7160e01b600052603260045260246000fd5b6020026020010151600001518282600661108391906116b7565b61108e90600061169f565b815181106110ac57634e487b7160e01b600052603260045260246000fd5b6020026020010181815250508681815181106110d857634e487b7160e01b600052603260045260246000fd5b602002602001015160200151828260066110f291906116b7565b6110fd90600161169f565b8151811061111b57634e487b7160e01b600052603260045260246000fd5b60200260200101818152505085818151811061114757634e487b7160e01b600052603260045260246000fd5b60209081029190910101515151826111608360066116b7565b61116b90600261169f565b8151811061118957634e487b7160e01b600052603260045260246000fd5b6020026020010181815250508581815181106111b557634e487b7160e01b600052603260045260246000fd5b602090810291909101810151510151826111d08360066116b7565b6111db90600361169f565b815181106111f957634e487b7160e01b600052603260045260246000fd5b60200260200101818152505085818151811061122557634e487b7160e01b600052603260045260246000fd5b60200260200101516020015160006002811061125157634e487b7160e01b600052603260045260246000fd5b6020020151826112628360066116b7565b61126d90600461169f565b8151811061128b57634e487b7160e01b600052603260045260246000fd5b6020026020010181815250508581815181106112b757634e487b7160e01b600052603260045260246000fd5b6020026020010151602001516001600281106112e357634e487b7160e01b600052603260045260246000fd5b6020020151826112f48360066116b7565b6112ff90600561169f565b8151811061131d57634e487b7160e01b600052603260045260246000fd5b602090810291909101015280611332816116ed565b915050611041565b506113436114bb565b6000602082602086026020860160086107d05a03fa9050808015610bf05750806113af5760405162461bcd60e51b815260206004820152601560248201527f70616972696e672d6f70636f64652d6661696c656400000000000000000000006044820152606401610213565b505115159695505050505050565b6040805160a0810190915260006060820181815260808301919091528152602081016113e761149b565b8152602001611409604051806040016040528060008152602001600081525090565b905290565b6040805160e08101909152600060a0820181815260c083019190915281526020810161143861149b565b815260200161144561149b565b815260200161145261149b565b8152602001606081525090565b60405180606001604052806003906020820280368337509192915050565b60405180608001604052806004906020820280368337509192915050565b60405180604001604052806114ae6114d9565b81526020016114096114d9565b60405180602001604052806001906020820280368337509192915050565b60405180604001604052806002906020820280368337509192915050565b600082601f830112611507578081fd5b61150f611636565b808385604086011115611520578384fd5b835b6002811015611541578135845260209384019390910190600101611522565b509095945050505050565b600080600080610220808688031215611563578485fd5b61156d87876114f7565b9450604087605f88011261157f578485fd5b611587611636565b8082890160c08a018b81111561159b578889fd5b885b60028110156115c4576115b08d846114f7565b85526020909401939185019160010161159d565b508298506115d28c826114f7565b975050505050508661011f8701126115e8578182fd5b6115f061166d565b80610100880189848a011115611604578485fd5b8493505b600984101561162857803583526001939093019260209283019201611608565b509598949750929550505050565b6040805190810167ffffffffffffffff8111828210171561166757634e487b7160e01b600052604160045260246000fd5b60405290565b604051610120810167ffffffffffffffff8111828210171561166757634e487b7160e01b600052604160045260246000fd5b600082198211156116b2576116b2611728565b500190565b60008160001904831182151516156116d1576116d1611728565b500290565b6000828210156116e8576116e8611728565b500390565b600060001982141561170157611701611728565b5060010190565b60008261172357634e487b7160e01b81526012600452602481fd5b500690565b634e487b7160e01b600052601160045260246000fdfea2646970667358221220db4ef33e6a1091480f4c796e231586954c8c2aa91349e0a0f150b39e0f87ce0b64736f6c63430008040033",
  "linkReferences": {},
  "deployedLinkReferences": {}
}